:020000040000FA
:100000000C94D3010C9404020C9404020C9404028A
:100010000C9404020C9404020C9404020C94040248
:100020000C9404020C9404020C9404020C94040238
:100030000C9404020C9404020C9404020C94040228
:100040000C9404020C9476090C9404020C9404029F
:100050000C9404020C9404020C9404020C942C09D9
:100060000C9404020C94F6080C94CC080C94040232
:100070000C9404020C9404020C9404020C940402E8
:100080000C9404020C9404020C9404020C940402D8
:100090000C9404020C9404020C9404020C940402C8
:1000A0000C9404020C9404020C9404020C940402B8
:1000B0000C9404020C9404020C9404020C940402A8
:1000C0000C9404020C9404020C9404020C94040298
:1000D0000C9404020C9404020C9404020C94040288
:1000E0000C9404020C940C0A0C94F4030C948503F5
:1000F0000C942B040C9413040C94530F0C940904CB
:100100000C9402040C94FE030C9435040C94F2023B
:100110000C9400030C941D040C9438030C948F026F
:100120000C9419040C942F040C94FA030C942704D7
:100130000C9406040C9462020C9439040C9421046F
:100140000C949E020C9434040C940F044E414E49BE
:100150004E495459494E46CDCCCC3D0AD7233C1785
:10016000B7D13877CC2B329595E6241FB14F0A00D2
:100170000020410000C84200401C4620BCBE4CCAC2
:100180001B0E5AAEC59D7400407A10F35A00A0723F
:100190004E18090010A5D4E80000E87648170000C2
:1001A000E40B54020000CA9A3B000000E1F5050090
:1001B0000080969800000040420F000000A08601D9
:1001C000000000102700000000E8030000000064A9
:1001D00000000000000A0000000000010000000014
:1001E000002C76D888DC674F0823DFC1DFAE59E1E9
:1001F000B1B796E5E3E453C63AE651997696E8E658
:10020000C28426EB898C9B62ED407C6FFCEFBC9C2A
:100210009F40F2BAA56FA5F490055A2AF75C936B3C
:100220006CF9676DC11BFCE0E40D47FEF520E6B5F7
:1002300000D0ED902E0300943577050080841E08D1
:100240000000204E0A000000C80C333333330F98EF
:100250006E12831141EF8D2114893BE65516CFFEB6
:10026000E6DB18D1844B381BF77C1D901DA4BBE442
:1002700024203284725E228100C9F124ECA1E53D84
:100280002700002100240027002A002D0030003321
:100290000001010000040107010A010000220025FD
:1002A0000028002B002E0031003400020100000560
:1002B0000108010B01000020002300260029002C6A
:1002C000002F0032000001000003010601090105B2
:1002D000050505070508080808020202020A0A08BF
:1002E00008040404040101010101010101030303E5
:1002F0000303030303040707070C0C0C0C0C0C0C82
:100300000C0202020206060606060606060B0B0B88
:100310000B0B0B0B0B0102102020080810204010C3
:1003200020408002010201080402010102040810B9
:1003300020408080402010080402018004020180D7
:100340004020100804020108040201010204081000
:10035000204080010204081020408000000A0B02A7
:10036000090C0D0E08070304010000000000000046
:10037000000000000000000000000000000000007D
:10038000000000000000001211100000000000003A
:10039000000000000000000000000000000000005D
:1003A00000000C0A530F11241FBECFEFD1E2DEBFB5
:1003B000CDBF00E00CBF24E0AAEDB2E001C01D9269
:1003C000AE30B207E1F712E0A0E0B2E0E6E1F0E320
:1003D00000E00BBF02C007900D92AA3DB107D9F70C
:1003E00011E0C2EDD1E000E006C021970109802FA5
:1003F000FE010E94BE15C13DD10780E00807A9F7A4
:100400000E94F10A0C94F9170C940000FC0124815D
:1004100035816217730720F480819181009729F458
:100420001092E30283EE92E00895860F971F0895DD
:100430007F928F929F92AF92BF92CF92DF92EF9274
:10044000FF920F931F93CF93DF93EC01B62ECC80D6
:10045000DD80F12CE12C10E000E0702EA12EEC14D8
:10046000FD04E4F4B701CE010E940602FC01808184
:100470008B1581F0B701CE010E9406024C010F5F7F
:100480001F4F672D7A2DCE010E940602F4012081B4
:10049000FC012083FFEFEF1AFF0ADFCFB801CE0186
:1004A0000E940602FC011082DF91CF911F910F91F3
:1004B000FF90EF90DF90CF90BF90AF909F908F9084
:1004C0007F900895AF92BF92CF92DF92EF92FF920A
:1004D0000F931F93CF93DF936C017B018B01040F6C
:1004E000151FEB015E01AE18BF08C017D10759F008
:1004F0006991D601ED91FC910190F081E02DC6014A
:100500001995892B79F7C501DF91CF911F910F9133
:10051000FF90EF90DF90CF90BF90AF900895FC01D7
:10052000538D448D252F30E0842F90E0821B930B58
:10053000541710F0CF96089501970895FC01918DFE
:10054000828D981761F0A28DAE0FBF2FB11D5D9601
:100550008C91928D9F5F9F73928F90E008958FEFA3
:100560009FEF08952FB7F8948091F0029091F102D7
:10057000A091F202B091F3022FBF8093FC029093FE
:10058000FD02A093FE02B093FF0284EF92E00E946E
:100590009E0297FF26C02FB7F8948091F0029091A9
:1005A000F102A091F202B091F3022FBF4091FC0240
:1005B0005091FD026091FE027091FF02841B950B29
:1005C000A60BB70B4091F8025091F9026091FA0224
:1005D0007091FB0284179507A607B707B0F28FEF5B
:1005E0009FEF0895FC01918D828D981731F0828DD7
:1005F000E80FF11D858D90E008958FEF9FEF08952E
:10060000FC01918D228D892F90E0805C9F4F821B91
:1006100091098F739927089584EF92E00E94000357
:1006200021E0892B09F420E0822F0895FC01A48D9C
:10063000A80FB92FB11DA35ABF4F2C91848D90E004
:1006400001968F739927848FA689B7892C93A089E7
:10065000B1898C91837080648C93938D848D981371
:1006600006C00288F389E02D80818F7D8083089504
:10067000EF92FF920F931F93CF93DF93EC0181E0F2
:10068000888F9B8D8C8D98131AC0E889F989808199
:1006900085FF15C09FB7F894EE89FF896083E889CC
:1006A000F98980818370806480839FBF81E090E0BE
:1006B000DF91CF911F910F91FF90EF900895F62E4B
:1006C0000B8D10E00F5F1F4F0F731127E02E8C8DE5
:1006D0008E110CC00FB607FCFACFE889F98980812A
:1006E00085FFF5CFCE010E941603F1CFEB8DEC0F05
:1006F000FD2FF11DE35AFF4FF0829FB7F8940B8F47
:10070000EA89FB8980818062CFCFCF93DF93EC01B0
:10071000888D8823B9F0AA89BB89E889F9898C91E9
:1007200085FD03C0808186FD0DC00FB607FCF7CFA5
:100730008C9185FFF2CF808185FFEDCFCE010E94A5
:100740001603E9CFDF91CF91089580E090E0892BE7
:1007500029F00E940C0381110E94000080E090E0CB
:10076000892B49F080E090E0892B29F00E9400005D
:1007700081110E94000080E090E0892B49F080E028
:1007800090E0892B29F00E94000081110E94000056
:1007900080E090E0892B49F080E090E0892B29F0FF
:1007A0000E94000081110C94000008958150823154
:1007B00008F05AC0E82FF0E08827EE51FC4F8F4F29
:1007C0000C94BE1502040604F403FA03FE03340479
:1007D00009040F04130419041D04210427042B0425
:1007E00034042F0435043904809180008F7780937E
:1007F00080000895809180008F7DF9CF80918000E6
:10080000877FF5CF84B58F7784BD089584B58F7DBC
:10081000FBCF8091B0008F778093B00008958091D6
:10082000B0008F7DF9CF809190008F7780939000FA
:100830000895809190008F7DF9CF80919000877FFF
:10084000F5CF8091A0008F778093A00008958091CC
:10085000A0008F7DF9CF8091A000877FF5CF809198
:1008600020018F77809320010895809120018F7D52
:10087000F9CF80912001877FF5CFCF93DF93282F89
:1008800030E0F901E55AFC4F8491F901EB5EFC4F31
:10089000D491F901E153FD4FC491CC23A1F0811112
:1008A0000E94D603EC2FF0E0EE0FFF1FEB54FD4F3C
:1008B000A591B491EC91ED2381E090E009F480E002
:1008C000DF91CF91089580E090E0FACF1F93CF930E
:1008D000DF93282F30E0F901E55AFC4F8491F901AC
:1008E000EB5EFC4FD491F901E153FD4FC491CC2351
:1008F000A9F0162F81110E94D603EC2FF0E0EE0F25
:10090000FF1FE556FD4FA591B4918FB7F894EC9178
:10091000111108C0D095DE23DC938FBFDF91CF91FA
:100920001F910895DE2BF8CFCF93DF9360E0809185
:1009300004040E946604D8E0C0E0809106040E948E
:100940003D04CC0FC82B61E0809102040E94660434
:1009500060E0809102040E946604D15071F78C2FF0
:10096000DF91CF910895CF93DF93D82F60E08091EE
:1009700002040E946604C8E08091040460E0D7FD90
:1009800061E00E946604DD0F61E0809102040E9434
:10099000660460E0809102040E946604C15061F721
:1009A000DF91CF9108950F931F93CF93DF93EC01C5
:1009B00000E014E060E0F80180810E946604888114
:1009C0000E94B30489810E94B3048A810E94B30407
:1009D0008B810E94B3048C810E94B30461E0F80112
:1009E0008081DF91CF911F910F910C946604CF937A
:1009F000DF9390E0FC01EB5EFC4F249181539D4F0F
:100A0000FC0184918823C9F090E0880F991FFC01B4
:100A1000EF57FD4FA591B491FC01E556FD4FC591EF
:100A2000D49161110DC09FB7F8948C9120958223C9
:100A30008C938881282328839FBFDF91CF910895CD
:100A4000623051F49FB7F8943C91822F80958323B4
:100A50008C93E8812E2BEFCF8FB7F894EC912E2B4F
:100A60002C938FBFEACF3FB7F8948091DF0290912B
:100A7000E002A091E102B091E20226B5A89B05C078
:100A80002F3F19F00196A11DB11D3FBFBA2FA92F0D
:100A9000982F8827BC01CD01620F711D811D911D0A
:100AA00042E0660F771F881F991F4A95D1F7089576
:100AB0008F929F92AF92BF92CF92DF92EF92FF926E
:100AC0004B015C010E9433056B017C010E943305E0
:100AD0006C197D098E099F09683E73408105910557
:100AE000A8F321E0821A9108A108B10888EEC80E87
:100AF00083E0D81EE11CF11C81149104A104B1040F
:100B000029F7FF90EF90DF90CF90BF90AF909F902C
:100B10008F900895BF92CF92DF92EF92FF920F9342
:100B20001F93CF93DF93C0E060E0809102040E94A6
:100B3000660460E0809104040E94660460E0809195
:100B400000040E946604809106040E943D04892BE3
:100B5000D1F760E0809100040E94660480E00E946A
:100B6000B3040E949404D82F0E949404D82E0E94AB
:100B70009404C82E0E949404B82E61E08091000471
:100B80000E946604D7FDCFEFB2FC09C0C601AD2FAD
:100B9000BC2F0097A105B10511F076018D01B701B9
:100BA000C8010E94561320910A0230910B02409115
:100BB0000C0250910D020E94FD142091E40230912C
:100BC000E5024091E6025091E7020E949014DF9105
:100BD000CF911F910F91FF90EF90DF90CF90BF903A
:100BE00008954F925F926F927F928F929F92AF92F1
:100BF000BF92CF92DF92EF92FF920F931F93CF930A
:100C0000DF93D0E0C0E0812C912C5401082F082EF6
:100C1000000C110BC82E880FDD08EE08FF08C01766
:100C2000D107C4F40E948A052B013C01C701B6011B
:100C30000E9456139B01AC01C301B2010E94FD1436
:100C40009B01AC01C501B4010E9491144B015C01F0
:100C50002196E5CFA50194016091E4027091E5022F
:100C60008091E6029091E7020E9491146093E40261
:100C70007093E5028093E6029093E702DF91CF91B3
:100C80001F910F91FF90EF90DF90CF90BF90AF90AA
:100C90009F908F907F906F905F904F900895EC01A0
:100CA000009739F00E94FD0966E272E0CE010E94D1
:100CB000FD090E94E4098F929F92AF92BF92CF925A
:100CC000DF92EF92FF920F931F93CF93DF93EC018C
:100CD00069E272E018161906DCF5880F991F880F73
:100CE000991F0E94DA158C01009781F18090F4031E
:100CF0009090F503E091F003F091F103A090F603DA
:100D0000B090F703C090F203D090F3037C0130E081
:100D100020E02815390514F5C9018A0D9B1DB6017F
:100D20000E94AA15DC01AA0FBB1FAA0FBB1FAE0FA2
:100D3000BF1F4D915D916D917C91D7014D935D9356
:100D40006D937D937D012F5F3F4FE3CF6EE572E0A2
:100D50008091EE039091EF030E944F06CF010E9415
:100D600076161093F1030093F0031092F70310929C
:100D7000F6038091F4039091F5039093F903809327
:100D8000F803D093F303C093F203DF91CF911F9147
:100D90000F91FF90EF90DF90CF90BF90AF909F901A
:100DA0008F900895FC0180819181009711F00C943F
:100DB00076160895EF92FF920F931F93CF93DF93D0
:100DC000EC017C018BE1E80EF11C8E01095A1F4FEA
:100DD000E016F10631F006501109C8010E94D20652
:100DE000F7CFCE0145960E94D206CE0106960E940C
:100DF000D206CE01DF91CF911F910F91FF90EF901E
:100E00000C94D206FC0124813581232B39F421E096
:100E1000FB018081882349F020E007C08081918117
:100E20000E94E91721E0892BB9F7822F08950F93CB
:100E30001F93CF93DF93EC0188819981009759F03C
:100E40002A813B812617370730F081E0DF91CF916F
:100E50001F910F9108958B016F5F7F4F0E94FF16C6
:100E6000009759F0998388831B830A832C813D81E5
:100E7000232B59F7FC011082E8CF80E0E7CFEF92F7
:100E8000FF920F931F93CF93DF936115710541F488
:100E900080E0DF91CF911F910F91FF90EF90089527
:100EA00041155105B1F07B01EC010C811D81040F4E
:100EB000151FB8010E941707882351F32881398133
:100EC0008C819D81B701820F931F0E94F2171D83B1
:100ED0000C8381E0DECFEF92FF920F931F93CF93AD
:100EE000DF93CDB7DEB764970FB6F894DEBF0FBEC1
:100EF000CDBF7C01CB01BA018E010F5F1F4F22E0F5
:100F000044E00E945D0FFC0101900020E9F7319759
:100F1000AF01481B590BBC01C7010E943F076496F3
:100F20000FB6F894DEBF0FBECDBFDF91CF911F91FA
:100F30000F91FF90EF900895EF92FF920F931F9300
:100F4000CF93DF93EC017B018A01BA010E9417075E
:100F500028813981811114C02115310519F0C90189
:100F60000E947616198218821D821C821B821A82A8
:100F7000CE01DF91CF911F910F91FF90EF900895D7
:100F80001D830C83B701C9010E94F217F1CFFC0148
:100F900011821082138212821582148250E040E086
:100FA00068E272E00C949C07CF93DF93EC01FB01A5
:100FB0008617970749F0608171816115710541F0CD
:100FC000448155810E949C07CE01DF91CF91089505
:100FD00088819981009711F00E94761619821882F3
:100FE0001D821C821B821A82EFCF8F929F92AF923A
:100FF000BF92CF92DF92EF92FF920F931F93CF9306
:10100000DF9300D000D01F921F92CDB7DEB76C01E6
:101010006DE50E9418026BE5C6010E9418029090CF
:10102000A503F601A480B580CE0101960E94C707F2
:10103000F12CE12C10E000E086E0882EEA14FB049D
:10104000DCF5F60184819581E816F906C8F4808103
:1010500091810097A9F08E0D9F1DFC01808198164B
:1010600089F08F83188641E050E0BE01695F7F4FB1
:10107000CE0101960E943F07FFEFEF1AFF0ADECF75
:1010800080E0EDCF0A301105BCF7809EC001819E43
:10109000900D1124BE016F5F7F4F84559C4F0E94BD
:1010A000D4070F5F1F4F50E040E068E272E0CE01CE
:1010B00001960E949C07E0CF68E272E0CE010196A3
:1010C0000E940207811112C00A3011057CF426E04B
:1010D000209FC001219F900D1124BE016F5F7F4FA3
:1010E00084559C4F0E94D4070F5F1F4FCE0101967D
:1010F0000E94D2061093A2030093A10302301105AF
:10110000F9F00330110599F10130110531F46CEA61
:1011100073E081E993E00E94D40728960FB6F89413
:10112000DEBF0FBECDBFDF91CF911F910F91FF901A
:10113000EF90DF90CF90BF90AF909F908F900895E9
:101140006CEA73E081E993E00E94D4078091B203D6
:101150009091B3030097E1F00E947B0F60939D0391
:1011600070939E0380939F039093A003D6CF6CEA65
:1011700073E081E993E00E94D40762EB73E087E9B2
:1011800093E00E94D4078091B8039091B903E2CF15
:1011900060E070E0CB01E2CF1F920F920FB60F928A
:1011A00011240BB60F922F933F934F935F936F933E
:1011B0007F938F939F93AF93BF93EF93FF9384EFAE
:1011C00092E00E941603FF91EF91BF91AF919F9122
:1011D0008F917F916F915F914F913F912F910F90E0
:1011E0000BBE0F900FBE0F901F9018951F920F927D
:1011F0000FB60F9211240BB60F922F938F939F93DC
:10120000EF93FF93E0910403F09105038081E09157
:101210000A03F0910B0382FD1DC0908180910D03A4
:101220008F5F8F7320910E03821741F0E0910D03C1
:10123000F0E0EC50FD4F958F80930D03FF91EF91FF
:101240009F918F912F910F900BBE0F900FBE0F901B
:101250001F9018958081F2CF1F920F920FB60F92B8
:1012600011242F933F938F939F93AF93BF938091BC
:10127000F0029091F102A091F202B091F30230914C
:10128000DE0223E0230F2D3758F50196A11DB11D75
:101290002093DE028093F0029093F102A093F20279
:1012A000B093F3028091DF029091E002A091E102FD
:1012B000B091E2020196A11DB11D8093DF029093CF
:1012C000E002A093E102B093E202BF91AF919F913F
:1012D0008F913F912F910F900FBE0F901F901895F7
:1012E00026E8230F0296A11DB11DD2CF1F920F92A7
:1012F0000FB60F9211240BB60F922F933F934F937B
:101300005F936F937F938F939F93AF93BF93EF936D
:10131000FF93109285001092840080918800909134
:1013200089008F3F9F4700F180916F008D7F8093F0
:101330006F0060E08AE00E94660461E08CE00E9439
:101340006604FF91EF91BF91AF919F918F917F9133
:101350006F915F914F913F912F910F900BBE0F9026
:101360000FBE0F901F9018958AE00E943D0461E027
:1013700068278AE00E9466048AE00E943D04892B67
:1013800001F78BE00E943D04892BD9F48FEF9FEF8A
:10139000092E000CAA0BBB0B4091DA025091DB0224
:1013A0006091DC027091DD02840F951FA61FB71FAC
:1013B0008093DA029093DB02A093DC02B093DD020B
:1013C000C0CF81E090E0E4CF61E08DE00E94F704BF
:1013D00061E08DE00E9466046AEF70E080E090E0DA
:1013E0000E94580560E08DE00E9466046AEF70E09C
:1013F00080E090E00E945805EBCFFB0101900020B7
:10140000E9F73197AF01461B570BDC01ED91FC91D9
:101410000280F381E02D19940F931F93CF93DF93F4
:101420001092F7021092F60288EE93E0A0E0B0E08E
:101430008093F8029093F902A093FA02B093FB0212
:1014400088E192E09093F5028093F40285EC90E0BD
:10145000909301038093000384EC90E09093030346
:101460008093020380EC90E0909305038093040343
:1014700081EC90E0909307038093060382EC90E068
:10148000909309038093080386EC90E090930B03FC
:1014900080930A0310920D0310920E0310920F0313
:1014A0001092100302E010E0109301040093000476
:1014B00085E090E09093030480930204C3E0D0E0C1
:1014C000D0930504C093040484E090E09093070453
:1014D0008093060461E082E00E94F70461E080915D
:1014E00002040E94F70461E0809104040E94F70462
:1014F00060E0809106040E94F70461E0809100049E
:101500000E94660460E0809102040E94660460E02C
:10151000809104040E9466041092F3031092F20377
:101520001092F5031092F4031092F7031092F60351
:101530001092F9031092F8031092EF031092EE0349
:1015400088E090E00E94DA159093F1038093F00315
:10155000892B11F40E94E4091093F3030093F20322
:10156000D093E903C093E8038DEC9CECACE4BEE3BC
:101570008093EA039093EB03A093EC03B093ED0305
:101580001092FA031092FB031092FC031092FD03D9
:101590001092FF031092FE0381E993E00E94C707B7
:1015A00087E993E00E94C70782E390E09093A40349
:1015B0008093A3038BE38093A50386EA93E00E94C4
:1015C000C707D0E0C0E0CE0184559C4F0E94C707FA
:1015D0002696CC33D105B9F7DF91CF911F910F91AA
:1015E0000895CF93DF93CDB7DEB7C955D1090FB6B4
:1015F000F894DEBF0FBECDBF789484B5826084BD01
:1016000084B5816084BD85B5826085BD85B5816006
:1016100085BD80916E00816080936E001092810084
:10162000809181008260809381008091810081603F
:101630008093810080918000816080938000809100
:10164000B10084608093B1008091B000816080938C
:10165000B000809191008260809391008091910010
:1016600081608093910080919000816080939000D0
:101670008091A10082608093A1008091A10081608F
:101680008093A1008091A00081608093A000809150
:1016900021018260809321018091210181608093EA
:1016A00021018091200181608093200180917A0046
:1016B000846080937A0080917A00826080937A00BF
:1016C00080917A00816080937A0080917A008068AE
:1016D00080937A001092C100E0910403F091050319
:1016E00082E08083E0910003F09101031082E09199
:1016F0000203F091030380E1808310920C03E091D8
:101700000803F091090386E08083E0910603F091DD
:101710000703808180618083E0910603F0910703D5
:10172000808188608083E0910603F09107038081C7
:1017300080688083E0910603F091070380818F7DAC
:10174000808361E08AE00E94F70461E08BE00E9400
:10175000F70461E08CE00E94F70461E089E00E94F8
:10176000F70462E088E00E94F70460E08AE00E94EB
:10177000660460E08BE00E94660460E08CE00E94FA
:10178000660460E089E00E94660461E088E00E94EF
:1017900066041092800080918100816080938100B6
:1017A00080918100826080938100809181008B7F95
:1017B000809381001092850010928400109289001D
:1017C0001092880061E0809100040E94660460E04D
:1017D000809102040E94660460E0809104040E94EB
:1017E00066046AE070E080E090E00E94580560E0E6
:1017F000809100040E94660461E0809104040E94CC
:1018000066040FE710E061E0809102040E94660424
:1018100060E0809102040E9466040150110999F76A
:1018200060E0809104040E94660461E080910204FB
:101830000E94660460E0809102040E94660461E0F8
:10184000809100040E9466046AE070E080E090E00D
:101850000E94580585E092E00E94D30468EC70E095
:1018600080E090E00E94580580E092E00E94D3045E
:101870006AE070E080E090E00E94580583E0898390
:1018800082E08A831B8280E28C831D82CE010196D6
:101890000E94D30460E0809100040E94660480EC02
:1018A0000E94B30461E0809100040E9466048AE013
:1018B0000E94F1050FEF1FE784EF92E00E94000302
:1018C000892B09F49BC0CE0101960E94C7070E9494
:1018D000B20297FD13C08A30910581F069968FAFEF
:1018E00069976A961FAE6A9741E050E0BE01685A58
:1018F0007F4FCE0101960E943F07E9CFCE010196AE
:101900000E94F507CE0101960E94D2061A82198222
:101910001C821B821E821D8261E973E0CE0101964A
:101920000E94D40718861F821A8619861C861B8679
:1019300067E973E0CE0107960E94D40780919D036A
:1019400090919E03A0919F03B091A0038D879E87E5
:10195000AF87B88B8091A1039091A2039A8B898B5A
:101960008091A3039091A4039C8B8B8B8091A50302
:101970008D8B1F8A1E8A198E188E1B8E1A8E66EA10
:1019800073E0CE0146960E94D4077E018CE1E80EFA
:10199000F11C8BE1C82ED12CF70111821082138229
:1019A000128215821482B6016F567C4FC7010E94C5
:1019B000D407F6E0EF0EF11C86E0C80ED11CE7E577
:1019C000CE16D10449F789899A898230910509F4A4
:1019D00065C08330910509F4B8C0019759F468E9EE
:1019E00072E0CE0101960E940207882319F084E17B
:1019F0000E94F105CE0101960E94DA0687E00E945E
:101A00003D04892B69F480916F008D7F80936F0076
:101A100060E08AE00E94660461E08CE00E94660457
:101A200086E00E943D04892B69F480916F008D7FD0
:101A300080936F0060E08AE00E94660461E08CE0C1
:101A40000E946604CE0101960E94C7070E948A0583
:101A50004B015C018092EC029092ED02A092EE02AA
:101A6000B092EF022091FE033091FF038091E803D2
:101A70009091E903281739070CF458C12091F40319
:101A80003091F5032115310509F0F3C066EA72E0E3
:101A90008091EE039091EF030E944F066DE972E092
:101AA000CE0101960E940207882309F4A3CF4D843A
:101AB0005E846F847888BAE0AB2EB12CC12CD12C17
:101AC00076010E948A0520E030E040E251E40E9465
:101AD000FD149B01AC01C701B6010E9491146B017A
:101AE0007C01F1E0AF1AB10861F7A30192010E94F5
:101AF000FD149B01AC0160910A0270910B02809170
:101B00000C0290910D020E94B51360930A0270932B
:101B10000B0280930C0290930D0284E10E94F10568
:101B2000A30192016091E4027091E5028091E602C6
:101B30009091E7020E9490146093E4027093E50292
:101B40008093E6029093E70255CF61EA72E0CE01FE
:101B500001960E940207882309F44CCF63EA72E0E1
:101B6000CE0107960E940207811175C060E070E007
:101B700080E89FEB2D853E854F8558890E94B513DF
:101B80006B017C012FE632E143E85AE30E94A51580
:101B9000181654F02FE632E143E85AEBC701B601BC
:101BA0000E944F1387FF60C020E030E0A901C70109
:101BB000B6010E94A51520E030E048E454E4181670
:101BC0000CF04EC0C701B6010E94B5139B01AC01D9
:101BD0000E9491149B01AC0160E070E48CE995E4F3
:101BE0000E94FD1420E030E04AE753E40E94B51360
:101BF0000E946F157093890060938800809188001F
:101C00009091890001979093850080938400809142
:101C10006F00826080936F0020E030E0A901C7016F
:101C2000B6010E94A515181624F461E08BE00E940D
:101C3000660420E030E0A901C701B6010E944F13FD
:101C400087FF04C060E08BE00E94660460E08CE0E7
:101C50000E946604CFCE60E070E080E89FE38ACF08
:101C6000C701B6019058B0CF109389000093880047
:101C7000C1CE6091F0037091F1038091F6039091D1
:101C8000F703AC014F5F5F4F5093F7034093F603A8
:101C9000880F991F880F991F860F971FFC01C0801E
:101CA000D180E280F380215031093093F5032093F5
:101CB000F4038091F2039091F3034817590721F43C
:101CC0001092F7031092F6032115310591F0AC0143
:101CD00097FF02C04D5F5F4F5595479555954795C6
:101CE0004217530734F097FD0196959587950E940A
:101CF0005B06A70196016091FA037091FB03809146
:101D0000FC039091FD030E9490146093FA0370937A
:101D1000FB038093FC039093FD038091FE0390915D
:101D2000FF0301979093FF038093FE038091F403D8
:101D30009091F5032091F2033091F30382179307FA
:101D400021F4880F991F0E945B062091F0033091C7
:101D5000F1038091F8039091F903AC014F5F5F4F5D
:101D60005093F9034093F803880F991F880F991F28
:101D7000820F931FFC0180829182A282B3828091A4
:101D8000F2039091F3034817590721F41092F903D5
:101D90001092F8038091F4039091F50301969093CB
:101DA000F5038093F4032091FA033091FB034091F3
:101DB000FC035091FD03C501B4010E9491142B0155
:101DC0003C014092FA035092FB036092FC03709234
:101DD000FD038091FE039091FF0301969093FF0312
:101DE0008093FE03C090EA03D090EB03E090EC03F5
:101DF000F090ED036091E8037091E903072E000C69
:101E0000880B990B0E9456139B01AC01C301B201D0
:101E10000E94FD14A70196010E94FD140E946F15F7
:101E2000072E000C880B990B0E945613A7019601F0
:101E30000E94B5136093E8027093E9028093EA026E
:101E40009093EB02B501A401CE0101960E946B07AD
:101E500041E050E068ED72E0CE0101960E943F073C
:101E60004091E8025091E9026091EA027091EB0220
:101E7000CE0101960E946B0741E050E067E272E0FC
:101E8000CE0101960E943F074D815E8169817A8172
:101E900084EF92E00E946202CE0101960E94D20677
:101EA0000E94A50309CD81E993E00E94DA068091A2
:101EB000F0039091F1030C947616EF920F931F9319
:101EC000CF93DF93E80134E047FD34E1042E000CAA
:101ED000550B57FF03C0519541955109E32E022F31
:101EE000242FAE010E947F0FCE01DF91CF911F9171
:101EF0000F91EF900895662777270C94F8108F9232
:101F00009F92AF92BF92CF92DF92EF92FF920F9388
:101F10001F93CF93DF9300D000D000D0CDB7DEB7B2
:101F20006A01F22EB02E102FFBE3AF2EA01608F49C
:101F30001BE31F5F012F27E0AE014F5F5F4F0E9441
:101F40005612BC018981982F9970913009F44EC0C6
:101F50009BE2E1FC04C09E2D9170E0FC49C05E2D27
:101F60005071E82FE87083FF55C084E0911101C0E3
:101F700083E0EF2DE81B8F1508F0E0E0D6018E2FEF
:101F800020E25523C9F1992329F0D6019C93C6017B
:101F900001966C0196012D5F3F4FE2FE33C08EE447
:101FA000D6018C9391E411969C93119712968C9381
:101FB000D9018E2F90E281112AC0E20FF32FF11D7B
:101FC00010828EEF9FEF29960FB6F894DEBF0FBEFA
:101FD000CDBFDF91CF911F910F91FF90EF90DF90D8
:101FE000CF90BF90AF909F908F9008959DE2B7CF14
:101FF00090E2B5CF2D9381508111FCCFCE0ED11C34
:10200000E0E0C1CF8EE6D6018C9391E6CCCF9D93D4
:102010008150D1CF482F447082FF3DC084E09111A0
:1020200001C083E08F1510F4EF2DE81BD6018E2F31
:1020300020E2552309F1992329F0D6019C93C6018A
:1020400001966C0196012D5F3F4FE2FE1BC089E4B3
:10205000D6018C938EE411968C93119786E4129698
:102060008C93D9018E2F90E2882309F4A6CF9D93FB
:102070008150FACF2D9381508111FCCFCE0ED11C0F
:10208000E0E0D9CF89E6D6018C938EE611968C9349
:10209000119786E6E4CF9B0177FF02C030E020E095
:1020A000A1E0B0E0911102C0B0E0A0E0F9013196EA
:1020B000AE0FBF1F8B2C912CBB2009F461C05401C3
:1020C000EFEFAE1ABE0AAA0DBB1DFA161B0619F0D9
:1020D00014F04F2D4A1B511188C0E3FC59C0760102
:1020E000A42FB0E2A1114FC0C40ED11C992309F452
:1020F0005BC040E0D6011196F60190836D01552337
:1021000009F448C0012F060F9A81582F507184FF9F
:1021100003C0913309F4015010160CF047C0093088
:1021200008F008E0EEE2FE2E5B01A01AB10885017E
:102130009194819491082F3F320729F4D601FC92A3
:10214000F60131966F016217730794F102171307B6
:102150007CF5DB01A21BB30BAA24A394B12CAC0E1B
:10216000BD1EAA0DBB1D11968C9121503109D601BF
:10217000119628153905F4F0F60180836D01DBCF47
:10218000B12CA12CA0CFF701B1937F01A150AACF10
:102190009111B0CFD601942F50E302C05D939150BE
:1021A0009111FCCFC40ED11C40E0ACCF01E0BACFFE
:1021B00080E3DBCF6217730731F4963388F49533ED
:1021C00011F4552369F0F6018083FD01842F90E21C
:1021D000811108C0A40FB11D1C9290E080E0F3CEE5
:1021E00081E3F1CF91938150F3CF911183CF8ACFC7
:1021F0008F929F92AF92BF92CF92DF92EF92FF9217
:102200000F931F93CF93DF935C017B0161157105E1
:1022100019F0DB018D939C9385010F5F1F4FF50132
:10222000D0818D2F90E00E942E136C01892BB9F57F
:10223000DD32B9F50F5F1F4FD5011196DC91C1E07A
:102240005801F1E0AF1AB10843E050E064E571E0F5
:10225000C5010E943713892B69F5680182E0C80E19
:10226000D11C45E050E06FE471E0C6010E943713D5
:10227000892B21F4680197E0C90ED11CE114F10407
:1022800019F0D701CD92DC9260E070E080E89FEF1A
:10229000C111FFC060E070E080E89FE7FAC058011C
:1022A000BBCFDB3229F485010E5F1F4FF501D181D1
:1022B000C0E0C6CF43E050E06CE471E0C5010E948D
:1022C0003713892BE9F0F80110E000E020E030E05E
:1022D000A9015F01B0ED8B2E8D0E89E08815C8F144
:1022E0009C2E689491F88C2F8870C2FF16C08111C3
:1022F00002C00F5F1F4F3196D501DC91C92DE9CF88
:10230000E114F10429F00E5F1F4FF70111830083E0
:1023100060E070E080EC9FE7BCC0882311F00150C2
:102320001109A5E0B0E00E9476149B01AC01220FD8
:10233000331F441F551F280D311D411D511D2839C4
:1023400099E93907490799E15907A8F2C6609C2E17
:10235000D2CFAEEF8A1206C0C3FD3CC09C2E68945B
:1023600093F8C9CFDF7DD534A9F580818D3239F45A
:10237000C061DF011296818162E070E006C0DF017A
:102380008B32C1F3119661E070E080535D01A61AB3
:10239000B70A8A30F8F4E0E8CE16ECE0DE065CF42A
:1023A000B601660F771F660F771FC60ED71ECC0CBF
:1023B000DD1CC80ED11C5D01FFEFAF1ABF0A8C9166
:1023C00080538A30A8F1C4FF03C0D194C194D108CE
:1023D0000C0D1D1DC1FF09C0E114F10431F081E0B5
:1023E000A81AB108D701AD92BC92CA01B9010E94E6
:1023F0005413C370C33009F490584B015C0120E0C2
:1024000030E0A9010E944F13882309F440C0C3E8BB
:10241000D1E017FF05C0119501951109CBE6D1E078
:102420006E01B8E1CB1AD10880E2E82EF12C0FC082
:10243000D501B1CFFE0125913591459154910E19E9
:102440001F09C501B4010E94B5134B015C01D50100
:10245000C4010E151F0574F72497F594E794CC1664
:10246000DD06A9F78A2F880F8B2F881F8F3F49F031
:1024700020E030E0A901C501B4010E944F13811191
:1024800006C082E290E09093090480930804C5019D
:10249000B401DF91CF911F910F91FF90EF90DF90EA
:1024A000CF90BF90AF909F908F900895283008F004
:1024B00027E03327DA01990F311D87FD91600096DF
:1024C0006105710539F432602E5F3D9330E32A9542
:1024D000E1F708959F3F30F080387105610509F0FC
:1024E0003C5F3C5F3D93913008F08068911DDF9325
:1024F000CF931F930F93FF92EF92192F987F96958A
:10250000E92F96959695E90FFF27EF51FE4F9927F2
:102510003327EE24FF24A701E701059008940794D0
:1025200028F4360FE71EF81E491F511D660F771F4E
:10253000881F991F0694A1F70590079428F4E70EC9
:10254000F81E491F561FC11D770F881F991F661F50
:102550000694A1F70590079428F4F80E491F561F1A
:10256000C71FD11D880F991F661F771F0694A1F7FB
:102570000590079420F4490F561FC71FD81F990FC5
:10258000661F771F881F0694A9F78491109517700E
:1025900041F0D695C79557954795F794E7941A95C6
:1025A000C1F7E7E8F1E068941590159135916591D0
:1025B000959105907FE27395E118F10A430B560B54
:1025C000C90BD009C0F7E10CF11E431F561FC91FEC
:1025D000D01D7EF4703311F48A95E6CFE894015053
:1025E00030F0080F0AF40027021708F4202F239573
:1025F000022F7A3328F079E37D932A95E9F710C00A
:102600007D932A9589F60694979567953795179542
:102610001794E118F10A430B560BC90BD00998F037
:1026200023957E9173957A3308F070E37C932013A1
:10263000B8F77E9170617D9330F0839571E37D935F
:1026400070E32A95E1F71124EF90FF900F911F910D
:10265000CF91DF91992787FD9095089591110C9462
:102660002214803219F089508550C8F70895FB0173
:10267000DC014150504088F08D9181341CF08B3545
:102680000CF4805E659161341CF06B350CF4605E77
:10269000861B611171F3990B0895881BFCCF0E9472
:1026A000911308F481E00895E89409C097FB3EF483
:1026B00090958095709561957F4F8F4F9F4F99238F
:1026C000A9F0F92F96E9BB279395F695879577950D
:1026D0006795B795F111F8CFFAF4BB0F11F460FFCD
:1026E0001BC06F5F7F4F8F4F9F4F16C0882311F025
:1026F00096E911C0772321F09EE8872F762F05C039
:10270000662371F096E8862F70E060E02AF09A95D3
:10271000660F771F881FDAF7880F9695879597F9C8
:102720000895990F0008550FAA0BE0E8FEEF161662
:102730001706E807F907C0F012161306E407F507B5
:1027400098F0621B730B840B950B39F40A2661F029
:10275000232B242B252B21F408950A2609F4A140CC
:10276000A6958FEF811D811D08950E94C8130C94BA
:102770003C140E942E1438F00E94351420F095234A
:1027800011F00C9425140C942B1411240C94701437
:102790000E944D1470F3959FC1F3950F50E0551FA3
:1027A000629FF001729FBB27F00DB11D639FAA27A6
:1027B000F00DB11DAA1F649F6627B00DA11D661FF5
:1027C000829F2227B00DA11D621F739FB00DA11D16
:1027D000621F839FA00D611D221F749F3327A00DD0
:1027E000611D231F849F600D211D822F762F6A2F6C
:1027F00011249F5750409AF0F1F088234AF0EE0FD1
:10280000FF1FBB1F661F771F881F91505040A9F7FD
:102810009E3F510580F00C9425140C9470145F3F7A
:10282000E4F3983ED4F3869577956795B795F79539
:10283000E7959F5FC1F7FE2B880F911D96958795B1
:1028400097F9089599278827089597F99F6780E851
:1028500070E060E008959FEF80EC089500240A94F2
:102860001616170618060906089500240A9412166B
:102870001306140605060895092E0394000C11F49E
:10288000882352F0BB0F40F4BF2B11F460FF04C04B
:102890006F5F7F4F8F4F9F4F089557FD9058440FA4
:1028A000551F59F05F3F71F04795880F97FB991FAF
:1028B00061F09F3F79F0879508951216130614066C
:1028C000551FF2CF4695F1DF08C0161617061806F9
:1028D000991FF1CF86957105610508940895E894D4
:1028E000BB2766277727CB0197F908950E948114AB
:1028F000A59F900DB49F900DA49F800D911D112454
:102900000895A29FB001B39FC001A39F700D811DC8
:102910001124911DB29F700D811D1124911D0895E8
:102920005058BB27AA270E94A8140C943C140E945C
:102930002E1438F00E94351420F039F49F3F19F41A
:1029400026F40C942B140EF4E095E7FB0C9425145C
:10295000E92F0E944D1458F3BA17620773078407D2
:10296000950720F079F4A6F50C946F140EF4E09519
:102970000B2EBA2FA02D0B01B90190010C01CA0139
:10298000A0011124FF27591B99F0593F50F4503EE4
:1029900068F11A16F040A22F232F342F4427585FD6
:1029A000F3CF469537952795A795F0405395C9F7EE
:1029B0007EF41F16BA0B620B730B840BBAF09150A6
:1029C000A1F0FF0FBB1F661F771F881FC2F70EC045
:1029D000BA0F621F731F841F48F487957795679518
:1029E000B795F7959E3F08F0B0CF9395880F08F004
:1029F0009927EE0F9795879508950E9411150C94CD
:102A00003C140E94351458F00E942E1440F029F412
:102A10005F3F29F00C94251451110C9470140C9400
:102A20002B140E944D1468F39923B1F3552391F3AD
:102A3000951B550BBB27AA2762177307840738F02D
:102A40009F5F5F4F220F331F441FAA1FA9F335D08A
:102A50000E2E3AF0E0E832D091505040E695001C3E
:102A6000CAF72BD0FE2F29D0660F771F881FBB1FF8
:102A7000261737074807AB07B0E809F0BB0B802DD6
:102A8000BF01FF2793585F4F3AF09E3F510578F002
:102A90000C9425140C9470145F3FE4F3983ED4F327
:102AA000869577956795B795F7959F5FC9F7880FD6
:102AB000911D9695879597F90895E1E0660F771F28
:102AC000881FBB1F621773078407BA0720F0621BB9
:102AD000730B840BBA0BEE1F88F7E09508950E94E4
:102AE00076156894B1110C94701408950E945514D1
:102AF00088F09F5798F0B92F9927B751B0F0E1F0BF
:102B0000660F771F881F991F1AF0BA95C9F714C06E
:102B1000B13091F00E946F14B1E008950C946F14DD
:102B2000672F782F8827B85F39F0B93FCCF38695A7
:102B300077956795B395D9F73EF490958095709504
:102B400061957F4F8F4F9F4F08950E94911308F416
:102B50008FEF089597FB072E16F4009407D077FDAA
:102B600009D00E94C61507FC05D03EF490958195CA
:102B70009F4F0895709561957F4F0895EE0FFF1F49
:102B8000881F8BBF0790F691E02D1994AA1BBB1BE1
:102B900051E107C0AA1FBB1FA617B70710F0A61B5D
:102BA000B70B881F991F5A95A9F780959095BC017E
:102BB000CD0108950F931F93CF93DF93823091053A
:102BC00010F482E090E0E0910C04F0910D0430E00C
:102BD00020E0B0E0A0E0309799F42115310509F428
:102BE0004AC0281B390B24303105D8F58A819B81D6
:102BF0006115710589F1FB0193838283FE0111C088
:102C0000408151810281138148175907E0F048172C
:102C1000590799F4109761F012960C931297139636
:102C20001C933296CF01DF91CF911F910F910895A0
:102C300000930C0410930D04F4CF2115310551F0CD
:102C40004217530738F0A901DB019A01BD01DF01EA
:102C5000F801C1CFEF01F9CF90930D0480930C04DC
:102C6000CDCFFE01E20FF31F8193919322503109E2
:102C700039832883D7CF20910A0430910B04232B6A
:102C800041F4209110023091110230930B042093F3
:102C90000A0420910E0230910F022115310541F4F2
:102CA0002DB73EB74091120250911302241B350BF1
:102CB000E0910A04F0910B04E217F307A0F42E1B35
:102CC0003F0B2817390778F0AC014E5F5F4F241790
:102CD000350748F04E0F5F1F50930B0440930A04D2
:102CE000819391939FCFF0E0E0E09CCFCF93DF936F
:102CF0000097E9F0FC01329713821282A0910C0434
:102D0000B0910D04ED0130E020E01097A1F4208196
:102D10003181820F931F20910A0430910B042817F0
:102D2000390709F061C0F0930B04E0930A04DF91C6
:102D3000CF910895EA01CE17DF07E8F54A815B815C
:102D40009E0141155105B1F7E901FB83EA834991E1
:102D50005991C40FD51FEC17FD0761F48081918153
:102D60000296840F951FE90199838883828193815C
:102D70009B838A83F0E0E0E012968D919C911397FB
:102D80000097B9F52D913C911197CD010296820FD4
:102D9000931F20910A0430910B042817390739F644
:102DA000309751F510920D0410920C04B0930B045F
:102DB000A0930A04BCCFD383C28340815181840F86
:102DC000951FC817D90761F44E5F5F4F88819981BD
:102DD000480F591F518340838A819B81938382834B
:102DE0002115310509F0B0CFF0930D04E0930C04E8
:102DF0009ECFFD01DC01C0CF13821282D7CF4F924C
:102E00005F926F927F928F929F92AF92BF92CF927A
:102E1000DF92EF92FF920F931F93CF93DF938C017A
:102E2000009799F4CB01DF91CF911F910F91FF9003
:102E3000EF90DF90CF90BF90AF909F908F907F905A
:102E40006F905F904F900C94DA15FC01E60FF71F1E
:102E50009C0122503109E217F30708F4AEC0D901F2
:102E6000CD91DC911197C617D70720F1C530D10558
:102E700078F0CE0104978617970750F0C61BD70B42
:102E80002297C193D1936D937C93CF010E947616C4
:102E9000C801DF91CF911F910F91FF90EF90DF90CC
:102EA000CF90BF90AF909F908F907F906F905F90EA
:102EB0004F9008955B01AC1ABD0A4C018C0E9D1E0B
:102EC000A0910C04B0910D04512C412CF12CE12C5B
:102ED000109731F580910A0490910B04881599059B
:102EE00009F05CC04616570608F058C080910E02E3
:102EF00090910F02009741F48DB79EB74091120256
:102F000050911302841B950BE817F90708F055C080
:102F1000F0930B04E0930A04F90171836083B8CF46
:102F20008D919C91119712966C90129713967C90AC
:102F30001397A815B90559F56C0142E0C40ED11CD0
:102F4000CA14DB0420F1AC014A195B09DA011296BC
:102F5000159780F06282738251834083D9016D930B
:102F60007C93E114F10471F0D7011396FC93EE9376
:102F700012978ECF22968C0F9D1FF901918380832B
:102F8000F301EFCFF0930D04E0930C0481CF4816CA
:102F9000590608F42C017D01D3019ACFCB010E9480
:102FA000DA157C01009749F0AE01B8010E94E017E4
:102FB000C8010E94761687016BCF10E000E068CF51
:102FC000FB01DC0102C001900D9241505040D8F746
:102FD0000895FB01DC018D91019080190110D9F356
:102FE000990B0895FB01DC0101900D920020E1F79F
:102FF000089511E0C2EDD1E000E006C0802FFE018F
:103000000E94BE152196011DC33DD10780E008072F
:10301000A9F7F894FFCF0300000000032000000090
:103020003775D54100000E04800000000000380311
:1030300062028F02850300039E02F2020D0A005114
:10304000554555453A206572726F7220647565204A
:10305000746F20756E646573697261626C6520734C
:10306000697A6520666F7220717565756520736970
:103070007A652E0051554555453A20696E7375663F
:1030800066696369656E74206D656D6F7279207411
:103090006F20696E697469616C697A652074656D09
:1030A000706F726172792071756575652E0054417B
:1030B00052410043414C004D00555000515545557B
:1030C000453A2063616E277420706F7020697465C3
:1030D0006D2066726F6D2071756575653A2071752A
:1030E00065756520697320656D7074792E002C00FC
:020000040003F7
:10E000000D9489F10D94B2F10D94B2F10D94B2F129
:10E010000D94B2F10D94B2F10D94B2F10D94B2F1F0
:10E020000D94B2F10D94B2F10D94B2F10D94B2F1E0
:10E030000D94B2F10D94B2F10D94B2F10D94B2F1D0
:10E040000D94B2F10D94B2F10D94B2F10D94B2F1C0
:10E050000D94B2F10D94B2F10D94B2F10D94B2F1B0
:10E060000D94B2F10D94B2F10D94B2F10D94B2F1A0
:10E070000D94B2F10D94B2F10D94B2F10D94B2F190
:10E080000D94B2F10D94B2F10D94B2F10D94B2F180
:10E090000D94B2F10D94B2F10D94B2F10D94B2F170
:10E0A0000D94B2F10D94B2F10D94B2F10D94B2F160
:10E0B0000D94B2F10D94B2F10D94B2F10D94B2F150
:10E0C0000D94B2F10D94B2F10D94B2F10D94B2F140
:10E0D0000D94B2F10D94B2F10D94B2F10D94B2F130
:10E0E0000D94B2F141546D656761323536300041AF
:10E0F000726475696E6F206578706C6F72657220DE
:10E1000073746B3530305632206279204D4C530099
:10E11000426F6F746C6F616465723E004875683F52
:10E1200000436F6D70696C6564206F6E203D200048
:10E130004350552054797065202020203D20005FF9
:10E140005F4156525F415243485F5F3D2000415658
:10E1500052204C696243205665723D20004743437C
:10E160002056657273696F6E203D20004350552024
:10E1700049442020202020203D20004C6F7720663D
:10E18000757365202020203D20004869676820665F
:10E190007573652020203D200045787420667573D6
:10E1A00065202020203D20004C6F636B2066757336
:10E1B000652020203D20004D617220203720323024
:10E1C000313300312E362E3800342E332E350056A2
:10E1D00023202020414444522020206F7020636F70
:10E1E00064652020202020696E73747275637469E1
:10E1F0006F6E2061646472202020496E74657272B3
:10E20000757074006E6F20766563746F7200726A49
:10E210006D702020006A6D70200057686174207056
:10E220006F72743A00506F7274206E6F7420737541
:10E2300070706F72746564004D7573742062652030
:10E2400061206C6574746572002000577269747483
:10E25000696E672045450052656164696E672045B7
:10E26000450045452065727220636E743D00504F35
:10E27000525400303D5A65726F2061646472003FF1
:10E280003D43505520737461747300403D454550C3
:10E29000524F4D207465737400423D426C696E6B41
:10E2A000204C454400453D44756D70204545505215
:10E2B0004F4D00463D44756D7020464C415348001B
:10E2C000483D48656C70004C3D4C69737420492F83
:10E2D0004F20506F72747300513D51756974005234
:10E2E0003D44756D702052414D00563D73686F7707
:10E2F00020696E7465727275707420566563746FF0
:10E30000727300593D506F727420626C696E6B00BD
:10E310002A0011241FBECFEFD1E2DEBFCDBF01E046
:10E320000CBF12E0A0E0B2E0EEE1FDEF03E00BBFB6
:10E3300002C007900D92A030B107D9F712E0A0E01B
:10E34000B2E001C01D92AE30B107E1F70F9460F367
:10E350000D948DFE01E20EBF0FEF0DBF11241FBE05
:10E360000D9460F30D9400F020E030E040ED57E0B4
:10E3700005C0FA013197F1F72F5F3F4F2817390792
:10E38000C0F308959C01260F311DC901A0E0B0E043
:10E390002F5F3F4FABBFFC018791882361F08093D3
:10E3A000C6008091C00086FFFCCF8091C0008064D1
:10E3B0008093C000EACF08958DE08093C6008091DD
:10E3C000C00086FFFCCF8091C00080648093C000B5
:10E3D0008AE08093C6008091C00086FFFCCF8091C8
:10E3E000C00080648093C00008950F94C2F10F9420
:10E3F000DCF10895FC019081992359F09093C600B7
:10E400008091C00086FFFCCF8091C0008064809323
:10E41000C0003196992379F70895282F982F929567
:10E420009F70892F805D8A3308F0895F8093C600D2
:10E430008091C00086FFFCCF8091C00080648093F3
:10E44000C000822F8F70982F905D9A3308F0995FEB
:10E450009093C6008091C00086FFFCCF8091C000E1
:10E4600080648093C00008959C01FB01853691056E
:10E470001CF46330710594F0C90164E670E00F94F8
:10E480002EFE605D7F4F6093C6008091C00086FFC6
:10E49000FCCF8091C00080648093C0002B30310598
:10E4A00014F43297B4F0C90164E670E00F942EFEC4
:10E4B0006AE070E00F942EFE605D7F4F6093C600AF
:10E4C0008091C00086FFFCCF8091C0008064809363
:10E4D000C000C9016AE070E00F942EFEC0968093E0
:10E4E000C6008091C00086FFFCCF8091C000806490
:10E4F0008093C00008951F93182F8EE692EE60E07F
:10E500000F94C2F11093C6008091C00086FFFCCF2B
:10E510008091C00080648093C0000F94DCF11F9153
:10E5200008952F923F924F925F926F927F928F92B7
:10E530009F92AF92BF92CF92DF92EF92FF920F9392
:10E540001F93DF93CF93CDB7DEB762970FB6F894E2
:10E55000DEBF0FBECDBF382E622ECA01DB015C01CB
:10E560006D01772420E2222E2E010894411C511CBB
:10E570008BC081E0A81680E0B80681E0C80680E084
:10E58000D80628F0C601AA27BB270F940DF2BB2797
:10E59000AD2D9C2D8B2D0F940DF28A2D0F940DF225
:10E5A0002092C6008091C00086FFFCCF8091C00001
:10E5B00080648093C0009DE29093C6008091C0006B
:10E5C00086FFFCCF8091C00080648093C0002092C1
:10E5D000C6008091C00086FFFCCF8091C00080649F
:10E5E0008093C00019828601750188249924A1E0D6
:10E5F0003A1651F03A1620F0B2E03B1661F409C029
:10E600000BBFF701779007C0C7010F9477FE782EF4
:10E6100002C0F7017080872D0F940DF22092C60082
:10E620008091C00086FFFCCF8091C0008064809301
:10E63000C000872D8052F401EF70F0708F3520F408
:10E64000E40DF51D708204C0E40DF51D8EE280839B
:10E650000894E11CF11C011D111D0894811C911CE2
:10E6600090E18916910409F0C2CF80E190E0A0E02A
:10E67000B0E0A80EB91ECA1EDB1E198AC2010F9493
:10E68000FAF10F94DCF16A94662009F072CF629679
:10E690000FB6F894DEBF0FBECDBFCF91DF911F91B3
:10E6A0000F91FF90EF90DF90CF90BF90AF909F9031
:10E6B0008F907F906F905F904F903F902F90089534
:10E6C0002F923F924F925F926F927F928F929F9282
:10E6D000AF92BF92CF92DF92EF92FF920F931F9370
:10E6E000DF93CF93CDB7DEB7CD53D1400FB6F894BB
:10E6F000DEBF0FBECDBF01E20EBF0FEF0DBF94B75F
:10E70000F894A89514BE80916000886180936000A1
:10E7100010926000789493FF05C0E0910002F091A0
:10E7200001021995279A2F9A8091C00082608093E8
:10E73000C00080E18093C40088E18093C1000000A4
:10E74000EE24FF24870144E0A42EB12CCC24DD2448
:10E7500024C0C5010197F1F70894E11CF11C011DCB
:10E76000111D21E2E2162EE4F20620E0020720E06D
:10E77000120718F031E0C32ED12CC801B70127ECE5
:10E780003BE140E050E00F9441FE611571058105C9
:10E79000910519F485B1805885B98091C00087FD35
:10E7A00003C0C114D104A9F2A6014F5F5F4FC25E3E
:10E7B000DE4F59834883CE51D140C25EDE4F8881FF
:10E7C0009981CE51D140019711F00D9410FEC05D9A
:10E7D000DE4F19821882C053D14060E0C15DDE4F28
:10E7E0001882CF52D14088249924C35DDE4F19820C
:10E7F0001882CD52D140C05EDE4F188219821A8233
:10E800001B82C052D140CE5CDE4F188219821A8220
:10E810001B82C253D140EE24FF2487010BBFF701B6
:10E8200007911691C45CDE4F19830883CC53D14005
:10E830000D940BFEC25EDE4F28813981CE51D1404E
:10E840002130310509F52091C600C25EDE4F1982E4
:10E850001882CE51D14022C02F5F3F4F4F4F5F4FA4
:10E86000213082E138078AE7480780E0580780F0C6
:10E87000C45CDE4FE881F981CC53D140EF5FFF4F9C
:10E8800019F0EE27FF27099420E030E040E050E047
:10E890008091C00087FFE0CF2091C600C35DDE4FAE
:10E8A00048815981CD52D1404F5F5F4FC35DDE4FEC
:10E8B00059834883CD52D140213209F063C64A3092
:10E8C000510508F05FC60894811C911C53E0851621
:10E8D000910409F059C600E010E018C081E280936D
:10E8E000C6008091C00086FFFCCF8091C00080648C
:10E8F0008093C0002F5F3F4F2931310579F70F9486
:10E90000DCF10F5F1F4F0530110519F020E030E0FA
:10E91000E5CF10920A0210920B0210920C02109294
:10E920000D02109206021092070210920802109235
:10E930000902109202021092030210920402109235
:10E9400005028FEE90EE60E00F94F5F180E191EE1C
:10E9500060E00F94C2F18091C00087FFFCCF9091DE
:10E96000C600903608F09F759032B8F09093C600BC
:10E970008091C00086FFFCCF8091C00080648093AE
:10E98000C000A0E2A093C6008091C00086FFFCCF2B
:10E990008091C00080648093C000983409F4D7C18E
:10E9A0009934B8F4923409F459C1933458F490333B
:10E9B00019F1903308F4E3C59F33A1F1903409F0C5
:10E9C000DEC5BDC0953409F470C1963409F0D7C5D1
:10E9D00098C1923509F42BC2933538F49C3409F46C
:10E9E000F5C1913509F0CBC518C2963509F445C279
:10E9F000993509F0C4C567C483E792EE62E00F94CD
:10EA0000F5F110920602109207021092080210927D
:10EA1000090210920A0210920B0210920C0210923C
:10EA20000D0213C18FE792EE62E00F94F5F18FEEC5
:10EA300090EE60E00F94F5F181E291EE60E00F94CA
:10EA4000C2F187EB91EE60E00F94F5F180E391EE77
:10EA500060E00F94C2F184EE90EE60E00F94F5F167
:10EA60008FE391EE60E00F94C2F186E090E061E008
:10EA700070E00F9434F20F94DCF18DE591EE60E0DC
:10EA80000F94C2F189EC91EE60E00F94F5F18EE401
:10EA900091EE60E00F94C2F183EC91EE60E00F9490
:10EAA000F5F18CE691EE60E00F94C2F18EE10F94E7
:10EAB0000DF288E90F940DF281E00F940DF20F949E
:10EAC000DCF18BE791EE60E00F94C2F119E0E0E039
:10EAD000F0E010935700E4918E2F0F940DF20F94F5
:10EAE000DCF18AE891EE60E00F94C2F1E3E0F0E03F
:10EAF00010935700E4918E2F0F940DF20F94DCF1D8
:10EB000089E991EE60E00F94C2F1E2E0F0E0109349
:10EB10005700E4918E2F0F940DF20F94DCF188EAE8
:10EB200091EE60E00F94C2F1E1E0F0E01093570045
:10EB30001491812F0F940DF20F94DCF107CF8BE825
:10EB400092EE62E00F94F5F18BE492EE60E00F94A8
:10EB5000F5F10F94DCF100E010E019C0C8016F2D51
:10EB60000F947FFEFF2031F489E492EE60E00F9471
:10EB7000C2F10BC0F092C6008091C00086FFFCCFAE
:10EB80008091C00080648093C0000F5F1F4FC80158
:10EB900081519F41A0E0B0E0ABBFFC01F790BAE229
:10EBA000FB1621F0E2E000301E07C1F60F94DCF105
:10EBB0000F94DCF187E592EE60E00F94F5F10F948D
:10EBC000DCF1CC24DD2400E010E01EC0C8010F946D
:10EBD00077FEF82E882331F489E492EE60E00F94FA
:10EBE000C2F10BC08093C6008091C00086FFFCCFAD
:10EBF0008091C00080648093C000FE1419F00894D6
:10EC0000C11CD11C0F5F1F4FC80181519F41A0E063
:10EC1000B0E0ABBFFC01E790FAE2EF1621F022E092
:10EC20000030120799F60F94DCF10F94DCF182E6C4
:10EC300092EE60E00F94C2F1C60161E070E00F94C3
:10EC400034F20F94DCF10F94DCF110920202109276
:10EC50000302109204021092050278CE89E992EE26
:10EC600062E00F94F5F1279A2F9A16C02F9880E052
:10EC700090E0E0EDF7E03197F1F7019684369105E9
:10EC8000C1F72F9A80E090E0E0EDF7E03197F1F7DF
:10EC9000019684369105C1F78091C00087FFE6CFC9
:10ECA0008091C00087FFFCCF64C485EA92EE62E0E9
:10ECB0000F94F5F140910202509103026091040219
:10ECC0007091050281E020E10F9491F2809102029F
:10ECD00090910302A0910402B091050280509F4FD1
:10ECE000AF4FBF4F8093020290930302A0930402A0
:10ECF000B093050280509041A040B04008F426CE69
:10ED0000A4CF83EB92EE62E00F94F5F140910602FE
:10ED100050910702609108027091090280E020E1A1
:10ED20000F9491F28091060290910702A09108023F
:10ED3000B091090280509F4FAF4FBF4F80930602A2
:10ED400090930702A0930802B0930902FFCD80ECD4
:10ED500092EE62E00F94F5F183E792EE60E00F949B
:10ED6000F5F18FE792EE60E00F94F5F18BE892EE0B
:10ED700060E00F94F5F189E992EE60E00F94F5F10F
:10ED800085EA92EE60E00F94F5F183EB92EE60E09D
:10ED90000F94F5F180EC92EE60E00F94F5F187ECC2
:10EDA00092EE60E00F94F5F188ED92EE60E00F9442
:10EDB000F5F18FED92EE60E00F94F5F18AEE92EEB0
:10EDC00060E00F94F5F183E093EEBDCD87EC92EE19
:10EDD00062E00F94F5F181E40F947BF282E40F94EA
:10EDE0007BF283E40F947BF284E40F947BF285E45E
:10EDF0000F947BF286E40F947BF287E40F947BF20E
:10EE000088E40F947BF28AE40F947BF28BE40F94F6
:10EE10007BF28CE40F947BF299CD88ED92EE62E068
:10EE20000F94F5F1772473948824992409C48FED05
:10EE300092EE62E00F94F5F140910A0250910B02BC
:10EE400060910C0270910D0282E020E10F9491F22A
:10EE500080910A0290910B02A0910C02B0910D02D8
:10EE600080509F4FAF4FBF4F80930A0290930B0289
:10EE7000A0930C02B0930D0269CD8AEE92EE62E08F
:10EE80000F94F5F184EE90EE60E00F94F5F18FECC5
:10EE900091EE60E00F94F5F1662477244301CC5D98
:10EEA000DE4F19821882C452D140D401C301B695F5
:10EEB000A79597958795CA5DDE4F88839983AA8326
:10EEC000BB83C652D140CC5DDE4FA881B981C4520C
:10EED000D1401196CC5DDE4FB983A883C452D14096
:10EEE000CD0162E070E00F9434F2B0E2B093C6005E
:10EEF0008091C00086FFFCCF8091C0008064809329
:10EF0000C000EDE2E093C6008091C00086FFFCCF18
:10EF10008091C00080648093C000F0E2F093C6004E
:10EF20008091C00086FFFCCF8091C00080648093F8
:10EF3000C000CA5DDE4FE880F9800A811B81C6529D
:10EF4000D140BB27A12F902F8F2D0F940DF2CA5DBA
:10EF5000DE4F8881C652D1400F940DF2B0E2FB2EF5
:10EF6000F092C6008091C00086FFFCCF8091C00067
:10EF700080648093C0000DE30093C6008091C000C0
:10EF800086FFFCCF8091C00080648093C00010E2B7
:10EF90001093C6008091C00086FFFCCF8091C00016
:10EFA00080648093C0008BBEF3012791C65DDE4F65
:10EFB0002883CA52D140A22EBB24CC24DD2408943D
:10EFC000611C711C811C911C8BBEF3018791282E42
:10EFD0003324442455240894611C711C811C911C09
:10EFE0008BBEF3013791C55DDE4F3883CB52D140E4
:10EFF0000894611C711C811C911C8BBEF30147910C
:10F00000C45DDE4F4883CC52D140ADEFEA2EAFEF66
:10F01000FA2EAFEF0A2FAFEF1A2F6E0C7F1C801E57
:10F02000911E142D032DF22CEE24EA0CFB1C0C1D5A
:10F030001D1D0F940DF220E22093C6008091C000A8
:10F0400086FFFCCF8091C00080648093C000C65DC5
:10F05000DE4F8881CA52D1400F940DF230E23093D6
:10F06000C6008091C00086FFFCCF8091C000806404
:10F070008093C000C45DDE4F8881CC52D1400F9494
:10F080000DF240E24093C6008091C00086FFFCCFA5
:10F090008091C00080648093C000C55DDE4F888190
:10F0A000CB52D1400F940DF250E25093C6008091A4
:10F0B000C00086FFFCCF8091C00080648093C000B8
:10F0C0008FEFE8168FEFF80680E0080780E018075A
:10F0D00031F484E092EE60E00F94C2F1DFC0D80119
:10F0E000C7018070907CA070B0708050904CA040A0
:10F0F000B040D1F52FEF3FE340E050E0E222F322B1
:10F1000004231523CA5DDE4FA880B980CA80DB8046
:10F11000C652D140AE0CBF1CC01ED11EAA0CBB1CD7
:10F12000CC1CDD1C8EE092EE60E00F94C2F1BB2798
:10F13000A12F902F8F2D0F940DF28E2D0F940DF285
:10F1400030E23093C6008091C00086FFFCCF8091F2
:10F15000C00080648093C0004EE34093C60080915D
:10F16000C00086FFFCCF87C08EE09EEFA0E0B0E03D
:10F17000E822F9220A231B239CE0E91694E9F90608
:10F1800090E0090790E0190709F088C0C45DDE4FE0
:10F19000A881CC52D140EA2EFF2400E010E0102FCD
:10F1A0000F2DFE2CEE24C55DDE4FB881CB52D14031
:10F1B000EB0EF11C011D111DD601C501817090706F
:10F1C000A070B070DC0199278827E80EF91E0A1F8D
:10F1D0001B1F20EF30E040E050E0A222B322C42207
:10F1E000D52241E1AA0CBB1CCC1CDD1C4A95D1F7F1
:10F1F000EA0CFB1C0C1D1D1D81E090E0A0E0B0E0BE
:10F20000282239224A225B2235E1220C331C441C7D
:10F21000551C3A95D1F7E20CF31C041D151D57013E
:10F220006801AA0CBB1CCC1CDD1C85E192EE60E0E1
:10F230000F94C2F1C801AA27BB270F940DF2BB2778
:10F24000A12F902F8F2D0F940DF28E2D0F940DF274
:10F2500090E29093C6008091C00086FFFCCF809121
:10F26000C00080648093C000AEE3A093C60080918C
:10F27000C00086FFFCCF8091C00080648093C000F6
:10F28000C601AA27BB270F940DF2BB27AD2D9C2DDD
:10F290008B2D0F940DF28A2D0F940DF20F94DCF14B
:10F2A000CC5DDE4FE881F981C452D140F99709F471
:10F2B0004DCBF4E0EF2EF12C012D112D6E0C7F1CA7
:10F2C000801E911EF2CD83E093EE62E00F94F5F183
:10F2D0008AE192EE60E00F94C2F18091C00087FF56
:10F2E000FCCF1091C6001F751093C6008091C0001E
:10F2F00086FFFCCF8091C00080648093C0000F9493
:10F30000DCF1812F81548A3108F036C1163409F4BA
:10F3100095C0173490F4133409F44EC0143430F40B
:10F320001134F1F0123409F01DC130C0143409F465
:10F3300059C0153409F016C16BC01A3409F4C4C0A1
:10F340001B3438F4173409F48FC0183409F00AC19B
:10F35000A1C01B3409F4D2C01C3409F003C1E8C0B9
:10F360008FEF81B90DC082B1809582B980E090E0C5
:10F37000E0EDF7E03197F1F70196883C9105C1F790
:10F380008091C00087FFEFCF12B8EFC08FEF84B934
:10F390000DC085B1809585B980E090E0E0EDF7E0A3
:10F3A0003197F1F70196883C9105C1F78091C00033
:10F3B00087FFEFCF15B8D9C08FEF87B90DC088B1DF
:10F3C000809588B980E090E0E0EDF7E03197F1F7C3
:10F3D0000196883C9105C1F78091C00087FFEFCF6F
:10F3E00018B8C3C08FEF8AB90DC08BB180958BB9A7
:10F3F00080E090E0E0EDF7E03197F1F70196883C8E
:10F400009105C1F78091C00087FFEFCF1BB8ADC059
:10F410008FEF8DB90DC08EB180958EB980E090E0F0
:10F42000E0EDF7E03197F1F70196883C9105C1F7DF
:10F430008091C00087FFEFCF1EB897C08FEF80BBD1
:10F440000DC081B3809581BB80E090E0E0EDF7E0F6
:10F450003197F1F70196883C9105C1F78091C00082
:10F4600087FFEFCF11BA81C08FEF83BB0DC084B38C
:10F47000809584BB80E090E0E0EDF7E03197F1F714
:10F480000196883C9105C1F78091C00087FFEFCFBE
:10F4900014BA6BC08FEF809301010FC080910201FD
:10F4A00080958093020180E090E0E0EDF7E03197F5
:10F4B000F1F70196883C9105C1F78091C00087FF64
:10F4C000EDCF1092020151C08FEF809304010FC065
:10F4D0008091050180958093050180E090E0E0ED4A
:10F4E000F7E03197F1F70196883C9105C1F78091DB
:10F4F000C00087FFEDCF1092050137C08FEF8093DA
:10F5000007010FC08091080180958093080180E079
:10F5100090E0E0EDF7E03197F1F70196883C910536
:10F52000C1F78091C00087FFEDCF109208011DC088
:10F530008FEF80930A010FC080910B01809580931B
:10F540000B0180E090E0E0EDF7E03197F1F70196F4
:10F55000883C9105C1F78091C00087FFEDCF1092E4
:10F560000B0103C085E292EEEEC98091C00087FFD7
:10F57000FCCF8091C600EAC988E392EEE4C98CE131
:10F5800091EEE1C988249924933011F1943028F444
:10F59000913089F09230B8F408C0953061F195301F
:10F5A000F0F0963009F048C043C02B3109F042C951
:10F5B00091E06BE13FC96227C15DDE4F2883CF52E6
:10F5C000D14092E037C9B22FA0E0622793E032C960
:10F5D000822F90E0A82BB92B622794E02BC92E3004
:10F5E00009F039C3622795E0C05DDE4F19821882A9
:10F5F000C053D1401FC9E1E0F0E0EC0FFD1FC05D3A
:10F60000DE4F08811981C053D140E00FF11F2083E4
:10F610000F5F1F4FC05DDE4F19830883C053D14079
:10F6200062270A171B0709F005C9D80196E002C92D
:10F63000261709F010C303C0973009F0FBC87724E0
:10F640009981933109F412C19431C8F4963009F4C8
:10F65000D8C0973050F4923009F406C1933009F4C1
:10F660006DC0913009F059C253C0913109F477C08F
:10F67000923108F0BBC0903109F04FC2F5C098310B
:10F6800009F487C0993150F4953109F4EFC09531F0
:10F6900008F4C6C1963109F040C2C2C19A3109F4DA
:10F6A0006CC09A3108F491C09B3109F45BC09D3164
:10F6B00009F033C29D81903359F48F81882311F46E
:10F6C0009EE11CC0813011F091E018C098E916C08D
:10F6D000892F807591F0903539F4E0E0F0E089E011
:10F6E0008093570094910AC0983539F4E3E0F0E034
:10F6F00089E080935700949101C090E01A821B82A8
:10F700008D818C831D829E831F8227E030E009C299
:10F710001A8288E08B8381E48C8386E58D8382E581
:10F720008E8389E48F8383E5888780E589878FE5E9
:10F730008A8782E38B872BE030E0F3C18A818139AD
:10F7400041F0823941F0803911F48FE005C080E04A
:10F7500003C082E001C08AE01A828B8344C0772410
:10F76000739482C08D81882311F48EE12CC0813086
:10F7700011F081E028C088E926C01A82E1E0F0E0BB
:10F7800089E08093570084918B831C8224E030E0D1
:10F79000C8C18B81803589F48C81883039F4E2E0EE
:10F7A000F0E089E08093570084910DC0E0E0F0E044
:10F7B00089E080935700849106C0E3E0F0E089E09F
:10F7C0008093570084911A82DFCF8D81836C99E0FA
:10F7D000E1E0F0E0082E90935700E89507B600FCB2
:10F7E000FDCF1A821B8223E030E09BC180EC8A832C
:10F7F000CE5CDE4F188219821A821B82C253D1401E
:10F800008EC18A8190E0A0E0B0E0582F44273327D2
:10F8100022278B8190E0A0E0B0E0DC0199278827C7
:10F82000282B392B4A2B5B2B8D8190E0A0E0B0E098
:10F83000282B392B4A2B5B2B8C8190E0A0E0B0E089
:10F84000BA2FA92F982F8827282B392B4A2B5B2BCF
:10F85000220F331F441F551FC05EDE4F288339839C
:10F860004A835B83C052D1401A8259C13A81C95C34
:10F87000DE4F3883C753D140CA5CDE4F1882C6536F
:10F88000D1408B81C82EDD24CA5CDE4F488159816E
:10F89000C653D140C42AD52A933109F082C0CE5C28
:10F8A000DE4F88819981AA81BB81C253D1408050AB
:10F8B000904CA340B04030F583E0CE5CDE4FE88052
:10F8C000F9800A811B81C253D140F70100935B008C
:10F8D00080935700E89507B600FCFDCFCE5CDE4F65
:10F8E000088119812A813B81C253D14000501F4FAA
:10F8F0002F4F3F4FCE5CDE4F088319832A833B8313
:10F90000C253D140C05EDE4F488159816A817B81FC
:10F91000C052D140DE011B9631E08C9111962C91A2
:10F9200011971296C75CDE4F2883C953D140C85C3B
:10F93000DE4F1882C853D14090E0C85CDE4FE881AA
:10F94000F981C853D1408E2B9F2B0C01FA01609393
:10F950005B0030935700E89511244E5F5F4F6F4F67
:10F960007F4F0EEFE02E0FEFF02ECE0CDF1CC114F8
:10F97000D10499F685E0C05EDE4F088119812A81A5
:10F980003B81C052D140F80120935B008093570027
:10F99000E89507B600FCFDCF81E180935700E8951C
:10F9A00035C0C05EDE4F88819981AA81BB81C0527B
:10F9B000D140B695A795979587957C018601ABE0D8
:10F9C000AA2EB12CAC0EBD1E0BC0D5016D915D01F0
:10F9D000C7010F947FFE0894E11CF11C01501040F8
:10F9E0000115110591F7A60160E070E0440F551F65
:10F9F000661F771FC05EDE4FE880F9800A811B8199
:10FA0000C052D1404E0D5F1D601F711F1A82C05E33
:10FA1000DE4F488359836A837B83C052D1407FC0C5
:10FA2000FA80C55CDE4FF882CB53D140C65CDE4F16
:10FA30001882CA53D1408B81C82EDD24C65CDE4FAC
:10FA400008811981CA53D140C02AD12A1A828981DA
:10FA5000BE016D5F7F4F843121F59601C05EDE4FA0
:10FA6000E880F9800A811B81C052D1400BBFF701A9
:10FA700087919691DB018C9311969C936E5F7F4FDB
:10FA8000D801C7010296A11DB11DC05EDE4F88835B
:10FA90009983AA83BB83C052D14022503040F1F6F3
:10FAA00036C0C05EDE4F288139814A815B81C052F9
:10FAB000D1400894C108D108760100E010E0089414
:10FAC000C11CD11C0894E11CF11C011D111DE20E8A
:10FAD000F31E041F151F21BDBB27A52F942F832FB5
:10FAE00082BD2F5F3F4F4F4F5F4FF89A80B5DB01CC
:10FAF0008D93BD012E153F054007510761F7C05E8C
:10FB0000DE4F288339834A835B83C052D1409601FC
:10FB10002D5F3F4FFB01108204C080EC8A8322E0FE
:10FB200030E08BE18093C6008091C00086FFFCCF5F
:10FB30008091C00080648093C000C15DDE4FF88179
:10FB4000CF52D140F093C6008091C00086FFFCCF19
:10FB50008091C00080648093C000432F3093C60022
:10FB60008091C00086FFFCCF8091C00080648093AC
:10FB7000C000922F2093C6008091C00086FFFCCF6A
:10FB80008091C00080648093C0008EE08093C600A6
:10FB90008091C00086FFFCCF8091C000806480937C
:10FBA000C00065E1C15DDE4FE880CF52D1406E25D7
:10FBB00069276427FE01319610C090819093C6009A
:10FBC0008091C00086FFFCCF31968091C000806498
:10FBD0008093C0006927215030402115310569F715
:10FBE0006093C6008091C00086FFFCCF8091C0006A
:10FBF00080648093C00085B1805885B9772081F4F6
:10FC0000C15DDE4F0881CF52D1400F5FC15DDE4F35
:10FC10000883CF52D14090E0A0E0B0E00D941AF4F8
:10FC200027982F9880E090E020ED37E0F901319798
:10FC3000F1F7019684369105C9F700008091C00064
:10FC40008D7F8093C00081E180935700E895EE2777
:10FC5000FF270994FFCF90E00D941AF497FB092E2B
:10FC600007260AD077FD04D02ED006D000201AF443
:10FC7000709561957F4F0895F6F7909581959F4F08
:10FC80000895A1E21A2EAA1BBB1BFD010DC0AA1FDD
:10FC9000BB1FEE1FFF1FA217B307E407F50720F0F5
:10FCA000A21BB30BE40BF50B661F771F881F991F70
:10FCB0001A9469F760957095809590959B01AC01B9
:10FCC000BD01CF010895AA1BBB1B51E107C0AA1FAC
:10FCD000BB1FA617B70710F0A61BB70B881F991FED
:10FCE0005A95A9F780959095BC01CD010895F99991
:10FCF000FECF92BD81BDF89A992780B50895262F31
:10FD0000F999FECF1FBA92BD81BD20BD0FB6F89400
:0EFD1000FA9AF99A0FBE01960895F894FFCF63
:00000001FF
