:100000000C94D9010C94B10C0C94860C0C945B0CE0
:100010000C94300C0C94050C0C94DA0B0C94AF0B74
:100020000C94840B0C940A020C940A020C940A029D
:100030000C940A020C940A020C940A020C940A0210
:100040000C940A020C94DF0E0C940A020C940A021F
:100050000C940A020C940A020C940A020C943A0BB7
:100060000C940A020C94040B0C94DA0A0C940A0205
:100070000C940A020C940A020C940A020C940A02D0
:100080000C940A020C940A020C940A020C940A02C0
:100090000C940A020C940A020C940A020C940A02B0
:1000A0000C940A020C940A020C94DC0C0C940A02C4
:1000B0000C940A020C940A020C940A020C940A0290
:1000C0000C940A020C940A020C940A020C940A0280
:1000D0000C940A020C940A020C940A020C940A0270
:1000E0000C940A020C94E3030C94FF030C94BC02DE
:1000F0000C9459020C945A140C94DD030C94F903DB
:100100000C9402030C94CC030C94D0030C94EB03DA
:100110000C94F1030C94D3030C94E7030C94F503B3
:100120000C94BE030C94C4030C94C8030C94EF0508
:100130000C944F030C9423020C9403040C94CA02F5
:100140000C94AC0F0C94D9030C94E6040C94140694
:100150000C94FE030C9468024E414E494E4954598A
:10016000494E46CDCCCC3D0AD7233C17B7D1387782
:10017000CC2B329595E6241FB14F0A000020410098
:1001800000C84200401C4620BCBE4CCA1B0E5AAEE2
:10019000C59D7400407A10F35A00A0724E180900F1
:1001A00010A5D4E80000E87648170000E40B5402DC
:1001B0000000CA9A3B000000E1F505000080969817
:1001C00000000040420F000000A086010000001067
:1001D0002700000000E803000000006400000000A9
:1001E000000A00000000000100000000002C76D88A
:1001F00088DC674F0823DFC1DFAE59E1B1B796E570
:10020000E3E453C63AE651997696E8E6C28426EBD3
:10021000898C9B62ED407C6FFCEFBC9C9F40F2BAE6
:10022000A56FA5F490055A2AF75C936B6CF9676D7E
:10023000C11BFCE0E40D47FEF520E6B500D0ED90D3
:100240002E0300943577050080841E080000204EA0
:100250000A000000C80C333333330F986E12831139
:1002600041EF8D2114893BE65516CFFEE6DB18D110
:10027000844B381BF77C1D901DA4BBE424203284E2
:10028000725E228100C9F124ECA1E53D2700002126
:1002900000240027002A002D003000330001010057
:1002A00000040107010A0100002200250028002B9C
:1002B000002E003100340002010000050108010B8E
:1002C00001000020002300260029002C002F00320E
:1002D00000000100000301060109010505050507ED
:1002E0000508080808020202020A0A0808040404B1
:1002F00004010101010101010103030303030303DD
:1003000003040707070C0C0C0C0C0C0C0C0202026B
:100310000206060606060606060B0B0B0B0B0B0B5E
:100320000B010210202008081020401020408002FD
:10033000010201080402010102040810204080802B
:1003400040201008040201800402018040201008AF
:100350000402010804020101020408102040800187
:100360000204081020408000000A0B02090C0D0E48
:100370000807030401000000000000000000000066
:10038000000000000000000000000000000000006D
:10039000000000121110000000000000000000002A
:1003A0000000000000000000000000000000AC0F92
:1003B0005A1411241FBECFEFD1E2DEBFCDBF00E043
:1003C0000CBF24E0A8E1B3E001C01D92AD3AB20732
:1003D000E1F713E0A0E0B2E0ECE3FAE300E00BBFEA
:1003E00002C007900D92A831B107D9F711E0C8ED0E
:1003F000D1E000E006C021970109802FFE010E9494
:10040000D11AC73DD10780E00807A9F70E949C10C8
:100410000C940C1D0C94000080917B00877F8093CE
:100420007B0080E480937C0080917A0080648093DC
:100430007A0080917A0086FDFCCF809178009091BF
:10044000790008950895AF92BF92CF92DF92EF9214
:10045000FF920F931F93CF93DF936C017B018B016E
:10046000040F151FEB015E01AE18BF08C017D107BE
:1004700059F06991D601ED91FC910190F081E02D48
:10048000C6011995892B79F7C501DF91CF911F918D
:100490000F91FF90EF90DF90CF90BF90AF900895B5
:1004A000FC01448155816081718187E693E00C9461
:1004B0002302FC01538D448D252F30E0842F90E0E2
:1004C000821B930B541710F0CF960895019708954F
:1004D000FC01918D828D981761F0A28DAE0FBF2F18
:1004E000B11D5D968C91928D9F5F9F73928F90E06E
:1004F00008958FEF9FEF08952FB7F89480916303CD
:1005000090916403A0916503B09166032FBF80931F
:100510006F0390937003A0937103B093720387E607
:1005200093E00E94680297FF26C02FB7F89480914D
:10053000630390916403A0916503B09166032FBF9C
:1005400040916F0350917003609171037091720339
:10055000841B950BA60BB70B40916B0350916C035A
:1005600060916D0370916E0384179507A607B70716
:10057000B0F28FEF9FEF0895FC01918D828D981757
:1005800031F0828DE80FF11D858D90E008958FEF99
:100590009FEF0895FC01918D228D892F90E0805C62
:1005A0009F4F821B91098F739927089587E693E0E7
:1005B0000E94CA0221E0892B09F420E0822F0895CD
:1005C000FC01A48DA80FB92FB11DA35ABF4F2C91C8
:1005D000848D90E001968F739927848FA689B789BF
:1005E0002C93A089B1898C91837080648C93938DB6
:1005F000848D981306C00288F389E02D80818F7D59
:1006000080830895EF92FF920F931F93CF93DF9310
:10061000EC0181E0888F9B8D8C8D98131AC0E8893E
:10062000F989808185FF15C09FB7F894EE89FF890D
:100630006083E889F98980818370806480839FBFAB
:1006400081E090E0DF91CF911F910F91FF90EF90AB
:100650000895F62E0B8D10E00F5F1F4F0F731127BB
:10066000E02E8C8D8E110CC00FB607FCFACFE889F6
:10067000F989808185FFF5CFCE010E94E002F1CF9C
:10068000EB8DEC0FFD2FF11DE35AFF4FF0829FB76A
:10069000F8940B8FEA89FB8980818062CFCFCF935A
:1006A000DF93EC01888D8823B9F0AA89BB89E8899A
:1006B000F9898C9185FD03C0808186FD0DC00FB640
:1006C00007FCF7CF8C9185FFF2CF808185FFEDCFBE
:1006D000CE010E94E002E9CFDF91CF91089580E042
:1006E00090E0892B29F00E94D60281110E9400001F
:1006F00080E090E0892B49F080E090E0892B29F0A0
:100700000E94000081110E94000080E090E0892B8F
:1007100049F080E090E0892B29F00E9400008111CF
:100720000E94000080E090E0892B49F080E090E09A
:10073000892B29F00E94000081110C94000008957B
:100740008150823108F05AC0E82FF0E08827E45544
:10075000FC4F8F4F0C94D11ACC03D003BE03C403BB
:10076000C803FE03D303D903DD03E303E703EB036D
:10077000F103F503FE03F903FF03030480918000F6
:100780008F77809380000895809180008F7DF9CFCE
:1007900080918000877FF5CF84B58F7784BD0895E1
:1007A00084B58F7DFBCF8091B0008F778093B000B0
:1007B00008958091B0008F7DF9CF809190008F7760
:1007C000809390000895809190008F7DF9CF809163
:1007D0009000877FF5CF8091A0008F778093A00055
:1007E00008958091A0008F7DF9CF8091A000877F30
:1007F000F5CF809120018F7780932001089580911B
:1008000020018F7DF9CF80912001877FF5CFCF9395
:10081000DF93282F30E0F901E959FC4F8491F90169
:10082000EF5DFC4FD491F901E552FD4FC491CC230B
:10083000A1F081110E94A003EC2FF0E0EE0FFF1F4A
:10084000EF53FD4FA591B491EC91ED2381E090E041
:1008500009F480E0DF91CF91089580E090E0FACF35
:100860001F93CF93DF93282F30E0F901E959FC4F14
:100870008491F901EF5DFC4FD491F901E552FD4FF0
:10088000C491CC23A9F0162F81110E94A003EC2F54
:10089000F0E0EE0FFF1FE955FD4FA591B4918FB722
:1008A000F894EC91111108C0D095DE23DC938FBF32
:1008B000DF91CF911F910895DE2BF8CFCF93DF9377
:1008C00090E0FC01EF5DFC4F249185529D4FFC01AF
:1008D00084918823D1F090E0880F991FFC01E357A1
:1008E000FD4FA591B491FC01E955FD4FC591D491FF
:1008F000623071F49FB7F8943C91822F80958323E6
:100900008C93E8812E2B28839FBFDF91CF91089590
:100910008FB7F894EC912E2B2C938FBFF6CF3FB767
:10092000F89480914D0390914E03A0914F03B091A4
:10093000500326B5A89B05C02F3F19F00196A11DB5
:10094000B11D3FBFBA2FA92F982F8827BC01CD0119
:10095000620F711D811D911D42E0660F771F881F78
:10096000991F4A95D1F708958F929F92AF92BF92A7
:10097000CF92DF92EF92FF924B015C010E948F04B5
:100980006B017C010E948F046C197D098E099F09FF
:10099000683E734081059105A8F321E0821A910811
:1009A000A108B10888EEC80E83E0D81EE11CF11C36
:1009B00081149104A104B10429F7FF90EF90DF9016
:1009C000CF90BF90AF909F908F9008950895EFE6DD
:1009D000F0E080818D7F808360E08AE00E943004B7
:1009E00060E08CE00C943004CF92DF92EF92FF92A3
:1009F0006B017C012FE632E143E85AE30E94B81A0A
:100A0000181654F02FE632E143E85AEBC701B6015D
:100A10000E94621887FF6AC020E030E0A901C70188
:100A2000B6010E94B81A20E030E048E455E41816F8
:100A30000CF054C0C701B6010E94C8189B01AC015C
:100A40000E94A4199B01AC0160E070EC8EE995E472
:100A50000E94101A20E030E04AE753E40E94C818D0
:100A60000E94821A16161706ECF520916F002D7F52
:100A700020936F00709389006093880080918800B4
:100A800090918900019790938500809384008091D4
:100A90006F00826080936F0020E030E0A901C70101
:100AA000B6010E94B81A181624F460E08BE00E9488
:100AB000300420E030E0A901C701B6010E946218AD
:100AC00087FF04C061E08BE00E94300460E08CE0AE
:100AD000FF90EF90DF90CF900C943004C701B601E7
:100AE0009058AACF80916F008D7FD4CFFF90EF9068
:100AF000DF90CF900C94E7043F924F925F926F92F9
:100B00007F928F929F92AF92BF92CF92DF92EF929D
:100B1000FF920F931F93CF93DF93D0E0C0E0812C1F
:100B2000912C5401082F082E000C110B9AE0392E3D
:100B3000C82E880FDD08EE08FF08C017D1074CF556
:100B400064E170E080E090E00E94B4040E940C0236
:100B5000389EB001399E700D1124072E000C880BB1
:100B6000990B0E9469182B013C01C701B6010E9434
:100B700069189B01AC01C301B2010E94101A9B01CC
:100B8000AC01C501B4010E94A4194B015C0121967E
:100B9000D4CFA501940160915103709152038091CB
:100BA0005303909154030E94A419609351037093CE
:100BB00052038093530390935403DF91CF911F917D
:100BC0000F91FF90EF90DF90CF90BF90AF909F90EC
:100BD0008F907F906F905F904F903F90089582E14B
:100BE0000E940704892BA1F480913C0390913D035E
:100BF000A0913E03B0913F030197A109B1098093F1
:100C00003C0390933D03A0933E03B0933F030895AC
:100C100080913C0390913D03A0913E03B0913F032E
:100C20000196A11DB11DEBCF83E10E940704892B22
:100C3000A1F480913C0390913D03A0913E03B091BB
:100C40003F030196A11DB11D80933C0390933D038A
:100C5000A0933E03B0933F03089580913C0390918D
:100C60003D03A0913E03B0913F030197A109B10953
:100C7000EBCFFB0101900020E9F73197AF01461B54
:100C8000570BDC01ED91FC910280F381E02D19946A
:100C9000EC01009739F00E9439066CE272E0CE0157
:100CA0000E9439060E94750FFC0180819181009796
:100CB00011F00C948E1460E070E0CB010895FC01FB
:100CC00024813581232B39F421E0FB0180818823A5
:100CD00049F020E007C0808191810E94FC1C21E046
:100CE000892BB9F7822F08950F931F93CF93DF932A
:100CF0008C01EB01FC01808191810097E1F068811A
:100D0000798161157105A9F0428153812C813D8162
:100D10004217530770F00E94051D8C819D81F801D8
:100D2000958384831D821C82DF91CF911F910F9147
:100D300008950E94891B88819981F801918380839D
:100D40008A819B81938382838C819D819583848317
:100D5000198218821B821A82E5CFCF93DF93EC01B0
:100D600088819981009711F00E94891B198218824D
:100D70001D821C821B821A82DF91CF910895FC0193
:100D800080819181009711F00C94891B0895EF9256
:100D9000FF920F931F93CF93DF93EC017C018FE1C0
:100DA000E80EF11C8E01055A1F4FE016F10631F0D6
:100DB00006501109C8010E94BF06F7CFCE0149961F
:100DC0000E94BF06CE0106960E94BF06CE01DF91AB
:100DD000CF911F910F91FF90EF900C94BF060F934E
:100DE0001F93CF93DF93EC0188819981009759F08D
:100DF0002A813B812617370730F081E0DF91CF91C0
:100E00001F910F9108958B016F5F7F4F0E94121CFD
:100E1000009759F0998388831B830A832C813D8135
:100E2000232B59F7FC011082E8CF80E0E7CFEF9247
:100E3000FF920F931F93CF93DF936115710541F4D8
:100E400080E0DF91CF911F910F91FF90EF90089577
:100E500041155105B1F07B01EC010C811D81040F9E
:100E6000151FB8010E94EF06882351F328813981AC
:100E70008C819D81B701820F931F0E94051D1D83E8
:100E80000C8381E0DECFCF93DF931F921F92CDB70B
:100E9000DEB769831A8241E050E0BE016F5F7F4F89
:100EA0000E9417070F900F90DF91CF910895FB01DB
:100EB00001900020E9F73197AF01461B570B0C94C6
:100EC0001707FB0144815581608171810C941707DC
:100ED000EF92FF920F931F93CF93DF93EC017B016F
:100EE0008A01BA010E94EF0681110BC0CE010E9457
:100EF000AD06CE01DF91CF911F910F91FF90EF9042
:100F000008951D830C83B701888199810E94051D76
:100F1000F0CFCF93DF93EC01FB018617970749F0E1
:100F2000608171816115710541F0448155810E9494
:100F30006807CE01DF91CF9108950E94AD06F9CFE9
:100F4000FC011182108213821282158214820C9489
:100F50008907FC0111821082138212821582148289
:100F6000FB0101900020E9F73197AF01461B570BB9
:100F70000C946807DF92EF92FF920F931F93CF9329
:100F8000DF938C017B01D42E6EE272E00E94A907F0
:100F9000D0E0C0E0F70184819581C817D90788F4B3
:100FA00080819181009759F08C0F9D1FFC01608119
:100FB000D61619F0C8010E9443072196EBCF60E0D6
:100FC000F9CFC801DF91CF911F910F91FF90EF9062
:100FD000DF9008958F929F92AF92BF92CF92DF924F
:100FE000EF92FF920F931F93CF93DF93CDB7DEB7AE
:100FF0002C970FB6F894DEBF0FBECDBF7C01BC01AD
:10100000CE0107960E94A0074BE5BE01695F7F4FA6
:10101000CE0101960E94BA07BE016F5F7F4FC701E4
:101020000E947406CE0101960E94BF06CE0107966B
:101030000E94BF06B701CE0107960E94A0074DE5AA
:10104000BE01695F7F4FCE0101960E94BA07BE01C3
:101050006F5F7F4FC7010E947406CE0101960E9408
:10106000BF06CE0107960E94BF0690906404F70168
:10107000A480B5806EE272E0CE0101960E94A907BD
:10108000D12CC12C10E000E086E0882ECA14DB04CD
:10109000A4F5F70184819581C816D90690F4808162
:1010A0009181009771F08C0D9D1DFC016081961659
:1010B00051F0CE0101960E944307FFEFCF1ADF0ADD
:1010C000E5CF60E0F4CF0A301105BCF7809EC00187
:1010D000819E900D1124BE016F5F7F4F85599B4FFC
:1010E0000E9489070F5F1F4F50E040E06EE272E000
:1010F000CE0101960E946807E0CF6EE272E0CE0159
:1011000001960E945F06811112C00A3011057CF41D
:1011100026E0209FC001219F900D1124BE016F5F2A
:101120007F4F85599B4F0E9489070F5F1F4FCE014C
:1011300001960E94BF061093610400936004023080
:10114000110509F448C0B4F401301105E9F12C96F9
:101150000FB6F894DEBF0FBECDBFDF91CF911F91C8
:101160000F91FF90EF90DF90CF90BF90AF909F9046
:101170008F9008950330110509F440C00430110523
:1011800031F76BE674E08CE494E00E9489076FE22B
:1011900072E08CE494E00E945F068823C1F261E76C
:1011A00074E082E594E00E94890787E794E00E945A
:1011B0005406609358047093590480935A04909392
:1011C0005B048DE794E051C06BE674E08CE494E03E
:1011D0000E948907BCCF6BE674E08CE494E00E9427
:1011E000890781E794E00E94540660935804709345
:1011F000590480935A0490935B04A9CF6BE674E082
:101200008CE494E00E9489076FE272E08CE494E041
:101210000E945F06882391F061E774E082E594E024
:101220000E94890787E794E00E945406609358045F
:101230007093590480935A0490935B0461E372E0C5
:101240008CE494E00E945F06882309F480CF81E754
:1012500094E00E945406609358047093590480935C
:101260005A0490935B0487E794E00E9454066093CD
:101270005C0470935D0480935E0490935F0467CF79
:10128000EF92FF920F931F93CF93DF93CDB7DEB70B
:10129000A1970FB6F894DEBF0FBECDBF7C01CB0186
:1012A000BA01F70111821082138212821582148210
:1012B00042E0420F8E010F5F1F4F0E947014009793
:1012C000C9F0FC0101900020E9F73197AF01481BFC
:1012D000590BBC01C7010E946807A1960FB6F8948C
:1012E000DEBF0FBECDBFDF91CF911F910F91FF9059
:1012F000EF900895C7010E94AD06EFCF8F929F92A5
:10130000AF92BF92CF92DF92EF92FF920F931F9313
:10131000CF93DF93EC018B0167E372E010161106A7
:1013200094F5C801880F991F880F991F0E94ED1A24
:101330007C01009731F18E809F805C01CA80DB8048
:1013400030E020E02815390514F588859985820F4D
:10135000931F6C817D810E94BD1AFC01EE0FFF1F5F
:10136000EE0FFF1FEC0DFD1D80819181A281B381E5
:10137000F50181939193A193B1935F012F5F3F4F4B
:10138000E1CF6CE672E0888199810E944806C6012F
:101390000E94891BFB82EA82198618868E819F81B2
:1013A0009B878A871D830C83DF91CF911F910F91BB
:1013B000FF90EF90DF90CF90BF90AF909F908F9075
:1013C00008958F929F92AF92BF92CF92DF92EF9249
:1013D000FF920F931F93CF93DF93EC014A015B01C0
:1013E0008C010A5F1F4F2E893F89888199812817B8
:1013F00039070CF450C08C859D85009731F466EA5E
:1014000072E08E819F810E944806688579854E85AD
:101410005F859A012F5F3F4F3F872E87440F551FEF
:10142000440F551F460F571FFA01C080D180E2803C
:10143000F38001979D878C876A857B852617370700
:1014400011F41F861E860097A9F09B0177FF02C04A
:101450002D5F3F4F359527953595279528173907E7
:101460004CF077FF02C06F5F7F4F75956795C8019D
:101470000E947E09A70196016A897B898C899D89D2
:101480000E94A3196A8B7B8B8C8B9D8B8E899F8985
:1014900001979F8B8E8B68817981072E000C880BBA
:1014A000990B0E9469189B01AC01C501B4010E940F
:1014B000101A6B017C016C857D858A859B85681778
:1014C000790729F4660F771FC8010E947E094885B5
:1014D0005985888999899C012F5F3F4F398B288BCB
:1014E000880F991F880F991F840F951FFC01C082D8
:1014F000D182E282F3828A859B852817390711F40D
:10150000198A188A8C859D8501969D878C876881AC
:101510007981072E000C880B990B0E9469189B019A
:10152000AC01C501B4010E94101A2A893B894C897B
:101530005D890E94A4196A8B7B8B8C8B9D8B2E8975
:101540003F892F5F3F4F3F8B2E8B8A809B80AC80E3
:10155000BD80A50194010E94101A6B017C0120E05E
:1015600030E0A9010E94B81A20E030E040E05FE3DB
:1015700087FD1BC0C701B6010E94A4190E94821AF0
:101580000E9469189B01AC01C501B4010E94C818F2
:10159000DF91CF911F910F91FF90EF90DF90CF904F
:1015A000BF90AF909F908F900895C701B6010E94A1
:1015B000A319E4CF1F920F920FB60F9211240BB60E
:1015C0000F922F933F934F935F936F937F938F93DC
:1015D0009F93AF93BF93EF93FF9387E693E00E94AF
:1015E000E002FF91EF91BF91AF919F918F917F9119
:1015F0006F915F914F913F912F910F900BBE0F9084
:101600000FBE0F901F9018951F920F920FB60F925A
:1016100011240BB60F922F938F939F93EF93FF9309
:10162000E0917703F09178038081E0917D03F09160
:101630007E0382FD1DC09081809180038F5F8F7338
:1016400020918103821741F0E0918003F0E0E95995
:10165000FC4F958F80938003FF91EF919F918F9125
:101660002F910F900BBE0F900FBE0F901F901895EB
:101670008081F2CF1F920F920FB60F9211242F93F9
:101680003F938F939F93AF93BF9380916303909108
:101690006403A0916503B091660330914C0323E08D
:1016A000230F2D3758F50196A11DB11D20934C0332
:1016B0008093630390936403A0936503B0936603E0
:1016C00080914D0390914E03A0914F03B091500330
:1016D0000196A11DB11D80934D0390934E03A093DD
:1016E0004F03B0935003BF91AF919F918F913F9162
:1016F0002F910F900FBE0F901F90189526E8230F83
:101700000296A11DB11DD2CF1F920F920FB60F925C
:1017100011240BB60F922F933F934F935F936F93C8
:101720007F938F939F93AF93BF93EF93FF93E0913A
:101730000E02F0910F021995FF91EF91BF91AF91B9
:101740009F918F917F916F915F914F913F912F91D9
:101750000F900BBE0F900FBE0F901F9018951F9209
:101760000F920FB60F9211240BB60F922F933F9347
:101770004F935F936F937F938F939F93AF93BF9399
:10178000EF93FF93E0910C02F0910D021995FF91F8
:10179000EF91BF91AF919F918F917F916F915F91E9
:1017A0004F913F912F910F900BBE0F900FBE0F9056
:1017B0001F9018951F920F920FB60F9211240BB61F
:1017C0000F922F933F934F935F936F937F938F93DA
:1017D0009F93AF93BF93EF93FF93E0910202F09139
:1017E00003021995FF91EF91BF91AF919F918F9156
:1017F0007F916F915F914F913F912F910F900BBE11
:101800000F900FBE0F901F9018951F920F920FB65A
:101810000F9211240BB60F922F933F934F935F9328
:101820006F937F938F939F93AF93BF93EF93FF93A8
:10183000E0910002F09101021995FF91EF91BF91A3
:10184000AF919F918F917F916F915F914F913F9158
:101850002F910F900BBE0F900FBE0F901F901895F9
:101860001F920F920FB60F9211240BB60F922F9367
:101870003F934F935F936F937F938F939F93AF9318
:10188000BF93EF93FF93E0910A02F0910B02199539
:10189000FF91EF91BF91AF919F918F917F916F9148
:1018A0005F914F913F912F910F900BBE0F900FBE04
:1018B0000F901F9018951F920F920FB60F92112440
:1018C0000BB60F922F933F934F935F936F937F933A
:1018D0008F939F93AF93BF93EF93FF93E091080291
:1018E000F09109021995FF91EF91BF91AF919F91EE
:1018F0008F917F916F915F914F913F912F910F90B9
:101900000BBE0F900FBE0F901F9018951F920F9255
:101910000FB60F9211240BB60F922F933F934F9354
:101920005F936F937F938F939F93AF93BF93EF9347
:10193000FF93E0910602F09107021995FF91EF9154
:10194000BF91AF919F918F917F916F915F914F91D7
:101950003F912F910F900BBE0F900FBE0F901F90D5
:1019600018951F920F920FB60F9211240BB60F927B
:101970002F933F934F935F936F937F938F939F9397
:10198000AF93BF93EF93FF93E0910402F0910502B0
:101990001995FF91EF91BF91AF919F918F917F9199
:1019A0006F915F914F913F912F910F900BBE0F90D0
:1019B0000FBE0F901F9018951F920F920FB60F92A7
:1019C00011240BB60F924F925F926F927F928F927B
:1019D0009F92AF92BF92CF92DF92EF92FF922F939E
:1019E0003F934F935F936F937F938F939F93AF93A7
:1019F000BF93EF93FF93CF93DF93CDB7DEB72C97D1
:101A0000DEBFCDBF6EE272E0CE0107960E94A9074D
:101A10000E940C022AE0289FB001299F700D11241A
:101A2000072E000C880B990B0E946918AB01BC01B2
:101A300084E394E00E94E109AB01BC018CE194E0F5
:101A40000E94E109609348037093490380934A031D
:101A500090934B032FB7F8946091630370916403E4
:101A600080916503909166032FBFC0905F03D09073
:101A70006003E0906103F09062036C197D098E09A8
:101A80009F090E94671820E030E04AE754E40E9472
:101A9000101A6B017C016DEF72E0CE0107960E9477
:101AA0005707409148035091490360914A03709150
:101AB0004B0321E0CE0101960E944009BE016F5FF9
:101AC0007F4FCE0107960E946107CE0101960E94CA
:101AD000BF0680915F0390916003A0916103B09174
:101AE0006203181619061A061B06C4F46DEE72E09E
:101AF000CE0107960E94570723E0B701A601CE0149
:101B000001960E944009BE016F5F7F4FCE0107968C
:101B10000E946107CE0101960E94BF066FEE72E03F
:101B2000CE0107960E94570761E2CE0107960E94F8
:101B3000430761E073E0CE0107960E94570760916A
:101B40003C0370913D0380913E0390913F030E94BE
:101B500069182CE53FE842EA50E40E94C81820E0EA
:101B600030E046E954E40E94101AAB01BC0121E0C8
:101B7000CE0101960E944009BE016F5F7F4FCE01EA
:101B800007960E946107CE0101960E94BF068091D0
:101B90005F0390916003A0916103B09162031816F6
:101BA00019061A061B06C4F46DEE72E0CE01079604
:101BB0000E94570723E0B701A601CE0101960E94BB
:101BC0004009BE016F5F7F4FCE0107960E946107FB
:101BD000CE0101960E94BF066FEE72E0CE0107961D
:101BE0000E94570761E2CE0107960E944307C0900A
:101BF0004803D0904903E0904A03F0904B0320E063
:101C000030E0A901C701B6010E94B81A18160CF0FD
:101C1000C3C020E030E44CE156E4C701B6010E94A5
:101C2000B81A18160CF4C2C06CE073E0CE01079627
:101C30000E94570760913C0370913D0380913E03E1
:101C400090913F030E9469182CE53FE842EA50E476
:101C50000E94C81820E030E046E954E40E94101ABF
:101C60004B015C010E948F040E94671820E030E065
:101C70004AE754E40E94101A6B017C01209144034E
:101C800030914503409146035091470340904003F3
:101C9000509041036090420370904303809244034C
:101CA00090924503A0924603B0924703C09240032E
:101CB000D0924103E0924203F0924303C501B40184
:101CC0000E94A31920E030E04AE754E40E94C818BB
:101CD0004B015C01A3019201C701B6010E94A31947
:101CE0009B01AC01C501B4010E94101AAB01BC01FB
:101CF00084E094E00E94E109AB01BC0121E0CE0147
:101D000001960E944009BE016F5F7F4FCE0107968A
:101D10000E946107CE0101960E94BF066FEE72E03D
:101D2000CE0107960E94570761E2CE0107960E94F6
:101D30004307CE0107960E945002CE0107960E94EB
:101D4000BF061092A5001092A4002C960FB6F8942E
:101D5000DEBF0FBECDBFDF91CF91FF91EF91BF915D
:101D6000AF919F918F917F916F915F914F913F9133
:101D70002F91FF90EF90DF90CF90BF90AF909F900A
:101D80008F907F906F905F904F900F900BBE0F9051
:101D90000FBE0F901F90189520E030E44CE156ECF8
:101DA000C701B6010E94621887FF3ECF0E94E70478
:101DB00065E073E087E693E00E94390635CF1F9215
:101DC0000F920FB60F9211240BB60F922F933F93E1
:101DD0004F935F936F937F938F939F93AF93BF9333
:101DE000CF93DF93EF93FF931092850010928400BE
:101DF0008AE00E94070461E068278AE00E943004BC
:101E000060913C0370913D0380913E0390913F03AC
:101E100020915E03222351F10E9469182CE53FE8CE
:101E200042EA50E40E94C81820E030E046E954E459
:101E30000E94101A9B01AC01C1E0D0E060915A03EE
:101E400070915B0380915C0390915D030E94621826
:101E500087FD02C0D0E0C0E08BE00E940704C817F5
:101E6000D90721F00E94E70410925E038091590384
:101E7000882331F120915503309156034091570347
:101E800050915803609148037091490380914A032F
:101E900090914B030E94B81A87FD12C00E94E7047C
:101EA00010923C0310923D0310923E0310923F03A8
:101EB0001092590360E173E087E693E00E943906CF
:101EC000FF91EF91DF91CF91BF91AF919F918F9152
:101ED0007F916F915F914F913F912F910F900BBE2A
:101EE0000F900FBE0F901F90189561E08DE00E943B
:101EF0005E0461E08DE00E9430046AEF70E080E0F3
:101F000090E00E94B40460E08DE00E9430046AEF2B
:101F100070E080E090E00E94B404EBCFCF93DF93B9
:101F2000EC011D821C821F821E82198618861B8668
:101F30001A861982188288E090E00E94ED1A9B832D
:101F40008A83892B11F40E94750F82E090E09D83B3
:101F50008C83DF91CF910895CF92DF92EF92FF9221
:101F6000CF93DF9310926A031092690388EE93E097
:101F7000A0E0B0E080936B0390936C03A0936D039B
:101F8000B0936E038EE192E09093680380936703B1
:101F900085EC90E0909374038093730384EC90E05D
:101FA000909376038093750380EC90E09093780390
:101FB0008093770381EC90E090937A038093790388
:101FC00082EC90E090937C0380937B0386EC90E01E
:101FD00090937E0380937D0310928003109281037F
:101FE00010928203109283036EE272E08CE494E01C
:101FF0000E94A9076EE272E082E594E00E94A907C0
:10200000109258041092590410925A0410925B04D2
:1020100010925C0410925D0410925E0410925F04B2
:10202000109261041092600482E390E09093630444
:10203000809362048BE3809364046EE272E085E631
:1020400094E00E94A907D0E0C0E06EE272E0CE0109
:1020500085599B4F0E94A9072696CC33D105A9F735
:102060008AE394E00E948E0F88E090E0909335041C
:10207000809334048AE097EDA3E2BCE380933604B6
:1020800090933704A0933804B09339041092460417
:1020900010924704109248041092490410924B0485
:1020A00010924A0482E294E00E948E0F80E190E058
:1020B00090931D0480931C048DECC82E8CECD82EBC
:1020C000ED2C8DE3F82EC0921E04D0921F04E092F6
:1020D0002004F092210410922E0410922F041092EA
:1020E00030041092310410923304109232048AE0CA
:1020F00094E00E948E0F8AE090E090930504809314
:102100000404C0920604D0920704E0920804F092FE
:1021100009041092160410921704109218041092D9
:10212000190410921B0410921A04DF91CF91FF90B2
:10213000EF90DF90CF900895CF93DF93CDB7DEB7C8
:10214000CD56D1090FB6F894DEBF0FBECDBF78943F
:1021500084B5826084BD84B5816084BD85B58260AC
:1021600085BD85B5816085BD80916E00816080935D
:102170006E001092810080918100826080938100C6
:1021800080918100816080938100809180008160D6
:10219000809380008091B10084608093B100809131
:1021A000B00081608093B000809191008260809344
:1021B00091008091910081608093910080919000C6
:1021C0008160809390008091A10082608093A10043
:1021D0008091A10081608093A1008091A000816026
:1021E0008093A000809121018260809321018091E1
:1021F0002101816080932101809120018160809381
:10220000200180917A00846080937A0080917A0026
:10221000826080937A0080917A00816080937A0056
:1022200080917A00806880937A001092C100E091DA
:102230007703F091780382E08083E0917303F0915B
:1022400074031082E0917503F091760380E180833E
:1022500010927F03E0917B03F0917C0386E0808302
:10226000E0917903F0917A03808180618083E0912D
:102270007903F0917A03808188608083E09179030B
:10228000F0917A03808180688083E0917903F091F6
:102290007A0380818F7D808361E082E30E945E0407
:1022A00061E08AE00E945E0461E08BE00E945E04CF
:1022B00061E08CE00E945E0460E08AE00E943004ED
:1022C00060E08BE00E94300460E08CE00E9430040B
:1022D00010928000809181008160809381008091C4
:1022E0008100826080938100809181008B7F809348
:1022F0008100109285001092840010928900109243
:10230000880062E086E30E945E04109251031092FE
:102310005203109253031092540384E60E947C05EA
:1023200062E082E10E945E0462E083E10E945E045A
:1023300061E082E10E94300461E083E10E943004A8
:1023400084E196E090930B0280930A0280916900E9
:102350008F73806880936900EB9A8FEE95E090937D
:10236000090280930802809169008F7C80628093CB
:102370006900EA9A1092A0001092A1008091A10039
:102380008E7F8093A1008091A1008D7F8093A1001A
:102390008091A10084608093A10080E792E09093F7
:1023A000A9008093A8001092A5001092A40080912B
:1023B000720082608093720062E086E00E945E0498
:1023C00062E087E00E945E048AE0A82EBB24B394FA
:1023D00087E693E00E94CA02892B09F462C26EE28A
:1023E00072E0CE0188599F4F0E94A9070E947C028B
:1023F00097FD0AC08132910539F0682FCE018859C6
:102400009F4F0E944307F2CFBE0168597F4FCE0114
:1024100001960E94A007CE0101960E94EA07CE0114
:1024200001960E94BF066CE474E0CE0101960E9402
:10243000A00762E574E0CE0107960E94A007809194
:10244000580490915904A0915A04B0915B048D876F
:102450009E87AF87B88B80915C0490915D04A091BA
:102460005E04B0915F04898B9A8BAB8BBC8B80919F
:102470006004909161049E8B8D8B80916204909199
:102480006304988F8F8B80916404898F65E674E074
:10249000CE014A960E94A0070FE110E0B801645BEC
:1024A0007B4F81E090E08C0F9D1F800F911F0E9459
:1024B000A0070A5F1F4F0B35110581F78D899E8993
:1024C0008230910509F49AC00CF044C0019709F4D8
:1024D0006DC0CE0101960E94C70661E2CE01885907
:1024E0009F4F0E944307CE0188599F4F0E94500280
:1024F000CE0188599F4F0E94BF0687E00E940704C3
:10250000892B69F480916F008D7F80936F0060E06C
:102510008AE00E94300461E08CE00E94300486E092
:102520000E940704892B69F480916F008D7F80934E
:102530006F0060E08AE00E94300461E08CE00E945D
:1025400030046AE070E080E090E00E94B4040E94F1
:102550006F033ECF8330910509F402C1049709F05F
:10256000B8CF6FE272E0CE0101960E945F06882329
:1025700009F4AFCFCD84DE84EF84F88865EF72E094
:10258000CE0107960E945F06882309F45AC120E015
:1025900030E0A901C701B6010E94B81A18160CF460
:1025A00062C1F7FAF094F7F8F0945DC168ED72E05B
:1025B000CE0101960E945F06882319F084E60E94EE
:1025C0007C056DED72E0CE0101960E945F068823C6
:1025D00009F47FCF2FB7F89480916303909164033F
:1025E000A0916503B09166032FBF80935F03909322
:1025F0006003A0936103B09362036BCF65EE72E05A
:10260000CE0101960E945F06882309F490C04D8494
:102610005E846F8478880FE010E0C12CD12C7601A5
:1026200064E170E080E090E00E94B4040E940C023B
:10263000A89EB001A99E700D1124072E000C880BD6
:10264000990B0E94691820E030E040E751E40E94B5
:10265000101A9B01AC01C701B6010E94A4196B01BD
:102660007C0101501109E1F6A301920150580E942A
:10267000101A2091100230911102409112025091D3
:1026800013020E94C8186B017C01C0921002D09204
:102690001102E0921202F092130284E60E947C057D
:1026A000A3019201609151037091520380915303F1
:1026B000909154030E94A4196093510370935203A4
:1026C000809353039093540369EE72E0CE018E59C8
:1026D0009F4F0E94A90727E0B701A601CE01845AA7
:1026E0009F4F0E944009BE01645A7F4FCE018E5910
:1026F0009F4F0E946107CE01845A9F4F0E94BF06E0
:102700006FEE72E0CE018E599F4F0E94570761E233
:10271000CE018E599F4F0E944307CE018E599F4F85
:102720000E945002CE018E599F4F0E94BF0661EF5A
:1027300072E0CE0101960E945F06882309F4C9CE9B
:102740008D859E85AF85B889809310029093110284
:10275000A0931202B093130282E30E947C05B9CECB
:102760006FE272E0CE0101960E945F06882389F134
:10277000CD84DE84EF84F88865EF72E0CE010796A1
:102780000E945F06882371F020E030E0A901C701B4
:10279000B6010E94B81A1816B4F0F7FAF094F7F8D8
:1027A000F09411C068EF72E0CE0107960E945F06B8
:1027B0008823E1F120E030E0A901C701B6010E94C1
:1027C000B81A181654F3C701B6010E94F404109207
:1027D0005E0361E372E0CE0101960E945F068823EA
:1027E00009F477CE89899A89AB89BC89CD84DE8446
:1027F000EF84F888B0925903809355039093560361
:10280000A0935703B093580320E030E0A901C7011B
:10281000B6010E94B81A181624F4F7FAF094F7F8E3
:10282000F094C701B6010E94F40453CE6BEF72E03E
:10283000CE0107960E945F06882349F20E94E704B2
:10284000C6CF68EF72E0CE0107960E945F0688232C
:10285000E9F020E030E0A901C701B6010E94B81AF2
:1028600018160CF49ECEC701B6010E94F404B09273
:102870005E0389899A89AB89BC8980935A039093B6
:102880005B03A0935C03B0935D0323CE6BEF72E018
:10289000CE0107960E945F06882349F30E94E70451
:1028A000E6CF80E00E940704892B09F026CE0E9423
:1028B000E70423CE80910C0490910D040E94891BA3
:1028C00080912404909125040E94891B80913C04EE
:1028D00090913D040E94891B8CE494E00C94C706FF
:1028E000EF920F931F93CF93DF93E80134E047FDFE
:1028F00034E1042E000C550B57FF03C05195419550
:102900005109E32E022F242FAE010E949214CE0112
:10291000DF91CF911F910F91EF9008956627772750
:102920000C940B168F929F92AF92BF92CF92DF9230
:10293000EF92FF920F931F93CF93DF9300D000D0BD
:1029400000D0CDB7DEB76A01F22EB02E102FFBE318
:10295000AF2EA01608F41BE31F5F012F27E0AE0186
:102960004F5F5F4F0E946917BC018981982F997052
:10297000913009F44EC09BE2E1FC04C09E2D9170A1
:10298000E0FC49C05E2D5071E82FE87083FF55C010
:1029900084E0911101C083E0EF2DE81B8F1508F052
:1029A000E0E0D6018E2F20E25523C9F1992329F0CA
:1029B000D6019C93C60101966C0196012D5F3F4F95
:1029C000E2FE33C08EE4D6018C9391E411969C9381
:1029D000119712968C93D9018E2F90E281112AC003
:1029E000E20FF32FF11D10828EEF9FEF29960FB6A5
:1029F000F894DEBF0FBECDBFDF91CF911F910F9135
:102A0000FF90EF90DF90CF90BF90AF909F908F900E
:102A100008959DE2B7CF90E2B5CF2D9381508111FB
:102A2000FCCFCE0ED11CE0E0C1CF8EE6D6018C9358
:102A300091E6CCCF9D938150D1CF482F447082FF37
:102A40003DC084E0911101C083E08F1510F4EF2D9B
:102A5000E81BD6018E2F20E2552309F1992329F096
:102A6000D6019C93C60101966C0196012D5F3F4FE4
:102A7000E2FE1BC089E4D6018C938EE411968C9300
:102A8000119786E412968C93D9018E2F90E28823B9
:102A900009F4A6CF9D938150FACF2D9381508111D7
:102AA000FCCFCE0ED11CE0E0D9CF89E6D6018C93C5
:102AB0008EE611968C93119786E6E4CF9B0177FF03
:102AC00002C030E020E0A1E0B0E0911102C0B0E02F
:102AD000A0E0F9013196AE0FBF1F8B2C912CBB20CB
:102AE00009F461C05401EFEFAE1ABE0AAA0DBB1D76
:102AF000FA161B0619F014F04F2D4A1B511188C00D
:102B0000E3FC59C07601A42FB0E2A1114FC0C40E5E
:102B1000D11C992309F45BC040E0D6011196F6015F
:102B200090836D01552309F448C0012F060F9A8147
:102B3000582F507184FF03C0913309F401501016CF
:102B40000CF047C0093008F008E0EEE2FE2E5B0111
:102B5000A01AB10885019194819491082F3F320702
:102B600029F4D601FC92F60131966F0162177307C2
:102B700094F1021713077CF5DB01A21BB30BAA2407
:102B8000A394B12CAC0EBD1EAA0DBB1D11968C9149
:102B900021503109D601119628153905F4F0F601B6
:102BA00080836D01DBCFB12CA12CA0CFF701B193B5
:102BB0007F01A150AACF9111B0CFD601942F50E33D
:102BC00002C05D9391509111FCCFC40ED11C40E026
:102BD000ACCF01E0BACF80E3DBCF6217730731F4EB
:102BE000963388F4953311F4552369F0F601808308
:102BF000FD01842F90E2811108C0A40FB11D1C9229
:102C000090E080E0F3CE81E3F1CF91938150F3CF58
:102C1000911183CF8ACF8F929F92AF92BF92CF9222
:102C2000DF92EF92FF920F931F93CF93DF935C019C
:102C30007B016115710519F0DB018D939C93850172
:102C40000F5F1F4FF501D0818D2F90E00E9441183A
:102C50006C01892BB9F5DD32B9F50F5F1F4FD50136
:102C60001196DC91C1E05801F1E0AF1AB10843E0E0
:102C700050E060E671E0C5010E944A18892B69F5B1
:102C8000680182E0C80ED11C45E050E06BE571E0C0
:102C9000C6010E944A18892B21F4680197E0C90EE9
:102CA000D11CE114F10419F0D701CD92DC9260E05F
:102CB00070E080E89FEFC111FFC060E070E080E845
:102CC0009FE7FAC05801BBCFDB3229F485010E5FC4
:102CD0001F4FF501D181C0E0C6CF43E050E068E569
:102CE00071E0C5010E944A18892BE9F0F80110E053
:102CF00000E020E030E0A9015F01B0ED8B2E8D0EE9
:102D000089E08815C8F19C2E689491F88C2F887002
:102D1000C2FF16C0811102C00F5F1F4F3196D5014F
:102D2000DC91C92DE9CFE114F10429F00E5F1F4FAA
:102D3000F7011183008360E070E080EC9FE7BCC086
:102D4000882311F001501109A5E0B0E00E94891913
:102D50009B01AC01220F331F441F551F280D311D4D
:102D6000411D511D283999E93907490799E159074A
:102D7000A8F2C6609C2ED2CFAEEF8A1206C0C3FD69
:102D80003CC09C2E689493F8C9CFDF7DD534A9F55B
:102D900080818D3239F4C061DF011296818162E059
:102DA00070E006C0DF018B32C1F3119661E070E084
:102DB00080535D01A61AB70A8A30F8F4E0E8CE160F
:102DC000ECE0DE065CF4B601660F771F660F771F36
:102DD000C60ED71ECC0CDD1CC80ED11C5D01FFEF4A
:102DE000AF1ABF0A8C9180538A30A8F1C4FF03C088
:102DF000D194C194D1080C0D1D1DC1FF09C0E1146F
:102E0000F10431F081E0A81AB108D701AD92BC926B
:102E1000CA01B9010E946718C370C33009F4905801
:102E20004B015C0120E030E0A9010E946218882378
:102E300009F440C0CFE8D1E017FF05C01195019516
:102E40001109C7E7D1E06E01B8E1CB1AD10880E2E1
:102E5000E82EF12C0FC0D501B1CFFE01259135919F
:102E6000459154910E191F09C501B4010E94C8185B
:102E70004B015C01D501C4010E151F0574F72497A1
:102E8000F594E794CC16DD06A9F78A2F880F8B2FCF
:102E9000881F8F3F49F020E030E0A901C501B4014F
:102EA0000E946218811106C082E290E09093A8040B
:102EB0008093A704C501B401DF91CF911F910F91B9
:102EC000FF90EF90DF90CF90BF90AF909F908F904A
:102ED0000895283008F027E03327DA01990F311DD3
:102EE00087FD916000966105710539F432602E5FAF
:102EF0003D9330E32A95E1F708959F3F30F0803805
:102F00007105610509F03C5F3C5F3D93913008F02D
:102F10008068911DDF93CF931F930F93FF92EF92E1
:102F2000192F987F9695E92F96959695E90FFF278B
:102F3000E351FE4F99273327EE24FF24A701E70131
:102F400005900894079428F4360FE71EF81E491FD1
:102F5000511D660F771F881F991F0694A1F70590D2
:102F6000079428F4E70EF81E491F561FC11D770F5E
:102F7000881F991F661F0694A1F70590079428F4EF
:102F8000F80E491F561FC71FD11D880F991F661FB6
:102F9000771F0694A1F70590079420F4490F561F58
:102FA000C71FD81F990F661F771F881F0694A9F7A0
:102FB00084911095177041F0D695C7955795479510
:102FC000F794E7941A95C1F7E3E9F1E06894159056
:102FD000159135916591959105907FE27395E11872
:102FE000F10A430B560BC90BD009C0F7E10CF11ED7
:102FF000431F561FC91FD01D7EF4703311F48A95EC
:10300000E6CFE894015030F0080F0AF400270217C9
:1030100008F4202F2395022F7A3328F079E37D934B
:103020002A95E9F710C07D932A9589F6069497951D
:103030006795379517951794E118F10A430B560BCE
:10304000C90BD00998F023957E9173957A3308F0D7
:1030500070E37C932013B8F77E9170617D9330F01C
:10306000839571E37D9370E32A95E1F71124EF9046
:10307000FF900F911F91CF91DF91992787FD909538
:10308000089591110C943519803219F089508550AA
:10309000C8F70895FB01DC014150504088F08D9144
:1030A00081341CF08B350CF4805E659161341CF02A
:1030B0006B350CF4605E861B611171F3990B0895FA
:1030C000881BFCCF0E94A41808F481E00895E894BE
:1030D00009C097FB3EF490958095709561957F4F60
:1030E0008F4F9F4F9923A9F0F92F96E9BB2793950E
:1030F000F695879577956795B795F111F8CFFAF41E
:10310000BB0F11F460FF1BC06F5F7F4F8F4F9F4F4E
:1031100016C0882311F096E911C0772321F09EE8AC
:10312000872F762F05C0662371F096E8862F70E012
:1031300060E02AF09A95660F771F881FDAF7880FEC
:103140009695879597F90895990F0008550FAA0B42
:10315000E0E8FEEF16161706E807F907C0F01216AA
:103160001306E407F50798F0621B730B840B950BAD
:1031700039F40A2661F0232B242B252B21F4089502
:103180000A2609F4A140A6958FEF811D811D08959F
:103190000E94DB180C944F190E94411938F00E94CC
:1031A000481920F0952311F00C9438190C943E190D
:1031B00011240C9483190E94601970F3959FC1F338
:1031C000950F50E0551F629FF001729FBB27F00DD5
:1031D000B11D639FAA27F00DB11DAA1F649F66272A
:1031E000B00DA11D661F829F2227B00DA11D621F79
:1031F000739FB00DA11D621F839FA00D611D221F33
:10320000749F3327A00D611D231F849F600D211D16
:10321000822F762F6A2F11249F5750409AF0F1F099
:1032200088234AF0EE0FFF1FBB1F661F771F881F02
:1032300091505040A9F79E3F510580F00C943819E9
:103240000C9483195F3FE4F3983ED4F38695779509
:103250006795B795F795E7959F5FC1F7FE2B880FA8
:10326000911D9695879597F9089599278827089530
:1032700097F99F6780E870E060E008959FEF80EC29
:10328000089500240A9416161706180609060895CC
:1032900000240A9412161306140605060895092E32
:1032A0000394000C11F4882352F0BB0F40F4BF2BA1
:1032B00011F460FF04C06F5F7F4F8F4F9F4F0895E1
:1032C00057FD9058440F551F59F05F3F71F04795D7
:1032D000880F97FB991F61F09F3F79F087950895BC
:1032E000121613061406551FF2CF4695F1DF08C0DB
:1032F000161617061806991FF1CF869571056105F8
:1033000008940895E894BB2766277727CB0197F99F
:1033100008950E949419A59F900DB49F900DA49FAD
:10332000800D911D11240895A29FB001B39FC0018B
:10333000A39F700D811D1124911DB29F700D811DE1
:103340001124911D08955058BB27AA270E94BB192C
:103350000C944F190E94411938F00E94481920F02E
:1033600039F49F3F19F426F40C943E190EF4E095BD
:10337000E7FB0C943819E92F0E94601958F3BA172B
:10338000620773078407950720F079F4A6F50C947B
:1033900082190EF4E0950B2EBA2FA02D0B01B90166
:1033A00090010C01CA01A0011124FF27591B99F0BB
:1033B000593F50F4503E68F11A16F040A22F232FC7
:1033C000342F4427585FF3CF469537952795A79517
:1033D000F0405395C9F77EF41F16BA0B620B730BBE
:1033E000840BBAF09150A1F0FF0FBB1F661F771F2F
:1033F000881FC2F70EC0BA0F621F731F841F48F4E4
:10340000879577956795B795F7959E3F08F0B0CF6C
:103410009395880F08F09927EE0F97958795089553
:103420000E94241A0C944F190E94481958F00E94C7
:10343000411940F029F45F3F29F00C9438195111DB
:103440000C9483190C943E190E94601968F3992317
:10345000B1F3552391F3951B550BBB27AA27621790
:103460007307840738F09F5F5F4F220F331F441F9D
:10347000AA1FA9F335D00E2E3AF0E0E832D09150D1
:103480005040E695001CCAF72BD0FE2F29D0660FBE
:10349000771F881FBB1F261737074807AB07B0E801
:1034A00009F0BB0B802DBF01FF2793585F4F3AF007
:1034B0009E3F510578F00C9438190C9483195F3FA6
:1034C000E4F3983ED4F3869577956795B795F7958D
:1034D0009F5FC9F7880F911D9695879597F9089575
:1034E000E1E0660F771F881FBB1F62177307840711
:1034F000BA0720F0621B730B840BBA0BEE1F88F720
:10350000E09508950E94891A6894B1110C9483196A
:1035100008950E94681988F09F5798F0B92F99274D
:10352000B751B0F0E1F0660F771F881F991F1AF0AE
:10353000BA95C9F714C0B13091F00E948219B1E078
:1035400008950C948219672F782F8827B85F39F077
:10355000B93FCCF3869577956795B395D9F73EF447
:1035600090958095709561957F4F8F4F9F4F0895EF
:103570000E94A41808F48FEF089597FB072E16F405
:10358000009407D077FD09D00E94D91A07FC05D016
:103590003EF4909581959F4F0895709561957F4F6A
:1035A0000895EE0FFF1F881F8BBF0790F691E02D47
:1035B0001994AA1BBB1B51E107C0AA1FBB1FA6176A
:1035C000B70710F0A61BB70B881F991F5A95A9F7CC
:1035D00080959095BC01CD0108950F931F93CF93D3
:1035E000DF938230910510F482E090E0E091AB042B
:1035F000F091AC0430E020E0B0E0A0E0309799F426
:103600002115310509F44AC0281B390B2430310536
:10361000D8F58A819B816115710589F1FB0193833E
:103620008283FE0111C040815181028113814817BC
:103630005907E0F04817590799F4109761F012966E
:103640000C93129713961C933296CF01DF91CF9172
:103650001F910F9108950093AB041093AC04F4CF25
:103660002115310551F04217530738F0A901DB014C
:103670009A01BD01DF01F801C1CFEF01F9CF9093AD
:10368000AC048093AB04CDCFFE01E20FF31F819316
:1036900091932250310939832883D7CF2091A904EF
:1036A0003091AA04232B41F4209116023091170285
:1036B0003093AA042093A90420911402309115029A
:1036C0002115310541F42DB73EB7409118025091B4
:1036D0001902241B350BE091A904F091AA04E2170A
:1036E000F307A0F42E1B3F0B2817390778F0AC0125
:1036F0004E5F5F4F2417350748F04E0F5F1F509302
:10370000AA044093A904819391939FCFF0E0E0E055
:103710009CCFCF93DF930097E9F0FC01329713829F
:103720001282A091AB04B091AC04ED0130E020E036
:103730001097A1F420813181820F931F2091A90459
:103740003091AA042817390709F061C0F093AA0440
:10375000E093A904DF91CF910895EA01CE17DF0726
:10376000E8F54A815B819E0141155105B1F7E901F8
:10377000FB83EA8349915991C40FD51FEC17FD07CC
:1037800061F4808191810296840F951FE9019983EC
:103790008883828193819B838A83F0E0E0E01296A4
:1037A0008D919C9113970097B9F52D913C911197AC
:1037B000CD010296820F931F2091A9043091AA0493
:1037C0002817390739F6309751F51092AC0410924A
:1037D000AB04B093AA04A093A904BCCFD383C28343
:1037E00040815181840F951FC817D90761F44E5F3E
:1037F0005F4F88819981480F591F518340838A8187
:103800009B81938382832115310509F0B0CFF0931A
:10381000AC04E093AB049ECFFD01DC01C0CF13826A
:103820001282D7CF4F925F926F927F928F929F9228
:10383000AF92BF92CF92DF92EF92FF920F931F93BE
:10384000CF93DF938C01009799F4CB01DF91CF9157
:103850001F910F91FF90EF90DF90CF90BF90AF90AE
:103860009F908F907F906F905F904F900C94ED1A87
:10387000FC01E60FF71F9C0122503109E217F30704
:1038800008F4AEC0D901CD91DC911197C617D707C6
:1038900020F1C530D10578F0CE010497861797073F
:1038A00050F0C61BD70B2297C193D1936D937C9395
:1038B000CF010E94891BC801DF91CF911F910F9109
:1038C000FF90EF90DF90CF90BF90AF909F908F9040
:1038D0007F906F905F904F9008955B01AC1ABD0A86
:1038E0004C018C0E9D1EA091AB04B091AC04512CE8
:1038F000412CF12CE12C109731F58091A904909185
:10390000AA048815990509F05CC04616570608F008
:1039100058C08091140290911502009741F48DB720
:103920009EB74091180250911902841B950BE8171D
:10393000F90708F055C0F093AA04E093A904F9012F
:1039400071836083B8CF8D919C91119712966C9082
:10395000129713967C901397A815B90559F56C0129
:1039600042E0C40ED11CCA14DB0420F1AC014A1998
:103970005B09DA011296159780F062827382518397
:103980004083D9016D937C93E114F10471F0D70168
:103990001396FC93EE9312978ECF22968C0F9D1F59
:1039A000F90191838083F301EFCFF093AC04E093AE
:1039B000AB0481CF4816590608F42C017D01D301D0
:1039C0009ACFCB010E94ED1A7C01009749F0AE011D
:1039D000B8010E94F31CC8010E94891B87016BCFAC
:1039E00010E000E068CFFB01DC0102C001900D9205
:1039F00041505040D8F70895FB01DC018D910190B2
:103A000080190110D9F3990B0895FB01DC01019095
:103A10000D920020E1F7089511E0C8EDD1E000E03B
:103A200006C0802FFE010E94D11A2196011DC93DBA
:0C3A3000D10780E00807A9F7F894FFCF49
:103A3C00E604E604E604E604E604E604E604E6042A
:103A4C00446B60430000AD048000000000000203E2
:103A5C00230259024F03CA026802BC020D0A004D30
:103A6C00005A455241520051554555453A20657210
:103A7C00726F722064756520746F20756E64657347
:103A8C00697261626C652073697A6520666F722059
:103A9C0071756575652073697A652E0051554555AC
:103AAC00453A20696E73756666696369656E742044
:103ABC006D656D6F727920746F20696E69746961C0
:103ACC006C697A652074656D706F726172792071A2
:103ADC00756575652E0051554555453A2063616EE7
:103AEC00277420706F70206974656D2066726F6D1D
:103AFC002071756575653A207175657565206973FA
:103B0C0020656D7074792E005441524100494E4924
:103B1C0054494D450043414C005B4C43433B005DD5
:103B2C00004C434300555000444E0053005B4C3B4B
:103B3C00005B453B005B573B4F5D21005B563B00F8
:083B4C005B5A45524F5D210058
:00000001FF
