:020000040000FA
:100000000C94FE000C9426010C9426010C942601FD
:100010000C9426010C9426010C9426010C942601C4
:100020000C9426010C9426010C9426010C94FC07D8
:100030000C9426010C9426010C9426010C942601A4
:100040000C94B2070C9426010C9480070C945A0768
:100050000C9426010C9426010C9426010C94260184
:100060000C9426010C9426014E414E494E49545998
:10007000494E46CDCCCC3D0AD7233C17B7D1387773
:10008000CC2B329595E6241FB14F0A000020410089
:1000900000C84200401C4620BCBE4CCA1B0E5AAED3
:1000A000C59D7400407A10F35A00A0724E180900E2
:1000B00010A5D4E80000E87648170000E40B5402CD
:1000C0000000CA9A3B000000E1F505000080969808
:1000D00000000040420F000000A086010000001058
:1000E0002700000000E8030000000064000000009A
:1000F000000A00000000000100000000002C76D87B
:1001000088DC674F0823DFC1DFAE59E1B1B796E560
:10011000E3E453C63AE651997696E8E6C28426EBC4
:10012000898C9B62ED407C6FFCEFBC9C9F40F2BAD7
:10013000A56FA5F490055A2AF75C936B6CF9676D6F
:10014000C11BFCE0E40D47FEF520E6B500D0ED90C4
:100150002E0300943577050080841E080000204E91
:100160000A000000C80C333333330F986E1283112A
:1001700041EF8D2114893BE65516CFFEE6DB18D101
:10018000844B381BF77C1D901DA4BBE424203284D3
:10019000725E228100C9F124ECA1E53D2700000038
:1001A00000240027002A0000000000250028002B62
:1001B00000000000002300260029000404040404B9
:1001C0000404040202020202020303030303030104
:1001D00002040810204080010204081020010204DB
:1001E00008102000000008000201000003040700BE
:1001F00000000000000000008E087A0D11241FBED0
:10020000CFEFD8E0DEBFCDBF23E0A8EDB1E001C065
:100210001D92A430B207E1F711E0A0E0B1E0ECE2FA
:10022000FCE202C005900D92A83DB107D9F710E09D
:10023000CDEFD0E004C02197FE010E940814CC3F0E
:10024000D107C9F70E9473090C9409160C94000099
:10025000FC01248135816217730720F4808191812C
:10026000009729F41092E10181EE91E00895860F44
:10027000971F08957F928F929F92AF92BF92CF92D5
:10028000DF92EF92FF920F931F93CF93DF93EC01D6
:10029000B62ECC80DD80F12CE12C10E000E0702E39
:1002A000A12EEC14FD04E4F4B701CE010E94280154
:1002B000FC0180818B1581F0B701CE010E942801DD
:1002C0004C010F5F1F4F672D7A2DCE010E94280130
:1002D000F4012081FC012083FFEFEF1AFF0ADFCF3A
:1002E000B801CE010E942801FC011082DF91CF915C
:1002F0001F910F91FF90EF90DF90CF90BF90AF9044
:100300009F908F907F900895AF92BF92CF92DF928F
:10031000EF92FF920F931F93CF93DF936C017B01BA
:100320008B01040F151FEB015E01AE18BF08C0174B
:10033000D10759F06991D601ED91FC910190F081BE
:10034000E02DC6010995892B79F7C501DF91CF9181
:100350001F910F91FF90EF90DF90CF90BF90AF90E3
:100360000895FC01538D448D252F30E0842F90E0BB
:10037000821B930B541710F0CF96089501970895A0
:10038000FC01918D828D981761F0A28DAE0FBF2F69
:10039000B11D5D968C91928D9F5F9F73928F90E0BF
:1003A00008958FEF9FEF08952FB7F8948091E6019D
:1003B0009091E701A091E801B091E9012FBF8093EE
:1003C000F2019093F301A093F401B093F5018AEE4A
:1003D00091E00E94C00197FF26C02FB7F89480914A
:1003E000E6019091E701A091E801B091E9012FBFEA
:1003F0004091F2015091F3016091F4017091F50187
:10040000841B950BA60BB70B4091EE015091EF01A9
:100410006091F0017091F10184179507A607B70765
:10042000B0F28FEF9FEF0895FC01918D828D9817A8
:1004300031F0828DE80FF11D858D90E008958FEFEA
:100440009FEF0895FC01918D228D892F90E0805CB3
:100450009F4F821B91098F73992708958AEE91E02F
:100460000E94220221E0892B09F420E0822F0895C6
:1004700080E090E0892B29F00E942E0281110C94DB
:1004800000000895FC01A48DA80FB92FB11DA35A37
:10049000BF4F2C91848D90E001968F739927848FA4
:1004A000A689B7892C93A089B1898C9183708064C7
:1004B0008C93938D848D981306C00288F389E02D68
:1004C00080818F7D80830895EF92FF920F931F9319
:1004D000CF93DF93EC0181E0888F9B8D8C8D9813F7
:1004E0001AC0E889F989808185FF15C09FB7F89403
:1004F000EE89FF896083E889F9898081837080644F
:1005000080839FBF81E090E0DF91CF911F910F9199
:10051000FF90EF900895F62E0B8D10E00F5F1F4FA8
:100520000F731127E02E8C8D8E110CC00FB607FCB7
:10053000FACFE889F989808185FFF5CFCE010E9445
:100540004202F1CFEB8DEC0FFD2FF11DE35AFF4F6F
:10055000F0829FB7F8940B8FEA89FB8980818062D3
:10056000CFCFCF93DF93EC01888D8823B9F0AA8990
:10057000BB89E889F9898C9185FD03C0808186FD5E
:100580000DC00FB607FCF7CF8C9185FFF2CF8081AD
:1005900085FFEDCFCE010E944202E9CFDF91CF91DE
:1005A0000895833081F028F4813099F08230A9F0E9
:1005B00008958730A9F08830C9F08430B1F4809173
:1005C00080008F7D03C0809180008F7780938000B2
:1005D000089584B58F7784BD089584B58F7DFBCF52
:1005E0008091B0008F778093B00008958091B00023
:1005F0008F7DF9CFCF93DF93282F30E0F901ED51B4
:10060000FE4F8491F901E153FE4FD491F901E55475
:10061000FE4FC491CC23A1F081110E94D102EC2F96
:10062000F0E0EE0FFF1FEF54FE4FA591B491EC9157
:10063000ED2381E090E009F480E0DF91CF9108950F
:1006400080E090E0FACF1F93CF93DF93282F30E024
:10065000F901ED51FE4F8491F901E153FE4FD49120
:10066000F901E554FE4FC491CC23A9F0162F811156
:100670000E94D102EC2FF0E0EE0FFF1FE955FE4F74
:10068000A591B4918FB7F894EC91111108C0D09551
:10069000DE23DC938FBFDF91CF911F910895DE2B76
:1006A000F8CFCF93DF9360E08091FA020E9423039A
:1006B000D8E0C0E08091FC020E94FA02CC0FC82B67
:1006C00061E08091F8020E94230360E08091F802CB
:1006D0000E942303D15071F78C2FDF91CF910895A1
:1006E000CF93DF93D82F60E08091F8020E9423031C
:1006F000C8E08091FA0260E0D7FD61E00E94230328
:10070000DD0F61E08091F8020E94230360E0809198
:10071000F8020E942303C15061F7DF91CF91089541
:100720000F931F93CF93DF93EC0106EF12E060E08D
:10073000F80180810E94230388810E9470038981CF
:100740000E9470038A810E9470038B810E94700353
:100750008C810E94700361E0F8018081DF91CF916C
:100760001F910F910C942303CF93DF9390E0FC0132
:10077000E153FE4F249185549E4FFC0184918823C0
:10078000C9F090E0880F991FFC01E356FE4FA59138
:10079000B491FC01E955FE4FC591D49161110DC092
:1007A0009FB7F8948C91209582238C93888128237D
:1007B00028839FBFDF91CF910895623051F49FB796
:1007C000F8943C91822F809583238C93E8812E2B83
:1007D000EFCF8FB7F894EC912E2B2C938FBFEACFED
:1007E0003FB7F8948091DD019091DE01A091DF0187
:1007F000B091E00126B5A89B05C02F3F19F00196E6
:10080000A11DB11D3FBFBA2FA92F982F8827BC016A
:10081000CD01620F711D811D911D42E0660F771F92
:10082000881F991F4A95D1F708958F929F92AF9292
:10083000BF92CF92DF92EF92FF924B015C010E9438
:10084000F0036B017C010E94F0036C197D098E0995
:100850009F09683E734081059105A8F321E0821A43
:100860009108A108B10888EEC80E83E0D81EE11CEB
:10087000F11C81149104A104B10429F7FF90EF90B9
:10088000DF90CF90BF90AF909F908F900895BF92D0
:10089000CF92DF92EF92FF920F931F93CF93DF934C
:1008A000C0E060E08091F8020E94230360E0809144
:1008B000FA020E94230360E08091F6020E94230363
:1008C0008091FC020E94FA02892BD1F760E08091AE
:1008D000F6020E94230380E00E9470030E945103ED
:1008E000D82F0E945103D82E0E945103C82E0E9477
:1008F0005103B82E61E08091F6020E942303D7FDD8
:10090000CFEFB2FC09C0C601AD2FBC2F0097A105E7
:10091000B10511F076018D01B701C8010E94551192
:1009200020910A0130910B0140910C0150910D0171
:100930000E9433132091E2013091E3014091E401E0
:100940005091E5010E94C612DF91CF911F910F9146
:10095000FF90EF90DF90CF90BF9008954F925F92FD
:100960006F927F928F929F92AF92BF92CF92DF92BF
:10097000EF92FF920F931F93CF93DF93D0E0C0E0ED
:10098000812C912C5401082F082E000C110BC82E1D
:10099000880FDD08EE08FF08C017D107C4F40E94D5
:1009A00047042B013C01C701B6010E9455119B0170
:1009B000AC01C301B2010E9433139B01AC01C5011C
:1009C000B4010E94C7124B015C012196E5CFA5013D
:1009D00094016091E2017091E3018091E4019091B2
:1009E000E5010E94C7126093E2017093E3018093D6
:1009F000E4019093E501DF91CF911F910F91FF905A
:100A0000EF90DF90CF90BF90AF909F908F907F90AE
:100A10006F905F904F900895EC01009739F00E941D
:100A20007F0866E271E0CE010E947F080E9466089E
:100A30008F929F92AF92BF92CF92DF92EF92FF92EE
:100A40000F931F93CF93DF93EC0169E271E01816C7
:100A50001906DCF5880F991F880F991F0E940E1444
:100A60008C01009781F18090EA029090EB02E09176
:100A7000E602F091E702A090EC02B090ED02C09087
:100A8000E802D090E9027C0130E020E02815390529
:100A900014F5C9018A0D9B1DB6010E94E013DC010B
:100AA000AA0FBB1FAA0FBB1FAE0FBF1F4D915D91B9
:100AB0006D917C91D7014D935D936D937D937D01F5
:100AC0002F5F3F4FE3CF6EE571E08091E40290919C
:100AD000E5020E940C05CF010E94AA141093E702C0
:100AE0000093E6021092ED021092EC028091EA026D
:100AF0009091EB029093EF028093EE02D093E90283
:100B0000C093E802DF91CF911F910F91FF90EF907A
:100B1000DF90CF90BF90AF909F908F900895FC0191
:100B200080819181009711F00C94AA140895EF929E
:100B3000FF920F931F93CF93DF93EC017C018BE126
:100B4000E80EF11C8E01095A1F4FE016F10631F034
:100B500006501109C8010E948F05F7CFCE014596B6
:100B60000E948F05CE0106960E948F05CE01DF916F
:100B7000CF911F910F91FF90EF900C948F05FC0186
:100B800024813581232B39F421E0FB0180818823E6
:100B900049F020E007C0808191810E94F91521E091
:100BA000892BB9F7822F08950F931F93CF93DF936B
:100BB000EC0188819981009759F02A813B812617A1
:100BC000370730F081E0DF91CF911F910F910895A9
:100BD0008B016F5F7F4F0E943315009759F0998307
:100BE00088831B830A832C813D81232B59F7FC01C9
:100BF0001082E8CF80E0E7CFEF92FF920F931F9330
:100C0000CF93DF936115710541F480E0DF91CF91BF
:100C10001F910F91FF90EF90089541155105B1F08C
:100C20007B01EC010C811D81040F151FB8010E948E
:100C3000D405882351F3288139818C819D81B701A6
:100C4000820F931F0E9402161D830C8381E0DECF6A
:100C5000EF92FF920F931F93CF93DF93EC017B01F1
:100C60008A01BA010E94D40528813981811114C0FA
:100C70002115310519F0C9010E94AA1419821882A0
:100C80001D821C821B821A82CE01DF91CF911F919F
:100C90000F91FF90EF9008951D830C83B701C90158
:100CA0000E940216F1CFFC0111821082138212827F
:100CB0001582148250E040E068E271E00C9428064E
:100CC000CF93DF93EC01FB018617970749F0608112
:100CD00071816115710541F0448155810E9428069A
:100CE000CE01DF91CF91089588819981009711F00D
:100CF0000E94AA14198218821D821C821B821A82E9
:100D0000EFCF8F929F92AF92BF92CF92DF92EF92EE
:100D1000FF920F931F93CF93DF93CDB7DEB7289742
:100D20000FB6F894DEBF0FBECDBF6C016DE50E941B
:100D30003A016BE5C6010E943A0190909B02F601D0
:100D4000A480B580CE0101960E945306F12CE12CBF
:100D500010E000E086E0882EEA14FB04DCF5F601E2
:100D600084819581E816F906C8F480819181009705
:100D7000A9F08E0D9F1DFC018081981689F08F834C
:100D8000188641E050E0BE01695F7F4FCE010196B9
:100D90000E94FC05FFEFEF1AFF0ADECF80E0EDCFE7
:100DA0000A301105BCF7809EC001819E900D112470
:100DB000BE016F5F7F4F8E559D4F0E9460060F5F93
:100DC0001F4F50E040E068E271E0CE0101960E94C2
:100DD0002806E0CF68E271E0CE0101960E94BF05CF
:100DE000811112C00A3011057CF426E0209FC00159
:100DF000219F900D1124BE016F5F7F4F8E559D4F37
:100E00000E9460060F5F1F4FCE0101960E948F0562
:100E1000109398020093970202301105F9F0033005
:100E2000110599F10130110531F462EA72E087E8A9
:100E300092E00E94600628960FB6F894DEBF0FBEBF
:100E4000CDBFDF91CF911F910F91FF90EF90DF9079
:100E5000CF90BF90AF909F908F90089562EA72E01C
:100E600087E892E00E9460068091A8029091A90212
:100E70000097E1F00E94A20D609393027093940298
:100E80008093950290939602D6CF62EA72E087E84B
:100E900092E00E94600668EA72E08DE892E00E94AB
:100EA00060068091AE029091AF02E2CF60E070E008
:100EB000CB01E2CF1F920F920FB60F9211242F9306
:100EC0003F934F935F936F937F938F939F93AF93D2
:100ED000BF93EF93FF938AEE91E00E944202FF914D
:100EE000EF91BF91AF919F918F917F916F915F91A2
:100EF0004F913F912F910F900FBE0F901F9018951B
:100F00001F920F920FB60F9211242F938F939F93DE
:100F1000EF93FF93E091FA01F091FB018081E09162
:100F20000002F091010282FD1BC0908180910302BA
:100F30008F5F8F7320910402821741F0E0910302CA
:100F4000F0E0E651FE4F958F80930302FF91EF9101
:100F50009F918F912F910F900FBE0F901F9018951A
:100F60008081F4CF1F920F920FB60F9211242F930E
:100F70003F938F939F93AF93BF938091E60190919E
:100F8000E701A091E801B091E9013091DC0123E093
:100F9000230F2D3758F50196A11DB11D2093DC01BB
:100FA0008093E6019093E701A093E801B093E901F3
:100FB0008091DD019091DE01A091DF01B091E0010F
:100FC0000196A11DB11D8093DD019093DE01A093D8
:100FD000DF01B093E001BF91AF919F918F913F915D
:100FE0002F910F900FBE0F901F90189526E8230F9A
:100FF0000296A11DB11DD2CF1F920F920FB60F9274
:1010000011242F933F934F935F936F937F938F930D
:101010009F93AF93BF93EF93FF931092850010922D
:10102000840080918800909189008F3F9F47F0F065
:1010300080916F008D7F80936F0060E08AE00E9456
:10104000230361E08CE00E942303FF91EF91BF91A5
:10105000AF919F918F917F916F915F914F913F9150
:101060002F910F900FBE0F901F9018958AE00E944D
:10107000FA0261E068278AE00E9423038AE00E9466
:10108000FA02892B11F78BE00E94FA02892BD9F41E
:101090008FEF9FEF092E000CAA0BBB0B4091D801DC
:1010A0005091D9016091DA017091DB01840F951F95
:1010B000A61FB71F8093D8019093D901A093DA019E
:1010C000B093DB01C2CF81E090E0E4CF61E08DE03E
:1010D0000E94B40361E08DE00E9423036AEF70E098
:1010E00080E090E00E94150460E08DE00E94230300
:1010F0006AEF70E080E090E00E941504EBCFFB0106
:1011000001900020E9F73197AF01461B570BDC0136
:10111000ED91FC910280F381E02D09940F931F93D0
:10112000CF93DF931092ED011092EC0188EE93E0E3
:10113000A0E0B0E08093EE019093EF01A093F00166
:10114000B093F10188E191E09093EB018093EA0183
:1011500085EC90E09093F7018093F60184EC90E0A9
:101160009093F9018093F80180EC90E09093FB015B
:101170008093FA0181EC90E09093FD018093FC0153
:1011800082EC90E09093FF018093FE0186EC90E06A
:1011900090930102809300021092030210920402C5
:1011A000109205021092060202E010E01093F7027E
:1011B0000093F60285E090E09093F9028093F802A4
:1011C000C3E0D0E0D093FB02C093FA0284E090E049
:1011D0009093FD028093FC0261E082E00E94B403E0
:1011E00061E08091F8020E94B40361E08091FA020C
:1011F0000E94B40360E08091FC020E94B40361E0AD
:101200008091F6020E94230360E08091F8020E9420
:10121000230360E08091FA020E9423031092E90206
:101220001092E8021092EB021092EA021092ED0284
:101230001092EC021092EF021092EE021092E50270
:101240001092E40288E090E00E940E149093E7026E
:101250008093E602892B11F40E9466081093E9023C
:101260000093E802D093DF02C093DE028DEC9CEC89
:10127000ACE4BEE38093E0029093E102A093E2022B
:10128000B093E3021092F0021092F1021092F20277
:101290001092F3021092F5021092F40287E892E0A5
:1012A0000E9453068DE892E00E94530682E390E08C
:1012B00090939A02809399028BE380939B028CE92E
:1012C00092E00E945306D0E0C0E0CE018E559D4FC3
:1012D0000E9453062696CC33D105B9F7DF91CF9102
:1012E0001F910F910895CF93DF93CDB7DEB7CD5502
:1012F000D1090FB6F894DEBF0FBECDBF789484B588
:10130000826084BD84B5816084BD85B5826085BD01
:1013100085B5816085BD80916E00816080936E008F
:101320001092810080918100826080938100809181
:101330008100816080938100809180008160809332
:1013400080008091B10084608093B1008091B000F2
:1013500081608093B00080917A00846080937A00ED
:1013600080917A00826080937A0080917A00816017
:1013700080937A0080917A00806880937A0010923E
:10138000C100E091FA01F091FB0182E08083E091DD
:10139000FA01F091FB011082E091F601F091F70162
:1013A0001082E091F801F091F90180E180831092C0
:1013B0000202E091FE01F091FF0186E08083E0915E
:1013C000FC01F091FD01808180618083E091FC014E
:1013D000F091FD01808188608083E091FC01F091B3
:1013E000FD01808180688083E091FC01F091FD0126
:1013F00080818F7D808361E08AE00E94B40361E098
:101400008BE00E94B40361E08CE00E94B40360E0D2
:101410008AE00E94230360E08BE00E94230360E0E7
:101420008CE00E94230362E086E00E94B40362E045
:1014300087E00E94B4031092800080918100816057
:1014400080938100809181008260809381008091EF
:1014500081008B7F80938100109285001092840020
:10146000109289001092880061E08091F6020E943B
:10147000230360E08091F8020E94230360E08091E2
:10148000FA020E9423036AE070E080E090E00E948C
:10149000150460E08091F6020E94230361E08091D0
:1014A000FA020E9423030FE710E061E08091F80246
:1014B0000E94230360E08091F8020E942303015000
:1014C000110999F760E08091FA020E94230361E01C
:1014D0008091F8020E94230360E08091F8020E944C
:1014E000230361E08091F6020E9423036AE070E02A
:1014F00080E090E00E94150485E091E00E94900356
:1015000068EC70E080E090E00E94150480E091E0DB
:101510000E9490036AE070E080E090E00E94150471
:1015200083E0898382E08A831B8280E28C831D8230
:10153000CE0101960E94900360E08091F6020E9425
:10154000230380EC0E94700361E08091F6020E9408
:1015500023038AE00E94AE04EE24EA941FE7F12EF2
:10156000B0E0CB2EB0E0DB2E8AEE91E00E942202AA
:10157000892B09F498C0CE0101960E9453060E945F
:10158000D40197FD13C08A30910581F069968FAF21
:1015900069976A961FAE6A9741E050E0BE01685AAB
:1015A0007F4FCE0101960E94FC05E9CFCE01019646
:1015B0000E948106CE0101960E948F051A8219822F
:1015C0001C821B821E821D8267E872E0CE0101969A
:1015D0000E94600618861F821A8619861C861B8642
:1015E0006DE872E0CE0107960E946006809193023A
:1015F00090919402A0919502B09196028D879E875A
:10160000AF87B88B80919702909198029A8B898BC3
:101610008091990290919A029C8B8B8B80919B0276
:101620008D8B1F8A1E8A198E188E1B8E1A8E6CE95E
:1016300072E0CE0146960E9460065E018CE1A80E23
:10164000B11C0BE110E0F5011182108213821282AD
:1016500015821482B80169577D4FC5010E9460064A
:10166000F6E0AF0EB11C0A5F1F4F0735110559F7A1
:1016700089899A898230910509F45EC08330910589
:1016800009F4AFC0019759F468E971E0CE01019601
:101690000E94BF05882319F084E10E94AE04CE01A8
:1016A00001960E94970587E00E94FA02892B69F44F
:1016B00080916F008D7F80936F0060E08AE00E94D0
:1016C000230361E08CE00E94230386E00E94FA027B
:1016D000892B69F480916F008D7F80936F0060E0AB
:1016E0008AE00E94230361E08CE00E942303CE0184
:1016F000885A9F4F0E9453060E9447042B013C01C9
:101700002091F4023091F5028091DE029091DF0287
:10171000281739070CF456C12091EA023091EB02E8
:101720002115310509F0F1C066EA71E08091E4020B
:101730009091E5020E940C056DE971E0CE010196E1
:101740000E94BF05882309F4AACF4D845E846F846C
:1017500078880AE010E0812C912C54010E94470403
:1017600020E030E040E251E40E9433139B01AC01E1
:10177000C501B4010E94C7124B015C01015011095F
:1017800069F7A30192010E9433139B01AC016091A0
:101790000A0170910B0180910C0190910D010E9442
:1017A000B41160930A0170930B0180930C01909324
:1017B0000D0184E10E94AE04A30192016091E20157
:1017C0007091E3018091E4019091E5010E94C612BD
:1017D0006093E2017093E3018093E4019093E5014B
:1017E0005ECF61EA71E0CE0101960E94BF058823B9
:1017F00009F455CF63EA71E0CE0107960E94BF0558
:10180000811175C060E070E080E89FEB2D853E851A
:101810004F8558890E94B4114B015C012FE632E1DB
:1018200043E85AE30E94DB13181654F02FE632E126
:1018300043E85AEBC501B4010E944E1187FF60C016
:1018400020E030E0A901C501B4010E94DB1320E0D3
:1018500030E048E454E418160CF04EC0C501B40161
:101860000E94B4119B01AC010E94C7129B01AC0104
:1018700060E070E48CE995E40E94331320E030E0EE
:101880004AE753E40E94B4110E94A51370938900A3
:1018900060938800809188009091890001979093CF
:1018A00085008093840080916F00826080936F0038
:1018B00020E030E0A901C501B4010E94DB13181635
:1018C00024F461E08BE00E94230320E030E0A901D2
:1018D000C501B4010E944E1187FF04C060E08BE097
:1018E0000E94230360E08CE00E942303D8CE60E0D6
:1018F00070E080E89FE38ACFC501B4019058B0CF73
:10190000F0928900E0928800CACE6091E602709160
:10191000E7028091EC029091ED02AC014F5F5F4FC6
:101920005093ED024093EC02880F991F880F991F86
:10193000860F971FFC0180809180A280B380215088
:1019400031093093EB022093EA028091E8029091F2
:10195000E9024817590721F41092ED021092EC02A7
:101960002115310591F0AC0197FF02C04D5F5F4F2B
:1019700055954795559547954217530734F097FD70
:101980000196959587950E941805A501940160918F
:10199000F0027091F1028091F2029091F3020E94A4
:1019A000C6126093F0027093F1028093F20290935A
:1019B000F3028091F4029091F50201979093F50261
:1019C0008093F4028091EA029091EB022091E80268
:1019D0003091E9028217930721F4880F991F0E9422
:1019E00018052091E6023091E7028091EE02909175
:1019F000EF02AC014F5F5F4F5093EF024093EE0256
:101A0000880F991F880F991F820F931FFC01408236
:101A10005182628273828091E8029091E9024817B4
:101A2000590721F41092EF021092EE028091EA021F
:101A30009091EB0201969093EB028093EA02A3014E
:101A400092016091F0027091F1028091F202909106
:101A5000F3020E94C7126093F0027093F102809328
:101A6000F2029093F3028091F4029091F5020196B4
:101A70009093F5028093F4028E010F5F1F4F22E0D6
:101A800044E060E070E0CB010E94840DFC01019015
:101A90000020E9F73197AF01481B590BBC01CE017B
:101AA000885A9F4F0E94FC0541E050E067E271E0D8
:101AB000CE01885A9F4F0E94FC056E964EAD5FADD9
:101AC0006E976A966EAD7FAD6A978AEE91E00E943E
:101AD0008401CE01885A9F4F0E948F05C114D10402
:101AE00009F442CD0E942E02882309F439CD0E94C8
:101AF000000036CD87E892E00E9497058091E602CB
:101B00009091E7020C94AA14EF920F931F93CF9336
:101B1000DF93E80134E047FD34E1042E000C550B5F
:101B200057FF03C0519541955109E32E022F242FF1
:101B3000AE010E94A60DCE01DF91CF911F910F91B2
:101B4000EF900895662777270C94050FA9E0B0E081
:101B5000ECEAFDE00C9486126A01F22EB02E102FF2
:101B6000FBE3AF2EA01608F41BE31F5F012F27E055
:101B7000AE014F5F5F4F0E945510BC018981982FC5
:101B80009970913009F43FC09BE2E1FC04C09E2DA6
:101B90009170E0FC3AC05E2D5071E82FE87083FF31
:101BA00046C084E0911101C083E0EF2DE81B8F1542
:101BB00008F0E0E0D6018E2F20E2552351F1992361
:101BC00029F0D6019C93C60101966C0196012D5F08
:101BD0003F4FE2FE24C08EE4D6018C9391E411962F
:101BE0009C93119712968C93D9018E2F90E28111BC
:101BF0001BC0E20FF32FF11D10828EEF9FEF29968D
:101C0000ECE00C94A2129DE2C6CF90E2C4CF2D93DB
:101C100081508111FCCFCE0ED11CE0E0D0CF8EE6FA
:101C2000D6018C9391E6DBCF9D938150E0CF482F76
:101C3000447082FF3DC084E0911101C083E08F15A4
:101C400010F4EF2DE81BD6018E2F20E2552309F169
:101C5000992329F0D6019C93C60101966C01960147
:101C60002D5F3F4FE2FE1BC089E4D6018C938EE4CA
:101C700011968C93119786E412968C93D9018E2F2E
:101C800090E2882309F4B5CF9D938150FACF2D932C
:101C900081508111FCCFCE0ED11CE0E0D9CF89E676
:101CA000D6018C938EE611968C93119786E6E4CF3D
:101CB0009B0177FF02C030E020E0A1E0B0E091118D
:101CC00002C0B0E0A0E0F9013196AE0FBF1F8B2C2F
:101CD000912CBB2009F461C05401EFEFAE1ABE0A8B
:101CE000AA0DBB1DFA161B0619F014F04F2D4A1B46
:101CF000511188C0E3FC59C07601A42FB0E2A111B4
:101D00004FC0C40ED11C992309F45BC040E0D6013A
:101D10001196F60190836D01552309F448C0012FF7
:101D2000060F9A81582F507184FF03C0913309F434
:101D3000015010160CF047C0093008F008E0EEE240
:101D4000FE2E5B01A01AB10885019194819491083F
:101D50002F3F320729F4D601FC92F60131966F012C
:101D60006217730794F1021713077CF5DB01A21BBE
:101D7000B30BAA24A394B12CAC0EBD1EAA0DBB1D9F
:101D800011968C9121503109D601119628153905EB
:101D9000F4F0F60180836D01DBCFB12CA12CA0CF34
:101DA000F701B1937F01A150AACF9111B0CFD60115
:101DB000942F50E302C05D9391509111FCCFC40E5B
:101DC000D11C40E0ACCF01E0BACF80E3DBCF62179B
:101DD000730731F4963388F4953311F4552369F081
:101DE000F6018083FD01842F90E2811108C0A40FC9
:101DF000B11D1C9290E080E002CF81E3F1CF91937E
:101E00008150F3CF911183CF8ACFB0E0A0E0EBE017
:101E1000FFE00C9486125C017B016115710519F0DD
:101E2000DB018D939C9385010F5F1F4FF501D081DE
:101E30008D2F90E00E942D116C01892BB9F5DD32B8
:101E4000B9F50F5F1F4FD5011196DC91C1E0580124
:101E5000F1E0AF1AB10843E050E060E770E0C5017F
:101E60000E943611892B69F5680182E0C80ED11CE9
:101E700045E050E06BE670E0C6010E943611892B08
:101E800021F4680197E0C90ED11CE114F10419F0A6
:101E9000D701CD92DC9260E070E080E89FEFC11145
:101EA000FFC060E070E080E89FE7FAC05801BBCF58
:101EB000DB3229F485010E5F1F4FF501D181C0E0AF
:101EC000C6CF43E050E068E670E0C5010E943611DD
:101ED000892BE9F0F80110E000E020E030E0A901F2
:101EE0005F01B0ED8B2E8D0E89E08815C8F19C2E18
:101EF000689491F88C2F8870C2FF16C0811102C0BF
:101F00000F5F1F4F3196D501DC91C92DE9CFE11448
:101F1000F10429F00E5F1F4FF7011183008360E089
:101F200070E080EC9FE7BCC0882311F001501109DC
:101F3000A5E0B0E00E9475129B01AC01220F331F97
:101F4000441F551F280D311D411D511D283999E988
:101F50003907490799E15907A8F2C6609C2ED2CFEC
:101F6000AEEF8A1206C0C3FD3CC09C2E689493F865
:101F7000C9CFDF7DD534A9F580818D3239F4C061B8
:101F8000DF011296818162E070E006C0DF018B32D2
:101F9000C1F3119661E070E080535D01A61AB70AA3
:101FA0008A30F8F4E0E8CE16ECE0DE065CF4B60128
:101FB000660F771F660F771FC60ED71ECC0CDD1C71
:101FC000C80ED11C5D01FFEFAF1ABF0A8C91805380
:101FD0008A30A8F1C4FF03C0D194C194D1080C0D7C
:101FE0001D1DC1FF09C0E114F10431F081E0A81A00
:101FF000B108D701AD92BC92CA01B9010E94531138
:10200000C370C33009F490584B015C0120E030E00C
:10201000A9010E944E11882309F440C0CFE9D0E005
:1020200017FF05C0119501951109C7E8D0E06E01B1
:10203000B8E1CB1AD10880E2E82EF12C0FC0D5010F
:10204000B1CFFE0125913591459154910E191F098B
:10205000C501B4010E94B4114B015C01D501C4015A
:102060000E151F0574F72497F594E794CC16DD063A
:10207000A9F78A2F880F8B2F881F8F3F49F020E008
:1020800030E0A901C501B4010E944E11811106C0C2
:1020900082E290E09093FF028093FE02C501B401BA
:1020A000CDB7DEB7ECE00C94A212283008F027E0A0
:1020B0003327DA01990F311D87FD91600096610584
:1020C000710539F432602E5F3D9330E32A95E1F7D4
:1020D00008959F3F30F080387105610509F03C5F3D
:1020E0003C5F3D93913008F08068911DDF93CF9362
:1020F0001F930F93FF92EF92192F987F9695E92FD8
:1021000096959695E90FFF27E350FF4F99273327C0
:10211000EE24FF24A701E70105900894079428F412
:10212000360FE71EF81E491F511D660F771F881FC7
:10213000991F0694A1F70590079428F4E70EF81E5E
:10214000491F561FC11D770F881F991F661F0694D0
:10215000A1F70590079428F4F80E491F561FC71FD2
:10216000D11D880F991F661F771F0694A1F7059050
:10217000079420F4490F561FC71FD81F990F661FD9
:10218000771F881F0694A9F784911095177041F066
:10219000D695C79557954795F794E7941A95C1F743
:1021A000E3EAF0E068941590159135916591959169
:1021B00005907FE27395E118F10A430B560BC90BAA
:1021C000D009C0F7E10CF11E431F561FC91FD01DD7
:1021D0007EF4703311F48A95E6CFE894015030F024
:1021E000080F0AF40027021708F4202F2395022F66
:1021F0007A3328F079E37D932A95E9F710C07D932F
:102200002A9589F6069497956795379517951794AB
:10221000E118F10A430B560BC90BD00998F023952E
:102220007E9173957A3308F070E37C932013B8F7AE
:102230007E9170617D9330F0839571E37D9370E3BF
:102240002A95E1F71124EF90FF900F911F91CF9104
:10225000DF91992787FD9095089591110C94211293
:10226000803219F089508550C8F70895FB01DC01D0
:102270004150504088F08D9181341CF08B350CF426
:10228000805E659161341CF06B350CF4605E861BDA
:10229000611171F3990B0895881BFCCF0E94901176
:1022A00008F481E00895E89409C097FB3EF4909506
:1022B0008095709561957F4F8F4F9F4F9923A9F01F
:1022C000F92F96E9BB279395F695879577956795AE
:1022D000B795F111F8CFFAF4BB0F11F460FF1BC0F2
:1022E0006F5F7F4F8F4F9F4F16C0882311F096E985
:1022F00011C0772321F09EE8872F762F05C0662333
:1023000071F096E8862F70E060E02AF09A95660FEB
:10231000771F881FDAF7880F9695879597F90895A4
:10232000990F0008550FAA0BE0E8FEEF16161706E6
:10233000E807F907C0F012161306E407F50798F04E
:10234000621B730B840B950B39F40A2661F0232B67
:10235000242B252B21F408950A2609F4A140A695E3
:102360008FEF811D811D08950E94C7110C943B12AF
:102370000E942D1238F00E94341220F0952311F0A3
:102380000C9424120C942A1211240C946F120E94A3
:102390004C1270F3959FC1F3950F50E0551F629F4B
:1023A000F001729FBB27F00DB11D639FAA27F00DAE
:1023B000B11DAA1F649F6627B00DA11D661F829FD5
:1023C0002227B00DA11D621F739FB00DA11D621FBA
:1023D000839FA00D611D221F749F3327A00D611DD7
:1023E000231F849F600D211D822F762F6A2F1124B9
:1023F0009F5750409AF0F1F088234AF0EE0FFF1FEC
:10240000BB1F661F771F881F91505040A9F79E3F42
:10241000510580F00C9424120C946F125F3FE4F38A
:10242000983ED4F3869577956795B795F795E79598
:102430009F5FC1F7FE2B880F911D9695879597F9A1
:10244000089599278827089597F99F6780E870E095
:1024500060E008959FEF80EC089500240A9416161A
:10246000170618060906089500240A941216130682
:10247000140605060895092E0394000C11F4882310
:1024800052F0BB0F40F4BF2B11F460FF04C06F5F2C
:102490007F4F8F4F9F4F089557FD9058440F551F02
:1024A00059F05F3F71F04795880F97FB991F61F0D6
:1024B0009F3F79F087950895121613061406551F4D
:1024C000F2CF4695F1DF08C0161617061806991FB9
:1024D000F1CF86957105610508940895E894BB27AE
:1024E00066277727CB0197F908950E94B712A59F19
:1024F000900DB49F900DA49F800D911D11240895FF
:102500002F923F924F925F926F927F928F929F9203
:10251000AF92BF92CF92DF92EF92FF920F931F93F1
:10252000CF93DF93CDB7DEB7CA1BDB0B0FB6F894A2
:10253000DEBF0FBECDBF09942A88398848885F84E2
:102540006E847D848C849B84AA84B984C884DF8053
:10255000EE80FD800C811B81AA81B981CE0FD11D37
:102560000FB6F894DEBF0FBECDBFED010895A29F58
:10257000B001B39FC001A39F700D811D1124911D57
:10258000B29F700D811D1124911D08955058BB27D5
:10259000AA270E94DE120C943B120E942D1238F0E2
:1025A0000E94341220F039F49F3F19F426F40C9461
:1025B0002A120EF4E095E7FB0C942412E92F0E94F6
:1025C0004C1258F3BA17620773078407950720F077
:1025D00079F4A6F50C946E120EF4E0950B2EBA2F3A
:1025E000A02D0B01B90190010C01CA01A001112419
:1025F000FF27591B99F0593F50F4503E68F11A16C5
:10260000F040A22F232F342F4427585FF3CF469555
:1026100037952795A795F0405395C9F77EF41F1677
:10262000BA0B620B730B840BBAF09150A1F0FF0F41
:10263000BB1F661F771F881FC2F70EC0BA0F621F2D
:10264000731F841F48F4879577956795B795F7951D
:102650009E3F08F0B0CF9395880F08F09927EE0FB2
:102660009795879508950E9447130C943B120E94FA
:10267000341258F00E942D1240F029F45F3F29F0E7
:102680000C94241251110C946F120C942A120E9473
:102690004C1268F39923B1F3552391F3951B550B15
:1026A000BB27AA2762177307840738F09F5F5F4F25
:1026B000220F331F441FAA1FA9F335D00E2E3AF064
:1026C000E0E832D091505040E695001CCAF72BD07C
:1026D000FE2F29D0660F771F881FBB1F26173707CD
:1026E0004807AB07B0E809F0BB0B802DBF01FF27FF
:1026F00093585F4F3AF09E3F510578F00C942412A6
:102700000C946F125F3FE4F3983ED4F3869577956F
:102710006795B795F7959F5FC9F7880F911D9695B7
:10272000879597F90895E1E0660F771F881FBB1F13
:10273000621773078407BA0720F0621B730B840BC0
:10274000BA0BEE1F88F7E09508950E94AC136894C9
:10275000B1110C946F1208950E94541288F09F5783
:1027600098F0B92F9927B751B0F0E1F0660F771FB5
:10277000881F991F1AF0BA95C9F714C0B13091F0AB
:102780000E946E12B1E008950C946E12672F782F9C
:102790008827B85F39F0B93FCCF386957795679570
:1027A000B395D9F73EF490958095709561957F4FDC
:1027B0008F4F9F4F08950E94901108F48FEF089556
:1027C00097FB072E16F4009407D077FD09D00E94DE
:1027D000F41307FC05D03EF4909581959F4F089522
:1027E000709561957F4F0895AA1BBB1B51E107C0EF
:1027F000AA1FBB1FA617B70710F0A61BB70B881F91
:10280000991F5A95A9F780959095BC01CD0108951F
:10281000EE0FFF1F0590F491E02D09940F931F9385
:10282000CF93DF938230910510F482E090E0E09145
:102830000203F091030330E020E0B0E0A0E0309725
:1028400099F42115310509F44AC0281B390B2430AD
:102850003105D8F58A819B816115710589F1FB01EC
:1028600093838283FE0111C04081518102811381D3
:1028700048175907E0F04817590799F4109761F085
:1028800012960C93129713961C933296CF01DF91F8
:10289000CF911F910F9108950093020310930303AA
:1028A000F4CF2115310551F04217530738F0A90133
:1028B000DB019A01BD01DF01F801C1CFEF01F9CFC2
:1028C0009093030380930203CDCFFE01E20FF31F29
:1028D000819391932250310939832883D7CF209156
:1028E000000330910103232B41F42091100130911A
:1028F0001101309301032093000320910E013091C8
:102900000F012115310541F42DB73EB74091120159
:1029100050911301241B350BE0910003F09101034A
:10292000E217F307A0F42E1B3F0B2817390778F0A6
:10293000AC014E5F5F4F2417350748F04E0F5F1F05
:102940005093010340930003819391939FCFF0E054
:10295000E0E09CCFCF93DF930097E9F0FC01329742
:1029600013821282A0910203B0910303ED0130E0C3
:1029700020E01097A1F420813181820F931F2091D4
:102980000003309101032817390709F061C0F09363
:102990000103E0930003DF91CF910895EA01CE1780
:1029A000DF07E8F54A815B819E0141155105B1F7CA
:1029B000E901FB83EA8349915991C40FD51FEC17B4
:1029C000FD0761F4808191810296840F951FE901D2
:1029D00099838883828193819B838A83F0E0E0E0FE
:1029E00012968D919C9113970097B9F52D913C917A
:1029F0001197CD010296820F931F20910003309111
:102A000001032817390739F6309751F5109203035F
:102A100010920203B0930103A0930003BCCFD383B1
:102A2000C28340815181840F951FC817D90761F473
:102A30004E5F5F4F88819981480F591F51834083B2
:102A40008A819B81938382832115310509F0B0CF60
:102A5000F0930303E09302039ECFFD01DC01C0CF9E
:102A600013821282D7CFB0E0A0E0E9E3F5E10C9445
:102A700082128C01009751F4CB010E940E148C013C
:102A8000C801CDB7DEB7E0E10C949E12FC01E60F61
:102A9000F71F9C0122503109E217F30708F49DC08B
:102AA000D901CD91DC911197C617D70798F0C530A1
:102AB000D10530F3CE0104978617970708F3C61B9C
:102AC000D70B2297C193D1936D937C93CF010E9432
:102AD000AA14D6CF5B01AC1ABD0A4C018C0E9D1E08
:102AE000A0910203B0910303512C412CF12CE12C55
:102AF000109731F580910003909101038815990595
:102B000009F05CC04616570608F058C080910E01C7
:102B100090910F01009741F48DB79EB7409112013B
:102B200050911301841B950BE817F90708F055C065
:102B3000F0930103E0930003F90171836083A0CF58
:102B40008D919C91119712966C90129713967C9090
:102B50001397A815B90559F56C0142E0C40ED11CB4
:102B6000CA14DB0420F1AC014A195B09DA011296A0
:102B7000159780F06282738251834083D9016D93EF
:102B80007C93E114F10471F0D7011396FC93EE935A
:102B9000129776CF22968C0F9D1FF9019183808327
:102BA000F301EFCFF0930303E093020369CF4816DC
:102BB000590608F42C017D01D3019ACFCB010E9464
:102BC0000E147C01009749F0AE01B8010E94F01587
:102BD000C8010E94AA14870153CF10E000E050CF33
:102BE000FB01DC0102C001900D9241505040D8F72A
:102BF0000895FB01DC018D91019080190110D9F33A
:102C0000990B0895FB01DC0101900D920020E1F782
:102C1000089510E0CDEFD0E004C0FE010E9408143A
:102C20002196CE3FD107C9F7F894FFCF03000000EB
:102C30000003200000003775D54100000403800028
:102C40000000000064028401B101B1022202C0014F
:102C500014020D0A0051554555453A206572726FB0
:102C6000722064756520746F20756E646573697277
:102C700061626C652073697A6520666F7220717578
:102C80006575652073697A652E0051554555453A3D
:102C900020696E73756666696369656E74206D651B
:102CA0006D6F727920746F20696E697469616C69E7
:102CB0007A652074656D706F7261727920717565C7
:102CC00075652E00544152410043414C004D005562
:102CD000500051554555453A2063616E2774207068
:102CE0006F70206974656D2066726F6D20717565F7
:102CF00075653A20717565756520697320656D701D
:042D000074792E00B4
:107E0000112484B714BE81FFF0D085E080938100F7
:107E100082E08093C00088E18093C10086E0809377
:107E2000C20080E18093C4008EE0C9D0259A86E02C
:107E300020E33CEF91E0309385002093840096BBD3
:107E4000B09BFECF1D9AA8958150A9F7CC24DD24C4
:107E500088248394B5E0AB2EA1E19A2EF3E0BF2EE7
:107E6000A2D0813461F49FD0082FAFD0023811F036
:107E7000013811F484E001C083E08DD089C08234E0
:107E800011F484E103C0853419F485E0A6D080C0E4
:107E9000853579F488D0E82EFF2485D0082F10E0AE
:107EA000102F00270E291F29000F111F8ED06801E7
:107EB0006FC0863521F484E090D080E0DECF843638
:107EC00009F040C070D06FD0082F6DD080E0C81688
:107ED00080E7D80618F4F601B7BEE895C0E0D1E017
:107EE00062D089930C17E1F7F0E0CF16F0E7DF06D8
:107EF00018F0F601B7BEE89568D007B600FCFDCFD4
:107F0000A601A0E0B1E02C9130E011968C91119780
:107F100090E0982F8827822B932B1296FA010C0160
:107F200087BEE89511244E5F5F4FF1E0A038BF0790
:107F300051F7F601A7BEE89507B600FCFDCF97BE46
:107F4000E89526C08437B1F42ED02DD0F82E2BD052
:107F50003CD0F601EF2C8F010F5F1F4F84911BD097
:107F6000EA94F801C1F70894C11CD11CFA94CF0C13
:107F7000D11C0EC0853739F428D08EE10CD085E9AC
:107F80000AD08FE07ACF813511F488E018D01DD067
:107F900080E101D065CF982F8091C00085FFFCCF94
:107FA0009093C60008958091C00087FFFCCF809118
:107FB000C00084FD01C0A8958091C6000895E0E648
:107FC000F0E098E1908380830895EDDF803219F02E
:107FD00088E0F5DFFFCF84E1DECF1F93182FE3DFCA
:107FE0001150E9F7F2DF1F91089580E0E8DFEE27F6
:047FF000FF270994CA
:027FFE00040479
:00000001FF
