:100000000C94D5010C946A0D0C943F0D0C94140DB6
:100010000C94E90C0C94BE0C0C94930C0C94680C8E
:100020000C943D0C0C9406020C9406020C940602EF
:100030000C9406020C9406020C9406020C94060220
:100040000C9406020C94EE0E0C9406020C9406021C
:100050000C9406020C9406020C9406020C94F30B0A
:100060000C9406020C94BD0B0C94930B0C9406029A
:100070000C9406020C9406020C9406020C940602E0
:100080000C9406020C9406020C9406020C940602D0
:100090000C9406020C9406020C9406020C940602C0
:1000A0000C9406020C9406020C94950D0C94060216
:1000B0000C9406020C9406020C9406020C940602A0
:1000C0000C9406020C9406020C9406020C94060290
:1000D0000C9406020C9406020C9406020C94060280
:1000E0000C9406020C94FF030C94F5030C94DF03AC
:1000F0000C94FE020C94E2040C9455020C946402DD
:100100000C94E3030C94BA030C94C6020C944B03B6
:100110000C941F020C94CF030C94FB030C94D50396
:100120000C94C0030C94ED030C94F1030C94B802EE
:100130000C94C8030C94FA030C94D9030C94CC03CC
:100140000C94C4030C94E7030C94A8140C94D10FE2
:100150004E414E494E495459494E46CDCCCC3D0AAC
:10016000D7233C17B7D13877CC2B329595E6241F8F
:10017000B14F0A000020410000C84200401C462048
:10018000BCBE4CCA1B0E5AAEC59D7400407A10F31B
:100190005A00A0724E18090010A5D4E80000E876B5
:1001A00048170000E40B54020000CA9A3B0000000C
:1001B000E1F505000080969800000040420F000025
:1001C00000A08601000000102700000000E80300E6
:1001D0000000006400000000000A000000000001B0
:1001E00000000000002C76D888DC674F0823DFC1B0
:1001F000DFAE59E1B1B796E5E3E453C63AE651996B
:100200007696E8E6C28426EB898C9B62ED407C6F93
:10021000FCEFBC9C9F40F2BAA56FA5F490055A2A4A
:10022000F75C936B6CF9676DC11BFCE0E40D47FE56
:10023000F520E6B500D0ED902E030094357705004B
:1002400080841E080000204E0A000000C80C3333D2
:1002500033330F986E12831141EF8D2114893BE6E1
:100260005516CFFEE6DB18D1844B381BF77C1D906A
:100270001DA4BBE424203284725E228100C9F124D3
:10028000ECA1E53D2700002100240027002A002DD5
:10029000003000330001010000040107010A0100E1
:1002A000002200250028002B002E0031003400021F
:1002B000010000050108010B0100002000230026B9
:1002C0000029002C002F003200000100000301066D
:1002D00001090105050505070508080808020202CD
:1002E000020A0A08080404040401010101010101D1
:1002F000010303030303030303040707070C0C0CA8
:100300000C0C0C0C0C02020202060606060606067F
:10031000060B0B0B0B0B0B0B0B010210202008081C
:100320001020401020408002010201080402010157
:100330000204081020408080402010080402018040
:100340000402018040201008040201080402010197
:1003500002040810204080010204081020408000A0
:10036000000A0B02090C0D0E08070304010000002F
:10037000000000000000000000000000000000007D
:10038000000000000000000000000012111000003A
:10039000000000000000000000000000000000005D
:1003A000000000000000D10FA81411241FBECFEFE1
:1003B000D1E2DEBFCDBF00E00CBF24E0A0E2B3E09D
:1003C00001C01D92A53AB207E1F713E0A0E0B2E048
:1003D000EAE1FBE300E00BBF02C007900D92A03200
:1003E000B107D9F711E0C4EDD1E000E006C02197D4
:1003F0000109802FFE010E94401BC33DD10780E010
:100400000807A9F70E94D9100C947B1D0C940000DA
:1004100080917B00877F80937B0080E480937C00C9
:1004200080917A00806480937A0080917A0086FDC2
:10043000FCCF809178009091790008950895AF9253
:10044000BF92CF92DF92EF92FF920F931F93CF93C1
:10045000DF936C017B018B01040F151FEB015E0123
:10046000AE18BF08C017D10759F06991D601ED91B8
:10047000FC910190F081E02DC6011995892B79F747
:10048000C501DF91CF911F910F91FF90EF90DF9009
:10049000CF90BF90AF900895FC0144815581608159
:1004A000718187E793E00C941F02FC01538D448D0A
:1004B000252F30E0842F90E0821B930B541710F00F
:1004C000CF96089501970895FC01918D828D98171C
:1004D00061F0A28DAE0FBF2FB11D5D968C91928DF4
:1004E0009F5F9F73928F90E008958FEF9FEF089525
:1004F0002FB7F8948091730390917403A0917503C2
:10050000B09176032FBF80937F0390938003A093D5
:100510008103B093820387E793E00E94640297FF10
:1005200026C02FB7F8948091730390917403A09123
:100530007503B09176032FBF40917F0350918003E4
:100540006091810370918203841B950BA60BB70BFE
:1005500040917B0350917C0360917D0370917E03F9
:1005600084179507A607B707B0F28FEF9FEF08959E
:10057000FC01918D828D981731F0828DE80FF11D6D
:10058000858D90E008958FEF9FEF0895FC01918D88
:10059000228D892F90E0805C9F4F821B91098F7381
:1005A0009927089587E793E00E94C60221E0892BEE
:1005B00009F420E0822F0895FC01A48DA80FB92F23
:1005C000B11DA35ABF4F2C91848D90E001968F737B
:1005D0009927848FA689B7892C93A089B1898C919A
:1005E000837080648C93938D848D981306C00288E9
:1005F000F389E02D80818F7D80830895EF92FF92B3
:100600000F931F93CF93DF93EC0181E0888F9B8D35
:100610008C8D98131AC0E889F989808185FF15C0EF
:100620009FB7F894EE89FF896083E889F989808112
:100630008370806480839FBF81E090E0DF91CF91E1
:100640001F910F91FF90EF900895F62E0B8D10E003
:100650000F5F1F4F0F731127E02E8C8D8E110CC072
:100660000FB607FCFACFE889F989808185FFF5CFBD
:10067000CE010E94DC02F1CFEB8DEC0FFD2FF11DBE
:10068000E35AFF4FF0829FB7F8940B8FEA89FB89FA
:1006900080818062CFCFCF93DF93EC01888D882358
:1006A000B9F0AA89BB89E889F9898C9185FD03C0D5
:1006B000808186FD0DC00FB607FCF7CF8C9185FFBA
:1006C000F2CF808185FFEDCFCE010E94DC02E9CF21
:1006D000DF91CF91089580E090E0892B29F00E946E
:1006E000D20281110E94000080E090E0892B49F045
:1006F00080E090E0892B29F00E94000081110E9487
:10070000000080E090E0892B49F080E090E0892BA8
:1007100029F00E94000081110E94000080E090E01A
:10072000892B49F080E090E0892B29F00E9400009D
:1007300081110C94000008958150823108F05AC054
:10074000E82FF0E08827E855FC4F8F4F0C94401BB2
:10075000C803CC03BA03C003C403FA03CF03D50311
:10076000D903DF03E303E703ED03F103FA03F50322
:10077000FB03FF03809180008F77809380000895B2
:10078000809180008F7DF9CF80918000877FF5CFA9
:1007900084B58F7784BD089584B58F7DFBCF80911C
:1007A000B0008F778093B00008958091B0008F7D66
:1007B000F9CF809190008F77809390000895809179
:1007C00090008F7DF9CF80919000877FF5CF809149
:1007D000A0008F778093A00008958091A0008F7D66
:1007E000F9CF8091A000877FF5CF809120018F778E
:1007F000809320010895809120018F7DF9CF809111
:100800002001877FF5CFCF93DF93282F30E0F901C8
:10081000E15AFC4F8491F901E75EFC4FD491F90154
:10082000ED52FD4FC491CC23A1F081110E949C0395
:10083000EC2FF0E0EE0FFF1FE754FD4FA591B491B0
:10084000EC91ED2381E090E009F480E0DF91CF911D
:10085000089580E090E0FACF1F93CF93DF93282F85
:1008600030E0F901E15AFC4F8491F901E75EFC4F59
:10087000D491F901ED52FD4FC491CC23A9F0162F6C
:1008800081110E949C03EC2FF0E0EE0FFF1FE15658
:10089000FD4FA591B4918FB7F894EC91111108C058
:1008A000D095DE23DC938FBFDF91CF911F91089508
:1008B000DE2BF8CFCF93DF9390E0FC01E75EFC4F97
:1008C00024918D529D4FFC0184918823D1F090E0BA
:1008D000880F991FFC01EB57FD4FA591B491FC01C6
:1008E000E156FD4FC591D491623071F49FB7F894F1
:1008F0003C91822F809583238C93E8812E2B288333
:100900009FBFDF91CF9108958FB7F894EC912E2B74
:100910002C938FBFF6CF3FB7F89480915D039091F1
:100920005E03A0915F03B091600326B5A89B05C04C
:100930002F3F19F00196A11DB11D3FBFBA2FA92F5E
:10094000982F8827BC01CD01620F711D811D911D5B
:1009500042E0660F771F881F991F4A95D1F70895C7
:100960008F929F92AF92BF92CF92DF92EF92FF92BF
:100970004B015C010E948B046B017C010E948B0483
:100980006C197D098E099F09683E734081059105A8
:10099000A8F321E0821A9108A108B10888EEC80ED8
:1009A00083E0D81EE11CF11C81149104A104B10460
:1009B00029F7FF90EF90DF90CF90BF90AF909F907E
:1009C0008F9008950895CF92DF92EF92FF926B017E
:1009D0007C012FE632E143E85AE30E94001B18161F
:1009E00054F02FE632E143E85AEBC701B6010E940A
:1009F000AA1887FF63C080916F008D7F80936F007E
:100A000020E030E0A901C701B6010E94001B20E0F0
:100A100030E048E455E418160CF04CC0C701B601AC
:100A20000E9410199B01AC010E94EC199B01AC01C2
:100A300060E070EC8EE995E40E94581A20E030E006
:100A40004AE753E40E9410190E94CA1A7093890061
:100A5000609388008091880090918900019790931D
:100A600085008093840080916F00826080936F0086
:100A700020E030E0A901C701B6010E94001B181652
:100A800024F460E08BE00E942C0420E030E0A90117
:100A9000C701B6010E94AA1887FF04C061E08BE07D
:100AA0000E942C0460E08CE0FF90EF90DF90CF90EC
:100AB0000C942C04C701B6019058B2CF80916F00FE
:100AC0008D7F80936F0060E08AE0EACF4F925F9263
:100AD0006F927F928F929F92AF92BF92CF92DF924E
:100AE000EF92FF920F931F93CF93DF93D0E0C0E07C
:100AF000812C912C5401082F082E000C110BC82EAC
:100B0000880FDD08EE08FF08C017D10724F564E15F
:100B100070E080E090E00E94B0040E940802BC01F6
:100B2000990F880B990B0E94B1182B013C01C7014A
:100B3000B6010E94B1189B01AC01C301B2010E9431
:100B4000581A9B01AC01C501B4010E94EC194B017C
:100B50005C012196D9CFA501940160916103709148
:100B6000620380916303909164030E94EC19609387
:100B70006103709362038093630390936403DF9136
:100B8000CF911F910F91FF90EF90DF90CF90BF908A
:100B9000AF909F908F907F906F905F904F9008954F
:100BA000FB0101900020E9F73197AF01461B570B7D
:100BB000DC01ED91FC910280F381E02D19948F927C
:100BC0009F92AF92BF920F931F93CF93DF93CDB7B6
:100BD000DEB7A1970FB6F894DEBF0FBECDBF19A246
:100BE000423008F44AE08E010F5D1F4F842E912C95
:100BF000B12CA12CA50194010E941E1BE62FB90166
:100C0000CA01EA3004F5E05DD801EE938D01232B93
:100C1000242B252B79F790E080E0109729F0BD0177
:100C200087E793E00E94D005A1960FB6F894DEBF47
:100C30000FBECDBFDF91CF911F910F91BF90AF90AD
:100C40009F908F900895E95CDFCF4F925F926F92F3
:100C50007F928F929F92AF92BF92CF92DF92EF924C
:100C6000FF920F931F93CF936B017C01742EAC0105
:100C70009B010E94051B6CE272E0811126C04601B7
:100C80005701E894B7F82FEF3FEF4FE75FE7C50153
:100C9000B4010E94051B81110CC02FEF3FEF4FE7FD
:100CA0005FE7C501B4010E94AA1860E372E018165C
:100CB00064F02FEF3FEF4FE75FE4C701B6010E94FA
:100CC000001B1816ACF464E372E087E793E0CF9161
:100CD0001F910F91FF90EF90DF90CF90BF90AF905A
:100CE0009F908F907F906F905F904F900C94D00565
:100CF0002FEF3FEF4FE75FECC701B6010E94AA1844
:100D000087FDE1CF20E030E0A901C701B6010E94D4
:100D1000AA1810E000E087FF0AC06DE287E793E0C1
:100D20000E94FE028C01F7FAF094F7F8F094C0E00C
:100D300060E070E080E09FE37C1641F020E030E06E
:100D400040E251E40E94581ACF5FF6CFA701960106
:100D50000E94EC192B013C010E94D11A4B015C014D
:100D60004AE00E94DF057C01E00EF11ECC23C1F1B8
:100D7000C501B4010E94AF189B01AC01C301B201CF
:100D80000E94EB194B015C016EE287E793E00E9441
:100D9000FE02E80EF91EC15018F120E030E040E2FA
:100DA00051E4C501B4010E9410192B013C010E94BD
:100DB000D11A4B01B12CA12C4AE0C501B4010E940B
:100DC000DF05E80EF91EC501B4010E94AF189B01B2
:100DD000AC01C301B2010E94EB194B015C01DBCFF6
:100DE000C701CF911F910F91FF90EF90DF90CF90AF
:100DF000BF90AF909F908F907F906F905F904F903B
:100E00000895EC01009739F00E94D00568E372E084
:100E1000CE010E94D0050E94B80FFC018081918113
:100E2000009711F00C94D61460E070E0CB010895A7
:100E3000FC0124813581232B39F421E0FB018081E1
:100E4000882349F020E007C0808191810E946B1DBA
:100E500021E0892BB9F7822F08950F931F93CF9329
:100E6000DF938C01EB01FC01808191810097E1F01F
:100E70006881798161157105A9F0428153812C81C6
:100E80003D814217530770F00E94741D8C819D8133
:100E9000F801958384831D821C82DF91CF911F917D
:100EA0000F9108950E94F81B88819981F801918320
:100EB00080838A819B81938382838C819D819583AA
:100EC0008483198218821B821A82E5CFCF93DF9325
:100ED000EC0188819981009711F00E94F81B19821A
:100EE00018821D821C821B821A82DF91CF91089585
:100EF000FC0180819181009711F00C94F81B0895FA
:100F0000EF92FF920F931F93CF93DF93EC017C013D
:100F10008FE1E80EF11C8E01055A1F4FE016F10615
:100F200031F006501109C8010E947807F7CFCE01B1
:100F300049960E947807CE0106960E947807CE0156
:100F4000DF91CF911F910F91FF90EF900C94780754
:100F50008F929F92AF92BF92CF92DF92EF92FF92C9
:100F60000F931F93CF93DF93EC018B016BE372E040
:100F70001016110694F5C801880F991F880F991F44
:100F80000E945C1B7C01009731F18E809F805C0188
:100F9000CA80DB8030E020E02815390514F588850B
:100FA0009985820F931F6C817D810E940A1BFC0131
:100FB000EE0FFF1FEE0FFF1FEC0DFD1D80819181D5
:100FC000A281B381F50181939193A193B1935F01C4
:100FD0002F5F3F4FE1CF60E772E0888199810E94E7
:100FE0000107C6010E94F81BFB82EA821986188657
:100FF0008E819F819B878A871D830C83DF91CF9190
:101000001F910F91FF90EF90DF90CF90BF90AF9026
:101010009F908F9008958F929F92AF92BF92CF92A0
:10102000DF92EF92FF920F931F93CF93DF93EC0128
:101030004A015B018C010A5F1F4F2E893F8988811D
:101040009981281739070CF450C08C859D8500972D
:1010500031F46AEA72E08E819F810E9401076885FF
:1010600079854E855F859A012F5F3F4F3F872E8799
:10107000440F551F440F551F460F571FFA01C080DC
:10108000D180E280F38001979D878C876A857B857C
:101090002617370711F41F861E860097A9F09B01BB
:1010A00077FF02C02D5F3F4F3595279535952795E2
:1010B000281739074CF077FF02C06F5F7F4F759597
:1010C0006795C8010E94A807A70196016A897B89D4
:1010D0008C899D890E94EB196A8B7B8B8C8B9D8BF5
:1010E0008E899F8901979F8B8E8B68817981072ECE
:1010F000000C880B990B0E94B1189B01AC01C50133
:10110000B4010E94581A6B017C016C857D858A852B
:101110009B856817790729F4660F771FC8010E941D
:10112000A80748855985888999899C012F5F3F4F79
:10113000398B288B880F991F880F991F840F951F53
:10114000FC01C082D182E282F3828A859B852817C6
:10115000390711F4198A188A8C859D8501969D8717
:101160008C8768817981072E000C880B990B0E946F
:10117000B1189B01AC01C501B4010E94581A2A891B
:101180003B894C895D890E94EC196A8B7B8B8C8B27
:101190009D8B2E893F892F5F3F4F3F8B2E8B8A80FF
:1011A0009B80AC80BD80A50194010E94581A6B0100
:1011B0007C0120E030E0A9010E94001B20E030E02B
:1011C00040E05FE387FD1BC0C701B6010E94EC1938
:1011D0000E94CA1A0E94B1189B01AC01C501B4015A
:1011E0000E941019DF91CF911F910F91FF90EF9006
:1011F000DF90CF90BF90AF909F908F900895C701E0
:10120000B6010E94EB19E4CF0F931F93CF93DF93A6
:10121000EC0188819981009759F02A813B8126173A
:10122000370730F081E0DF91CF911F910F91089542
:101230008B016F5F7F4F0E94811C009759F099834B
:1012400088831B830A832C813D81232B59F7FC0162
:101250001082E8CF80E0E7CFEF92FF920F931F93C9
:10126000CF93DF936115710541F480E0DF91CF9159
:101270001F910F91FF90EF90089541155105B1F026
:101280007B01EC010C811D81040F151FB8010E9428
:101290000409882351F3288139818C819D81B7010C
:1012A000820F931F0E94741D1D830C8381E0DECF8B
:1012B000CF93DF931F921F92CDB7DEB769831A8257
:1012C00041E050E0BE016F5F7F4F0E942C090F90FC
:1012D0000F90DF91CF910895FB0101900020E9F775
:1012E0003197AF01461B570B0C942C09FB0144812D
:1012F0005581608171810C942C09EF92FF920F93BC
:101300001F93CF93DF93EC017B018A01BA010E9406
:10131000040981110BC0CE010E946607CE01DF9146
:10132000CF911F910F91FF90EF9008951D830C8333
:10133000B701888199810E94741DF0CFCF93DF930C
:10134000EC01FB018617970749F0608171816115F7
:10135000710541F0448155810E947D09CE01DF91E4
:10136000CF9108950E946607F9CFFC011182108287
:1013700013821282158214820C949E09FC01118240
:1013800010821382128215821482FB0101900020C8
:10139000E9F73197AF01461B570B0C947D09DF929B
:1013A000EF92FF920F931F93CF93DF938C017B01FA
:1013B000D42E6AE372E00E94BE09D0E0C0E0F701DB
:1013C00084819581C817D90788F48081918100971D
:1013D00059F08C0F9D1FFC016081D61619F0C801D1
:1013E0000E9458092196EBCF60E0F9CFC801DF9148
:1013F000CF911F910F91FF90EF90DF9008958F9202
:101400009F92AF92BF92CF92DF92EF92FF920F9393
:101410001F93CF93DF93CDB7DEB72C970FB6F89419
:10142000DEBF0FBECDBF7C01BC01CE0107960E947E
:10143000B5094BE5BE01695F7F4FCE0101960E9461
:10144000CF09BE016F5F7F4FC7010E942D07CE01FC
:1014500001960E947807CE0107960E947807B7018F
:10146000CE0107960E94B5094DE5BE01695F7F4F29
:10147000CE0101960E94CF09BE016F5F7F4FC70169
:101480000E942D07CE0101960E947807CE01079693
:101490000E94780790905C04F701A480B5806AE30D
:1014A00072E0CE0101960E94BE09D12CC12C10E041
:1014B00000E086E0882ECA14DB04A4F5F7018481DD
:1014C0009581C816D90690F480819181009771F0BA
:1014D0008C0D9D1DFC016081961651F0CE01019688
:1014E0000E945809FFEFCF1ADF0AE5CF60E0F4CF82
:1014F0000A301105BCF7809EC001819E900D112419
:10150000BE016F5F7F4F8D599B4F0E949E090F5FF9
:101510001F4F50E040E06AE372E0CE0101960E9466
:101520007D09E0CF6AE372E0CE0101960E941807C0
:10153000811112C00A3011057CF426E0209FC00101
:10154000219F900D1124BE016F5F7F4F8D599B4FDE
:101550000E949E090F5F1F4FCE0101960E947807DF
:1015600010935904009358040230110509F448C03F
:10157000B4F401301105E9F12C960FB6F894DEBFF2
:101580000FBECDBFDF91CF911F910F91FF90EF90D4
:10159000DF90CF90BF90AF909F908F9008950330D1
:1015A000110509F440C00430110531F763E674E019
:1015B00084E494E00E949E096CED72E084E494E07F
:1015C0000E9418078823C1F269E674E08AE494E077
:1015D0000E949E098FE694E00E940D0760935004DC
:1015E00070935104809352049093530485E794E0E0
:1015F00051C063E674E084E494E00E949E09BCCF8D
:1016000063E674E084E494E00E949E0989E694E035
:101610000E940D076093500470935104809352040C
:1016200090935304A9CF63E674E084E494E00E94AD
:101630009E096CED72E084E494E00E941807882310
:1016400091F069E674E08AE494E00E949E098FE6D6
:1016500094E00E940D0760935004709351048093AE
:101660005204909353046EED72E084E494E00E947F
:101670001807882309F480CF89E694E00E940D07BB
:1016800060935004709351048093520490935304D8
:101690008FE694E00E940D07609354047093550404
:1016A000809356049093570467CFEF92FF920F9365
:1016B0001F93CF93DF93CDB7DEB7A1970FB6F89402
:1016C000DEBF0FBECDBF7C01CB01BA01F701118295
:1016D0001082138212821582148242E0420F8E0120
:1016E0000F5F1F4F0E94B8140097C9F0FC010190D2
:1016F0000020E9F73197AF01481B590BBC01C70126
:101700000E947D09A1960FB6F894DEBF0FBECDBF33
:10171000DF91CF911F910F91FF90EF900895C70136
:101720000E946607EFCF1F920F920FB60F921124FF
:101730000BB60F922F933F934F935F936F937F93CB
:101740008F939F93AF93BF93EF93FF9387E793E0BC
:101750000E94DC02FF91EF91BF91AF919F918F9119
:101760007F916F915F914F913F912F910F900BBEA1
:101770000F900FBE0F901F9018951F920F920FB6EB
:101780000F9211240BB60F922F938F939F93EF9389
:10179000FF93E0918703F09188038081E0918D03AE
:1017A000F0918E0382FD1DC09081809190038F5F28
:1017B0008F7320919103821741F0E0919003F0E044
:1017C000E958FC4F958F80939003FF91EF919F9183
:1017D0008F912F910F900BBE0F900FBE0F901F9007
:1017E00018958081F2CF1F920F920FB60F9211249D
:1017F0002F933F938F939F93AF93BF9380917303E6
:1018000090917403A0917503B091760330915C03BD
:1018100023E0230F2D3758F50196A11DB11D20930C
:101820005C038093730390937403A0937503B09348
:10183000760380915D0390915E03A0915F03B09168
:1018400060030196A11DB11D80935D0390935E031B
:10185000A0935F03B0936003BF91AF919F918F916D
:101860003F912F910F900FBE0F901F90189526E873
:10187000230F0296A11DB11DD2CF1F920F920FB65A
:101880000F9211240BB60F922F933F934F935F93B8
:101890006F937F938F939F93AF93BF93EF93FF9338
:1018A000E0910E02F0910F021995FF91EF91BF9117
:1018B000AF919F918F917F916F915F914F913F91E8
:1018C0002F910F900BBE0F900FBE0F901F90189589
:1018D0001F920F920FB60F9211240BB60F922F93F7
:1018E0003F934F935F936F937F938F939F93AF93A8
:1018F000BF93EF93FF93E0910C02F0910D021995C5
:10190000FF91EF91BF91AF919F918F917F916F91D7
:101910005F914F913F912F910F900BBE0F900FBE93
:101920000F901F9018951F920F920FB60F921124CF
:101930000BB60F922F933F934F935F936F937F93C9
:101940008F939F93AF93BF93EF93FF93E091020226
:10195000F09103021995FF91EF91BF91AF919F9183
:101960008F917F916F915F914F913F912F910F9048
:101970000BBE0F900FBE0F901F9018951F920F92E5
:101980000FB60F9211240BB60F922F933F934F93E4
:101990005F936F937F938F939F93AF93BF93EF93D7
:1019A000FF93E0910002F09101021995FF91EF91F0
:1019B000BF91AF919F918F917F916F915F914F9167
:1019C0003F912F910F900BBE0F900FBE0F901F9065
:1019D00018951F920F920FB60F9211240BB60F920B
:1019E0002F933F934F935F936F937F938F939F9327
:1019F000AF93BF93EF93FF93E0910A02F0910B0234
:101A00001995FF91EF91BF91AF919F918F917F9128
:101A10006F915F914F913F912F910F900BBE0F905F
:101A20000FBE0F901F9018951F920F920FB60F9236
:101A300011240BB60F922F933F934F935F936F93A5
:101A40007F938F939F93AF93BF93EF93FF93E09117
:101A50000802F09109021995FF91EF91BF91AF91A2
:101A60009F918F917F916F915F914F913F912F91B6
:101A70000F900BBE0F900FBE0F901F9018951F92E6
:101A80000F920FB60F9211240BB60F922F933F9324
:101A90004F935F936F937F938F939F93AF93BF9376
:101AA000EF93FF93E0910602F09107021995FF91E1
:101AB000EF91BF91AF919F918F917F916F915F91C6
:101AC0004F913F912F910F900BBE0F900FBE0F9033
:101AD0001F9018951F920F920FB60F9211240BB6FC
:101AE0000F922F933F934F935F936F937F938F93B7
:101AF0009F93AF93BF93EF93FF93E0910402F09114
:101B000005021995FF91EF91BF91AF919F918F9130
:101B10007F916F915F914F913F912F910F900BBEED
:101B20000F900FBE0F901F9018951F920F920FB637
:101B30000F9211240BB60F92CF92DF92EF92FF9289
:101B40002F933F934F935F936F937F938F939F93C5
:101B5000AF93BF93EF93FF93CF93DF93CDB7DEB7F0
:101B60002C97DEBFCDBF6AE372E0CE0107960E94DC
:101B7000BE090E940802BC01990F880B990B0E94B4
:101B8000B118AB01BC018CE294E00E940B08AB01E0
:101B9000BC0184E194E00E940B08609358037093A9
:101BA000590380935A0390935B032FB7F894609185
:101BB00073037091740380917503909176032FBF26
:101BC000C0906F03D0907003E0907103F0907203A7
:101BD0006C197D098E099F090E94AF1820E030E042
:101BE0004AE754E40E94581A6B017C0169E073E0F3
:101BF000CE0107960E946C094091580350915903F9
:101C000060915A0370915B0321E0CE0101960E941E
:101C1000550BBE016F5F7F4FCE0107960E9476097C
:101C2000CE0101960E94780780916F039091700316
:101C3000A0917103B0917203181619061A061B06BB
:101C4000C4F469EF72E0CE0107960E946C0923E0AC
:101C5000B701A601CE0101960E94550BBE016F5F30
:101C60007F4FCE0107960E947609CE0101960E9411
:101C700078076BEF72E0CE0107960E946C0961E273
:101C8000CE0107960E9458096DE073E0CE010796D9
:101C90000E946C0940915403509155036091560382
:101CA0007091570321E0CE0101960E94550BBE01B1
:101CB0006F5F7F4FCE0107960E947609CE01019695
:101CC0000E94780780916F0390917003A091710337
:101CD000B0917203181619061A061B06C4F469EFB0
:101CE00072E0CE0107960E946C0923E0B701A601BD
:101CF000CE0101960E94550BBE016F5F7F4FCE0152
:101D000007960E947609CE0101960E9478076BEF34
:101D100072E0CE0107960E946C0961E2CE0107963F
:101D20000E945809C0905803D0905903E0905A037C
:101D3000F0905B0320E030E0A901C701B6010E94EA
:101D4000001B1816ACF520E030E84BE355E4C70162
:101D5000B6010E94001B1816ACF1CE0107960E9436
:101D60004C02CE0107960E9478071092A5001092AF
:101D7000A4002C960FB6F894DEBF0FBECDBFDF9146
:101D8000CF91FF91EF91BF91AF919F918F917F91F3
:101D90006F915F914F913F912F91FF90EF90DF9066
:101DA000CF900F900BBE0F900FBE0F901F90189505
:101DB00020E030E84BE355ECC701B6010E94AA18B9
:101DC00087FFCBCF60E070E0CB010E94E30461E1CC
:101DD00073E087E793E00E94D005BFCF1F920F9278
:101DE0000FB60F9211240BB60F922F933F934F9380
:101DF0005F936F937F938F939F93AF93BF93CF9393
:101E0000DF93EF93FF9310928500109284008AE095
:101E10000E94030461E068278AE00E942C048AE0A3
:101E20000E940304892B01F58BE00E940304892B97
:101E300009F09BC081E090E0092E000CAA0BBB0BBF
:101E4000409150035091510360915203709153039C
:101E5000840F951FA61FB71F8093500390935103C3
:101E6000A0935203B09353036091500370915103B8
:101E700080915203909153030E94B11820E030E00A
:101E800048E455E40E94581A2CE53FE842EA50E441
:101E90000E94101960935403709355038093560366
:101EA0009093570320916E032223E9F0C1E0D0E024
:101EB00020916A0330916B0340916C0350916D0344
:101EC0000E94001B181614F0D0E0C0E08BE00E94C6
:101ED0000304C817D90739F060E070E0CB010E9415
:101EE000E30410926E0380916903882349F12091E5
:101EF00065033091660340916703509168036091D8
:101F000058037091590380915A0390915B030E948A
:101F1000001B87FD15C060E070E0CB010E94E30468
:101F200010925003109251031092520310925303D7
:101F30001092690368E173E087E793E00E94D0059F
:101F4000FF91EF91DF91CF91BF91AF919F918F91D1
:101F50007F916F915F914F913F912F910F900BBEA9
:101F60000F900FBE0F901F9018958FEF9FEF64CFCB
:101F700061E08DE00E945A0461E08DE00E942C0433
:101F80006AEF70E080E090E00E94B00460E08DE0D5
:101F90000E942C046AEF70E080E090E00E94B004A0
:101FA000EBCFCF93DF9310927A031092790388EEF0
:101FB00093E0A0E0B0E080937B0390937C03A09338
:101FC0007D03B0937E038EE192E09093780380933B
:101FD000770385EC90E0909384038093830384ECF3
:101FE00090E0909386038093850380EC90E090933B
:101FF00088038093870381EC90E090938A03809319
:10200000890382EC90E090938C0380938B0386ECA1
:1020100090E090938E0380938D0310929003109222
:10202000910310929203109293036AE372E084E4A6
:1020300094E00E94BE096AE372E08AE494E00E94A0
:10204000BE09109250041092510410925204109242
:102050005304109254041092550410925604109296
:102060005704109259041092580482E390E0909320
:102070005B0480935A048BE380935C046AE372E010
:102080008DE594E00E94BE09D0E0C0E06AE372E012
:10209000CE018D599B4F0E94BE092696CC33D105A7
:1020A000A9F7109237041092360410923904109256
:1020B000380410923B0410923A0410923D0410929E
:1020C0003C04109233041092320488E090E00E94A5
:1020D0005C1B9093350480933404892B11F40E9487
:1020E000B80FC2E0D0E0D0933704C093360488E044
:1020F00090E090932D0480932C048AE097EDA3E266
:10210000BCE380932E0490932F04A0933004B093EB
:10211000310410923E0410923F0410924004109239
:102120004104109243041092420410921F04109232
:102130001E04109221041092200410922304109285
:102140002204109225041092240410921B04109271
:102150001A0488E090E00E945C1B90931D04809319
:102160001C04892B09F4BBCFD0931F04C0931E0419
:1021700080E190E090931504809314048DEC9CEC26
:10218000ACECBDE38093160490931704A09318045D
:10219000B093190410922604109227041092280478
:1021A0001092290410922B0410922A04DF91CF91EF
:1021B0000895CF93DF93CDB7DEB7CD56D1090FB6D3
:1021C000F894DEBF0FBECDBF789484B5826084BD25
:1021D00084B5816084BD85B5826085BD85B581602B
:1021E00085BD80916E00816080936E0010928100A9
:1021F0008091810082608093810080918100816064
:102200008093810080918000816080938000809124
:10221000B10084608093B1008091B00081608093B0
:10222000B000809191008260809391008091910034
:1022300081608093910080919000816080939000F4
:102240008091A10082608093A1008091A1008160B3
:102250008093A1008091A00081608093A000809174
:10226000210182608093210180912101816080930E
:1022700021018091200181608093200180917A006A
:10228000846080937A0080917A00826080937A00E3
:1022900080917A00816080937A0080917A008068D2
:1022A00080937A001092C100E0918703F091880337
:1022B00082E08083E0918303F09184031082E091B7
:1022C0008503F091860380E1808310928F03E09173
:1022D0008B03F0918C0386E08083E0918903F09179
:1022E0008A03808180618083E0918903F0918A0371
:1022F000808188608083E0918903F0918A038081E6
:1023000080688083E0918903F0918A0380818F7DCA
:10231000808361E082E30E945A0461E08AE00E94C7
:102320005A0461E08BE00E945A0461E08CE00E9454
:102330005A0460E08AE00E942C0460E08BE00E9476
:102340002C0460E08CE00E942C04109280008091AC
:102350008100816080938100809181008260809300
:102360008100809181008B7F809381001092850095
:1023700010928400109289001092880062E086E337
:102380000E945A0410926103109262031092630338
:102390001092640384E60E9466051092A0001092D9
:1023A000A1008091A1008E7F8093A1008091A10067
:1023B0008D7F8093A1008091A10084608093A10013
:1023C00080E792E09093A9008093A8001092A50066
:1023D0001092A4008091720082608093720062E08B
:1023E00086E00E945A0462E087E00E945A04BB24FF
:1023F000B39487E793E00E94C602892B09F49CC23C
:102400006AE372E0CE0188599F4F0E94BE090E9484
:10241000780297FD0AC08132910539F0682FCE010C
:1024200088599F4F0E945809F2CFBE0168597F4FCB
:10243000CE0101960E94B509CE0101960E94FF09C6
:10244000CE0101960E94780764E474E0CE01019603
:102450000E94B5096AE474E0CE0107960E94B509AE
:102460008091500490915104A0915204B091530472
:102470008D879E87AF87B88B8091540490915504C7
:10248000A0915604B0915704898B9A8BAB8BBC8B6F
:1024900080915804909159049E8B8D8B80915A04A1
:1024A00090915B04988F8F8B80915C04898F6DE590
:1024B00074E0CE014A960E94B5090FE110E0B80120
:1024C0006C5B7B4F81E090E08C0F9D1F800F911F14
:1024D0000E94B5090A5F1F4F0B35110581F78D89E1
:1024E0009E898230910509F49AC00CF044C001978E
:1024F00009F46DC0CE0101960E94800761E2CE0111
:1025000088599F4F0E945809CE0188599F4F0E94B9
:102510004C02CE0188599F4F0E94780787E00E94A5
:102520000304892B69F480916F008D7F80936F0085
:1025300060E08AE00E942C0461E08CE00E942C04A0
:1025400086E00E940304892B69F480916F008D7FDF
:1025500080936F0060E08AE00E942C0461E08CE0D0
:102560000E942C046AE070E080E090E00E94B004D9
:102570000E946B033ECF8330910509F4FDC00497A0
:1025800009F0B8CF6CED72E0CE0101960E941807F9
:10259000882309F491C161E073E0CE0107960E949F
:1025A0001807882309F45FC1CD84DE84EF84F8889E
:1025B00020E030E0A901C701B6010E94001B1816F7
:1025C0000CF468C1F7FAF094F7F8F09463C164EE84
:1025D00072E0CE0101960E941807882319F084E664
:1025E0000E94660569EE72E0CE0101960E9418070E
:1025F000882309F47FCF2FB7F894809173039091CB
:102600007403A0917503B09176032FBF80936F037D
:1026100090937003A0937103B09372036BCF61EF3B
:1026200072E0CE0101960E941807882309F48BC03E
:102630004D845E846F8478880FE010E0C12CD12C2B
:10264000760164E170E080E090E00E94B0040E94B6
:102650000802BC01990F880B990B0E94B11820E069
:1026600030E040E751E40E94581A9B01AC01C701D9
:10267000B6010E94EC196B017C010150110909F7A8
:10268000A301920150580E94581A209110023091D3
:10269000110240911202509113020E9410196B0115
:1026A0007C01C0921002D0921102E0921202F092CC
:1026B000130284E60E946605A30192016091610302
:1026C0007091620380916303909164030E94EC19FE
:1026D0006093610370936203809363039093640338
:1026E00065EF72E0CE018E599F4F0E94BE0927E030
:1026F000B701A601CE01845A9F4F0E94550BBE011F
:10270000645A7F4FCE018E599F4F0E947609CE01A9
:10271000845A9F4F0E9478076BEF72E0CE018E596A
:102720009F4F0E946C0961E2CE018E599F4F0E941B
:102730005809CE018E599F4F0E944C02CE018E59EE
:102740009F4F0E9478076DEF72E0CE0101960E94C4
:102750001807882309F4CECE8D859E85AF85B8896C
:102760008093100290931102A0931202B09313026F
:1027700082E30E946605BECE6CED72E0CE0101964A
:102780000E9418078823B1F161E073E0CE0107963B
:102790000E941807882391F0CD84DE84EF84F888A6
:1027A00020E030E0A901C701B6010E94001B181605
:1027B000DCF0F7FAF094F7F8F09416C064E073E0F8
:1027C000CE0107960E941807882309F440C0CD84E3
:1027D000DE84EF84F88820E030E0A901C701B6016B
:1027E0000E94001B18162CF3C701B6010E94E304D7
:1027F00010926E036EED72E0CE0101960E941807F2
:10280000882309F477CE89899A89AB89BC89CD84DC
:10281000DE84EF84F888B092690380936503909317
:102820006603A0936703B093680320E030E0A9013A
:10283000C701B6010E94001B181624F4F7FAF094A1
:10284000F7F8F094C701B6010E94E30453CE67E0A5
:1028500073E0CE0107960E941807882349F260E0D2
:1028600070E0CB01C3CF64E073E0CE0107960E9415
:102870001807882309F453C0CD84DE84EF84F888D8
:1028800020E030E0A901C701B6010E94001B181624
:102890000CF498CEC701B6010E94E304B0926E0317
:1028A00089899A89AB89BC8980936A0390936B0369
:1028B000A0936C03B0936D03CE0101960E944C026D
:1028C00068E372E087E793E00E94D0056D857E851E
:1028D0008F85988942E00E94250668E372E087E7C9
:1028E00093E00E94D00569897A898B899C8942E0AE
:1028F0000E94250668E372E087E793E00E94D00516
:1029000060916E0370E090E080E04AE00E94DF0595
:1029100068E372E087E793E00E94D005EBCD67E0C3
:1029200073E0CE0107960E941807882309F4B6CFFA
:1029300060E070E0CB01B0CF80E00E940304892BFF
:1029400009F0ECCD60E070E0CB010E94E304E6CD3D
:1029500080911C0490911D040E94F81B8091340406
:10296000909135040E94F81B84E494E00C94800755
:10297000EF920F931F93CF93DF93E80134E047FD6D
:1029800034E1042E000C550B57FF03C051954195BF
:102990005109E32E022F242FAE010E94DA14CE013A
:1029A000DF91CF911F910F91EF90089566277727C0
:1029B0000C9453168F929F92AF92BF92CF92DF9258
:1029C000EF92FF920F931F93CF93DF9300D000D02D
:1029D00000D0CDB7DEB76A01F22EB02E102FFBE388
:1029E000AF2EA01608F41BE31F5F012F27E0AE01F6
:1029F0004F5F5F4F0E94B117BC018981982F99707A
:102A0000913009F44EC09BE2E1FC04C09E2D917010
:102A1000E0FC49C05E2D5071E82FE87083FF55C07F
:102A200084E0911101C083E0EF2DE81B8F1508F0C1
:102A3000E0E0D6018E2F20E25523C9F1992329F039
:102A4000D6019C93C60101966C0196012D5F3F4F04
:102A5000E2FE33C08EE4D6018C9391E411969C93F0
:102A6000119712968C93D9018E2F90E281112AC072
:102A7000E20FF32FF11D10828EEF9FEF29960FB614
:102A8000F894DEBF0FBECDBFDF91CF911F910F91A4
:102A9000FF90EF90DF90CF90BF90AF909F908F907E
:102AA00008959DE2B7CF90E2B5CF2D93815081116B
:102AB000FCCFCE0ED11CE0E0C1CF8EE6D6018C93C8
:102AC00091E6CCCF9D938150D1CF482F447082FFA7
:102AD0003DC084E0911101C083E08F1510F4EF2D0B
:102AE000E81BD6018E2F20E2552309F1992329F006
:102AF000D6019C93C60101966C0196012D5F3F4F54
:102B0000E2FE1BC089E4D6018C938EE411968C936F
:102B1000119786E412968C93D9018E2F90E2882328
:102B200009F4A6CF9D938150FACF2D938150811146
:102B3000FCCFCE0ED11CE0E0D9CF89E6D6018C9334
:102B40008EE611968C93119786E6E4CF9B0177FF72
:102B500002C030E020E0A1E0B0E0911102C0B0E09E
:102B6000A0E0F9013196AE0FBF1F8B2C912CBB203A
:102B700009F461C05401EFEFAE1ABE0AAA0DBB1DE5
:102B8000FA161B0619F014F04F2D4A1B511188C07C
:102B9000E3FC59C07601A42FB0E2A1114FC0C40ECE
:102BA000D11C992309F45BC040E0D6011196F601CF
:102BB00090836D01552309F448C0012F060F9A81B7
:102BC000582F507184FF03C0913309F4015010163F
:102BD0000CF047C0093008F008E0EEE2FE2E5B0181
:102BE000A01AB10885019194819491082F3F320772
:102BF00029F4D601FC92F60131966F016217730732
:102C000094F1021713077CF5DB01A21BB30BAA2476
:102C1000A394B12CAC0EBD1EAA0DBB1D11968C91B8
:102C200021503109D601119628153905F4F0F60125
:102C300080836D01DBCFB12CA12CA0CFF701B19324
:102C40007F01A150AACF9111B0CFD601942F50E3AC
:102C500002C05D9391509111FCCFC40ED11C40E095
:102C6000ACCF01E0BACF80E3DBCF6217730731F45A
:102C7000963388F4953311F4552369F0F601808377
:102C8000FD01842F90E2811108C0A40FB11D1C9298
:102C900090E080E0F3CE81E3F1CF91938150F3CFC8
:102CA000911183CF8ACF8F929F92AF92BF92CF9292
:102CB000DF92EF92FF920F931F93CF93DF935C010C
:102CC0007B016115710519F0DB018D939C938501E2
:102CD0000F5F1F4FF501D0818D2F90E00E94891862
:102CE0006C01892BB9F5DD32B9F50F5F1F4FD501A6
:102CF0001196DC91C1E05801F1E0AF1AB10843E050
:102D000050E068E571E0C5010E949218892B69F5D1
:102D1000680182E0C80ED11C45E050E063E571E037
:102D2000C6010E949218892B21F4680197E0C90E10
:102D3000D11CE114F10419F0D701CD92DC9260E0CE
:102D400070E080E89FEFC111FFC060E070E080E8B4
:102D50009FE7FAC05801BBCFDB3229F485010E5F33
:102D60001F4FF501D181C0E0C6CF43E050E060E5E0
:102D700071E0C5010E949218892BE9F0F80110E07A
:102D800000E020E030E0A9015F01B0ED8B2E8D0E58
:102D900089E08815C8F19C2E689491F88C2F887072
:102DA000C2FF16C0811102C00F5F1F4F3196D501BF
:102DB000DC91C92DE9CFE114F10429F00E5F1F4F1A
:102DC000F7011183008360E070E080EC9FE7BCC0F6
:102DD000882311F001501109A5E0B0E00E94D1193B
:102DE0009B01AC01220F331F441F551F280D311DBD
:102DF000411D511D283999E93907490799E15907BA
:102E0000A8F2C6609C2ED2CFAEEF8A1206C0C3FDD8
:102E10003CC09C2E689493F8C9CFDF7DD534A9F5CA
:102E200080818D3239F4C061DF011296818162E0C8
:102E300070E006C0DF018B32C1F3119661E070E0F3
:102E400080535D01A61AB70A8A30F8F4E0E8CE167E
:102E5000ECE0DE065CF4B601660F771F660F771FA5
:102E6000C60ED71ECC0CDD1CC80ED11C5D01FFEFB9
:102E7000AF1ABF0A8C9180538A30A8F1C4FF03C0F7
:102E8000D194C194D1080C0D1D1DC1FF09C0E114DE
:102E9000F10431F081E0A81AB108D701AD92BC92DB
:102EA000CA01B9010E94AF18C370C33009F4905829
:102EB0004B015C0120E030E0A9010E94AA188823A0
:102EC00009F440C0C7E8D1E017FF05C0119501958E
:102ED0001109CFE6D1E06E01B8E1CB1AD10880E24A
:102EE000E82EF12C0FC0D501B1CFFE01259135910F
:102EF000459154910E191F09C501B4010E94101982
:102F00004B015C01D501C4010E151F0574F7249710
:102F1000F594E794CC16DD06A9F78A2F880F8B2F3E
:102F2000881F8F3F49F020E030E0A901C501B401BE
:102F30000E94AA18811106C082E290E09093A0043A
:102F400080939F04C501B401DF91CF911F910F9130
:102F5000FF90EF90DF90CF90BF90AF909F908F90B9
:102F60000895283008F027E03327DA01990F311D42
:102F700087FD916000966105710539F432602E5F1E
:102F80003D9330E32A95E1F708959F3F30F0803874
:102F90007105610509F03C5F3C5F3D93913008F09D
:102FA0008068911DDF93CF931F930F93FF92EF9251
:102FB000192F987F9695E92F96959695E90FFF27FB
:102FC000EB51FE4F99273327EE24FF24A701E70199
:102FD00005900894079428F4360FE71EF81E491F41
:102FE000511D660F771F881F991F0694A1F7059042
:102FF000079428F4E70EF81E491F561FC11D770FCE
:10300000881F991F661F0694A1F70590079428F45E
:10301000F80E491F561FC71FD11D880F991F661F25
:10302000771F0694A1F70590079420F4490F561FC7
:10303000C71FD81F990F661F771F881F0694A9F70F
:1030400084911095177041F0D695C795579547957F
:10305000F794E7941A95C1F7EBE8F1E068941590BE
:10306000159135916591959105907FE27395E118E1
:10307000F10A430B560BC90BD009C0F7E10CF11E46
:10308000431F561FC91FD01D7EF4703311F48A955B
:10309000E6CFE894015030F0080F0AF40027021739
:1030A00008F4202F2395022F7A3328F079E37D93BB
:1030B0002A95E9F710C07D932A9589F6069497958D
:1030C0006795379517951794E118F10A430B560B3E
:1030D000C90BD00998F023957E9173957A3308F047
:1030E00070E37C932013B8F77E9170617D9330F08C
:1030F000839571E37D9370E32A95E1F71124EF90B6
:10310000FF900F911F91CF91DF91992787FD9095A7
:10311000089591110C947D19803219F089508550D1
:10312000C8F70895FB01DC014150504088F08D91B3
:1031300081341CF08B350CF4805E659161341CF099
:103140006B350CF4605E861B611171F3990B089569
:10315000881BFCCF0E94EC1808F481E00895E894E5
:1031600009C097FB3EF490958095709561957F4FCF
:103170008F4F9F4F9923A9F0F92F96E9BB2793957D
:10318000F695879577956795B795F111F8CFFAF48D
:10319000BB0F11F460FF1BC06F5F7F4F8F4F9F4FBE
:1031A00016C0882311F096E911C0772321F09EE81C
:1031B000872F762F05C0662371F096E8862F70E082
:1031C00060E02AF09A95660F771F881FDAF7880F5C
:1031D0009695879597F90895990F0008550FAA0BB2
:1031E000E0E8FEEF16161706E807F907C0F012161A
:1031F0001306E407F50798F0621B730B840B950B1D
:1032000039F40A2661F0232B242B252B21F4089571
:103210000A2609F4A140A6958FEF811D811D08950E
:103220000E9423190C9497190E94891938F00E9462
:10323000901920F0952311F00C9480190C948619A4
:1032400011240C94CB190E94A81970F3959FC1F317
:10325000950F50E0551F629FF001729FBB27F00D44
:10326000B11D639FAA27F00DB11DAA1F649F662799
:10327000B00DA11D661F829F2227B00DA11D621FE8
:10328000739FB00DA11D621F839FA00D611D221FA2
:10329000749F3327A00D611D231F849F600D211D86
:1032A000822F762F6A2F11249F5750409AF0F1F009
:1032B00088234AF0EE0FFF1FBB1F661F771F881F72
:1032C00091505040A9F79E3F510580F00C94801911
:1032D0000C94CB195F3FE4F3983ED4F38695779531
:1032E0006795B795F795E7959F5FC1F7FE2B880F18
:1032F000911D9695879597F90895992788270895A0
:1033000097F99F6780E870E060E008959FEF80EC98
:10331000089500240A94161617061806090608953B
:1033200000240A9412161306140605060895092EA1
:103330000394000C11F4882352F0BB0F40F4BF2B10
:1033400011F460FF04C06F5F7F4F8F4F9F4F089550
:1033500057FD9058440F551F59F05F3F71F0479546
:10336000880F97FB991F61F09F3F79F0879508952B
:10337000121613061406551FF2CF4695F1DF08C04A
:10338000161617061806991FF1CF86957105610567
:1033900008940895E894BB2766277727CB0197F90F
:1033A00008950E94DC19A59F900DB49F900DA49FD5
:1033B000800D911D11240895A29FB001B39FC001FB
:1033C000A39F700D811D1124911DB29F700D811D51
:1033D0001124911D08955058BB27AA270E94031A53
:1033E0000C9497190E94891938F00E94901920F0C6
:1033F00039F49F3F19F426F40C9486190EF4E095E5
:10340000E7FB0C948019E92F0E94A81958F3BA170A
:10341000620773078407950720F079F4A6F50C94EA
:10342000CA190EF4E0950B2EBA2FA02D0B01B9018D
:1034300090010C01CA01A0011124FF27591B99F02A
:10344000593F50F4503E68F11A16F040A22F232F36
:10345000342F4427585FF3CF469537952795A79586
:10346000F0405395C9F77EF41F16BA0B620B730B2D
:10347000840BBAF09150A1F0FF0FBB1F661F771F9E
:10348000881FC2F70EC0BA0F621F731F841F48F453
:10349000879577956795B795F7959E3F08F0B0CFDC
:1034A0009395880F08F09927EE0F979587950895C3
:1034B0000E946C1A0C9497190E94901958F00E945F
:1034C000891940F029F45F3F29F00C9480195111BB
:1034D0000C94CB190C9486190E94A81968F39923AF
:1034E000B1F3552391F3951B550BBB27AA27621700
:1034F0007307840738F09F5F5F4F220F331F441F0D
:10350000AA1FA9F335D00E2E3AF0E0E832D0915040
:103510005040E695001CCAF72BD0FE2F29D0660F2D
:10352000771F881FBB1F261737074807AB07B0E870
:1035300009F0BB0B802DBF01FF2793585F4F3AF076
:103540009E3F510578F00C9480190C94CB195F3F85
:10355000E4F3983ED4F3869577956795B795F795FC
:103560009F5FC9F7880F911D9695879597F90895E4
:10357000E1E0660F771F881FBB1F62177307840780
:10358000BA0720F0621B730B840BBA0BEE1F88F78F
:10359000E09508950E94D11A6894B1110C94CB194A
:1035A00008950E94B01988F09F5798F0B92F992775
:1035B000B751B0F0E1F0660F771F881F991F1AF01E
:1035C000BA95C9F714C0B13091F00E94CA19B1E0A0
:1035D00008950C94CA19672F782F8827B85F39F09F
:1035E000B93FCCF3869577956795B395D9F73EF4B7
:1035F00090958095709561957F4F8F4F9F4F08955F
:103600000E94EC1808F48FEF08950E94EC18880BC4
:10361000990B089597FB072E16F4009407D077FDB9
:1036200009D00E94481B07FC05D03EF49095819577
:103630009F4F0895709561957F4F0895A1E21A2ECE
:10364000AA1BBB1BFD010DC0AA1FBB1FEE1FFF1F46
:10365000A217B307E407F50720F0A21BB30BE40B96
:10366000F50B661F771F881F991F1A9469F76095DD
:103670007095809590959B01AC01BD01CF01089597
:10368000EE0FFF1F881F8BBF0790F691E02D199456
:10369000AA1BBB1B51E107C0AA1FBB1FA617B70778
:1036A00010F0A61BB70B881F991F5A95A9F7809594
:1036B0009095BC01CD0108950F931F93CF93DF9395
:1036C0008230910510F482E090E0E091A304F09143
:1036D000A40430E020E0B0E0A0E0309799F4211598
:1036E000310509F44AC0281B390B24303105D8F5BF
:1036F0008A819B816115710589F1FB019383828326
:10370000FE0111C040815181028113814817590780
:10371000E0F04817590799F4109761F012960C934E
:10372000129713961C933296CF01DF91CF911F9180
:103730000F9108950093A3041093A404F4CF2115CE
:10374000310551F04217530738F0A901DB019A0106
:10375000BD01DF01F801C1CFEF01F9CF9093A404BF
:103760008093A304CDCFFE01E20FF31F81939193C9
:103770002250310939832883D7CF2091A104309179
:10378000A204232B41F420911602309117023093AA
:10379000A2042093A1042091140230911502211556
:1037A000310541F42DB73EB74091180250911902EE
:1037B000241B350BE091A104F091A204E217F3075A
:1037C000A0F42E1B3F0B2817390778F0AC014E5F91
:1037D0005F4F2417350748F04E0F5F1F5093A20428
:1037E0004093A104819391939FCFF0E0E0E09CCFC0
:1037F000CF93DF930097E9F0FC0132971382128296
:10380000A091A304B091A404ED0130E020E0109752
:10381000A1F420813181820F931F2091A104309166
:10382000A2042817390709F061C0F093A204E093BD
:10383000A104DF91CF910895EA01CE17DF07E8F5E3
:103840004A815B819E0141155105B1F7E901FB8376
:10385000EA8349915991C40FD51FEC17FD0761F414
:10386000808191810296840F951FE9019983888355
:10387000828193819B838A83F0E0E0E012968D91B0
:103880009C9113970097B9F52D913C911197CD011B
:103890000296820F931F2091A1043091A204281751
:1038A000390739F6309751F51092A4041092A30409
:1038B000B093A204A093A104BCCFD383C283408160
:1038C0005181840F951FC817D90761F44E5F5F4F70
:1038D00088819981480F591F518340838A819B8138
:1038E000938382832115310509F0B0CFF093A404AE
:1038F000E093A3049ECFFD01DC01C0CF13821282AE
:10390000D7CF4F925F926F927F928F929F92AF929A
:10391000BF92CF92DF92EF92FF920F931F93CF93BC
:10392000DF938C01009799F4CB01DF91CF911F9128
:103930000F91FF90EF90DF90CF90BF90AF909F904E
:103940008F907F906F905F904F900C945C1BFC0168
:10395000E60FF71F9C0122503109E217F30708F424
:10396000AEC0D901CD91DC911197C617D70720F1D0
:10397000C530D10578F0CE0104978617970750F02F
:10398000C61BD70B2297C193D1936D937C93CF0124
:103990000E94F81BC801DF91CF911F910F91FF90FA
:1039A000EF90DF90CF90BF90AF909F908F907F90DF
:1039B0006F905F904F9008955B01AC1ABD0A4C0167
:1039C0008C0E9D1EA091A304B091A404512C412CF7
:1039D000F12CE12C109731F58091A1049091A20473
:1039E0008815990509F05CC04616570608F058C0BE
:1039F0008091140290911502009741F48DB79EB703
:103A00004091180250911902841B950BE817F90791
:103A100008F055C0F093A204E093A104F90171836A
:103A20006083B8CF8D919C91119712966C901297EC
:103A300013967C901397A815B90559F56C0142E0CF
:103A4000C40ED11CCA14DB0420F1AC014A195B0975
:103A5000DA011296159780F0628273825183408357
:103A6000D9016D937C93E114F10471F0D7011396A1
:103A7000FC93EE9312978ECF22968C0F9D1FF90127
:103A800091838083F301EFCFF093A404E093A30428
:103A900081CF4816590608F42C017D01D3019ACF35
:103AA000CB010E945C1B7C01009749F0AE01B8017C
:103AB0000E94621DC8010E94F81B87016BCF10E0B5
:103AC00000E068CFFB01DC0102C001900D92415083
:103AD0005040D8F70895FB01DC018D9101908019C9
:103AE0000110D9F3990B0895FB01DC0101900D92AF
:103AF0000020E1F7089511E0C4EDD1E000E006C038
:103B0000802FFE010E94401B2196011DC53DD1075B
:0A3B100080E00807A9F7F894FFCF42
:103B1A00E204E204E204E204E204E204E204E2046B
:103B2A00446B60430000A504800000000000FE0210
:103B3A001F0255024B03C6026402B8026E616E0090
:103B4A00696E66006F7666000D0A00515545554547
:103B5A003A206572726F722064756520746F2075E1
:103B6A006E646573697261626C652073697A652037
:103B7A00666F722071756575652073697A652E00A6
:103B8A0051554555453A20696E737566666963698C
:103B9A00656E74206D656D6F727920746F20696E21
:103BAA00697469616C697A652074656D706F726198
:103BBA0072792071756575652E0051554555453ADE
:103BCA002063616E277420706F70206974656D20A0
:103BDA0066726F6D2071756575653A2071756575C8
:103BEA006520697320656D7074792E004D005A4501
:103BFA00524152005441524100494E4954494D459F
:103C0A000043414C005B4C43433B005D004C434343
:103C1A0000555000444E0053005B4C3B005B453B53
:103C2A00005B573B4F5D21005B5A45524F5D2100B7
:00000001FF
