:100000000C94D9010C94410E0C94160E0C94EB0D2B
:100010000C94C00D0C94950D0C946A0D0C943F0D2E
:100020000C94140D0C940A020C940A020C940A020B
:100030000C940A020C940A020C940A020C940A0210
:100040000C940A020C94FF0F0C940A020C940A02FE
:100050000C940A020C940A020C940A020C94CA0C26
:100060000C940A020C94940C0C946A0C0C940A02E2
:100070000C940A020C940A020C940A020C940A02D0
:100080000C940A020C940A020C940A020C940A02C0
:100090000C940A020C940A020C940A020C940A02B0
:1000A0000C940A020C940A020C946C0E0C940A0232
:1000B0000C940A020C940A020C940A020C940A0290
:1000C0000C940A020C940A020C940A020C940A0280
:1000D0000C940A020C940A020C940A020C940A0270
:1000E0000C940A020C94E8050C94E3030C94FF03AF
:1000F0000C94BC020C9459020C9474160C94DD03FD
:100100000C94F9030C9402030C94CC030C94D003CC
:100110000C94EB030C94F1030C94D3030C94E703BD
:100120000C94F5030C94BE030C94C4030C94C80304
:100130000C944F030C9423020C940D060C940304AE
:100140000C94CA020C94CC100C94D9030C94E604C1
:100150000C94FE030C9468024E414E494E4954598A
:10016000494E46CDCCCC3D0AD7233C17B7D1387782
:10017000CC2B329595E6241FB14F0A000020410098
:1001800000C84200401C4620BCBE4CCA1B0E5AAEE2
:10019000C59D7400407A10F35A00A0724E180900F1
:1001A00010A5D4E80000E87648170000E40B5402DC
:1001B0000000CA9A3B000000E1F505000080969817
:1001C00000000040420F000000A086010000001067
:1001D0002700000000E803000000006400000000A9
:1001E000000A00000000000100000000002C76D88A
:1001F00088DC674F0823DFC1DFAE59E1B1B796E570
:10020000E3E453C63AE651997696E8E6C28426EBD3
:10021000898C9B62ED407C6FFCEFBC9C9F40F2BAE6
:10022000A56FA5F490055A2AF75C936B6CF9676D7E
:10023000C11BFCE0E40D47FEF520E6B500D0ED90D3
:100240002E0300943577050080841E080000204EA0
:100250000A000000C80C333333330F986E12831139
:1002600041EF8D2114893BE65516CFFEE6DB18D110
:10027000844B381BF77C1D901DA4BBE424203284E2
:10028000725E228100C9F124ECA1E53D2700002126
:1002900000240027002A002D003000330001010057
:1002A00000040107010A0100002200250028002B9C
:1002B000002E003100340002010000050108010B8E
:1002C00001000020002300260029002C002F00320E
:1002D00000000100000301060109010505050507ED
:1002E0000508080808020202020A0A0808040404B1
:1002F00004010101010101010103030303030303DD
:1003000003040707070C0C0C0C0C0C0C0C0202026B
:100310000206060606060606060B0B0B0B0B0B0B5E
:100320000B010210202008081020401020408002FD
:10033000010201080402010102040810204080802B
:1003400040201008040201800402018040201008AF
:100350000402010804020101020408102040800187
:100360000204081020408000000A0B02090C0D0E48
:100370000807030401000000000000000000000066
:10038000000000000000000000000000000000006D
:10039000000000121110000000000000000000002A
:1003A0000000000000000000000000000000CC1071
:1003B000741611241FBECFEFD1E2DEBFCDBF00E027
:1003C0000CBF24E0A6E3B3E001C01D92A73DB20735
:1003D000E1F713E0A0E0B2E0EEEBFEE300E00BBFDC
:1003E00002C007900D92A633B107D9F711E0C8ED0E
:1003F000D1E000E006C021970109802FFE010E9494
:10040000121DC73DD10780E00807A9F70E94BC1163
:100410000C944D1F0C94000080917B00877F80938B
:100420007B0080E480937C0080917A0080648093DC
:100430007A0080917A0086FDFCCF809178009091BF
:10044000790008950895AF92BF92CF92DF92EF9214
:10045000FF920F931F93CF93DF936C017B018B016E
:10046000040F151FEB015E01AE18BF08C017D107BE
:1004700059F06991D601ED91FC910190F081E02D48
:10048000C6011995892B79F7C501DF91CF911F918D
:100490000F91FF90EF90DF90CF90BF90AF900895B5
:1004A000FC01448155816081718181E993E00C9464
:1004B0002302FC01538D448D252F30E0842F90E0E2
:1004C000821B930B541710F0CF960895019708954F
:1004D000FC01918D828D981761F0A28DAE0FBF2F18
:1004E000B11D5D968C91928D9F5F9F73928F90E06E
:1004F00008958FEF9FEF08952FB7F89480918D03A3
:1005000090918E03A0918F03B09190032FBF8093A1
:10051000990390939A03A0939B03B0939C0381E962
:1005200093E00E94680297FF26C02FB7F89480914D
:100530008D0390918E03A0918F03B09190032FBFF4
:100540004091990350919A0360919B0370919C0391
:10055000841B950BA60BB70B409195035091960306
:10056000609197037091980384179507A607B707C2
:10057000B0F28FEF9FEF0895FC01918D828D981757
:1005800031F0828DE80FF11D858D90E008958FEF99
:100590009FEF0895FC01918D228D892F90E0805C62
:1005A0009F4F821B91098F739927089581E993E0EA
:1005B0000E94CA0221E0892B09F420E0822F0895CD
:1005C000FC01A48DA80FB92FB11DA35ABF4F2C91C8
:1005D000848D90E001968F739927848FA689B789BF
:1005E0002C93A089B1898C91837080648C93938DB6
:1005F000848D981306C00288F389E02D80818F7D59
:1006000080830895EF92FF920F931F93CF93DF9310
:10061000EC0181E0888F9B8D8C8D98131AC0E8893E
:10062000F989808185FF15C09FB7F894EE89FF890D
:100630006083E889F98980818370806480839FBFAB
:1006400081E090E0DF91CF911F910F91FF90EF90AB
:100650000895F62E0B8D10E00F5F1F4F0F731127BB
:10066000E02E8C8D8E110CC00FB607FCFACFE889F6
:10067000F989808185FFF5CFCE010E94E002F1CF9C
:10068000EB8DEC0FFD2FF11DE35AFF4FF0829FB76A
:10069000F8940B8FEA89FB8980818062CFCFCF935A
:1006A000DF93EC01888D8823B9F0AA89BB89E8899A
:1006B000F9898C9185FD03C0808186FD0DC00FB640
:1006C00007FCF7CF8C9185FFF2CF808185FFEDCFBE
:1006D000CE010E94E002E9CFDF91CF91089580E042
:1006E00090E0892B29F00E94D60281110E9400001F
:1006F00080E090E0892B49F080E090E0892B29F0A0
:100700000E94000081110E94000080E090E0892B8F
:1007100049F080E090E0892B29F00E9400008111CF
:100720000E94000080E090E0892B49F080E090E09A
:10073000892B29F00E94000081110C94000008957B
:100740008150823108F05AC0E82FF0E08827E45544
:10075000FC4F8F4F0C94121DCC03D003BE03C40377
:10076000C803FE03D303D903DD03E303E703EB036D
:10077000F103F503FE03F903FF03030480918000F6
:100780008F77809380000895809180008F7DF9CFCE
:1007900080918000877FF5CF84B58F7784BD0895E1
:1007A00084B58F7DFBCF8091B0008F778093B000B0
:1007B00008958091B0008F7DF9CF809190008F7760
:1007C000809390000895809190008F7DF9CF809163
:1007D0009000877FF5CF8091A0008F778093A00055
:1007E00008958091A0008F7DF9CF8091A000877F30
:1007F000F5CF809120018F7780932001089580911B
:1008000020018F7DF9CF80912001877FF5CFCF9395
:10081000DF93282F30E0F901E959FC4F8491F90169
:10082000EF5DFC4FD491F901E552FD4FC491CC230B
:10083000A1F081110E94A003EC2FF0E0EE0FFF1F4A
:10084000EF53FD4FA591B491EC91ED2381E090E041
:1008500009F480E0DF91CF91089580E090E0FACF35
:100860001F93CF93DF93282F30E0F901E959FC4F14
:100870008491F901EF5DFC4FD491F901E552FD4FF0
:10088000C491CC23A9F0162F81110E94A003EC2F54
:10089000F0E0EE0FFF1FE955FD4FA591B4918FB722
:1008A000F894EC91111108C0D095DE23DC938FBF32
:1008B000DF91CF911F910895DE2BF8CFCF93DF9377
:1008C00090E0FC01EF5DFC4F249185529D4FFC01AF
:1008D00084918823D1F090E0880F991FFC01E357A1
:1008E000FD4FA591B491FC01E955FD4FC591D491FF
:1008F000623071F49FB7F8943C91822F80958323E6
:100900008C93E8812E2B28839FBFDF91CF91089590
:100910008FB7F894EC912E2B2C938FBFF6CF3FB767
:10092000F89480916B0390916C03A0916D03B0914A
:100930006E0326B5A89B05C02F3F19F00196A11D97
:10094000B11D3FBFBA2FA92F982F8827BC01CD0119
:10095000620F711D811D911D42E0660F771F881F78
:10096000991F4A95D1F708958F929F92AF92BF92A7
:10097000CF92DF92EF92FF924B015C010E948F04B5
:100980006B017C010E948F046C197D098E099F09FF
:10099000683E734081059105A8F321E0821A910811
:1009A000A108B10888EEC80E83E0D81EE11CF11C36
:1009B00081149104A104B10429F7FF90EF90DF9016
:1009C000CF90BF90AF909F908F9008950895EFE6DD
:1009D000F0E080818D7F808360E08AE00E943004B7
:1009E00060E08CE00C94300420E030E04AE753E40F
:1009F0000E94E21A0E949C1C16161706C4F420914D
:100A00006F002D7F20936F007093890060938800A2
:100A10008091880090918900019790938500809340
:100A2000840080916F00826080936F0008958091B0
:100A30006F008D7FF9CFCF92DF92EF92FF926B0123
:100A40007C012FE632E143E85AE30E94D21C1816DB
:100A500054F02FE632E143E85AEBC701B6010E9499
:100A60007C1A87FF45C020E030E0A901C701B6012C
:100A70000E94D21C20E030E048E455E41816A4F5AA
:100A8000C701B6010E94E21A9B01AC010E94BE1B85
:100A90009B01AC0160E070EC8EE995E40E942A1C99
:100AA0000E94F40420E030E0A901C701B6010E94D1
:100AB000D21C181624F460E08BE00E94300420E081
:100AC00030E0A901C701B6010E947C1A87FF04C06B
:100AD00061E08BE00E94300460E08CE0FF90EF90DA
:100AE000DF90CF900C943004C701B6019058CACF64
:100AF000FF90EF90DF90CF900C94E7044F925F92BD
:100B00006F927F928F929F92AF92BF92CF92DF921D
:100B1000EF92FF920F931F93CF93DF93D0E0C0E04B
:100B2000812C912C5401082F082E000C110BC82E7B
:100B3000880FDD08EE08FF08C017D10724F564E12F
:100B400070E080E090E00E94B4040E940C02BC01BE
:100B5000990F880B990B0E94831A2B013C01C70146
:100B6000B6010E94831A9B01AC01C301B2010E942D
:100B70002A1C9B01AC01C501B4010E94BE1B4B01A4
:100B80005C012196D9CFA501940160916F0370910A
:100B9000700380917103909172030E94BE1B609359
:100BA0006F03709370038093710390937203DF91CE
:100BB000CF911F910F91FF90EF90DF90CF90BF905A
:100BC000AF909F908F907F906F905F904F9008951F
:100BD00082E10E940704892BA1F480916203909125
:100BE0006303A0916403B09165030197A109B10962
:100BF0008093620390936303A0936403B0936503AF
:100C000008958091620390916303A0916403B09171
:100C100065030196A11DB11DEBCF83E10E9407047E
:100C2000892BA1F48091620390916303A0916403E6
:100C3000B09165030196A11DB11D8093620390934D
:100C40006303A0936403B0936503089580916203E6
:100C500090916303A0916403B09165030197A1098A
:100C6000B109EBCF4F925F926F927F928F929F92DA
:100C7000AF92BF92CF92DF92EF92FF9260916203A8
:100C80007091630380916403909165030E94831ABD
:100C90002CE53FE842EA50E40E94E21A20E030E00E
:100CA00046E954E40E942A1C4B015C010E948F0417
:100CB0000E94811A20E030E04AE754E40E942A1C96
:100CC0006B017C0120915E0330915F0340916003D2
:100CD0005091610340905A0350905B0360905C0315
:100CE00070905D0380925E0390925F03A092600318
:100CF000B0926103C0925A03D0925B03E0925C030E
:100D0000F0925D03C501B4010E94BD1B20E030E0FC
:100D10004AE754E40E94E21A4B015C01A3019201EC
:100D2000C701B6010E94BD1B9B01AC01C501B40106
:100D30000E942A1CFF90EF90DF90CF90BF90AF9061
:100D40009F908F907F906F905F904F900895FB01E0
:100D500001900020E9F73197AF01461B570BDC01EA
:100D6000ED91FC910280F381E02D19948F929F9276
:100D7000AF92BF920F931F93CF93DF93CDB7DEB7A0
:100D8000A1970FB6F894DEBF0FBECDBF19A24230B7
:100D900008F44AE08E010F5D1F4F842E912CB12C78
:100DA000A12CA50194010E94F01CE62FB901CA01F3
:100DB000EA3004F5E05DD801EE938D01232B242B5E
:100DC000252B79F790E080E0109729F0BD0181E9AB
:100DD00093E00E94A706A1960FB6F894DEBF0FBE5F
:100DE000CDBFDF91CF911F910F91BF90AF909F909A
:100DF0008F900895E95CDFCF4F925F926F927F9260
:100E00008F929F92AF92BF92CF92DF92EF92FF921A
:100E10000F931F93CF936B017C01742EAC019B0148
:100E20000E94D71C6CE272E0811126C04601570176
:100E3000E894B7F82FEF3FEF4FE75FE7C501B40144
:100E40000E94D71C81110CC02FEF3FEF4FE75FE7E7
:100E5000C501B4010E947C1A60E372E0181664F0C8
:100E60002FEF3FEF4FE75FE4C701B6010E94D21CAE
:100E70001816ACF464E372E081E993E0CF911F911E
:100E80000F91FF90EF90DF90CF90BF90AF909F9029
:100E90008F907F906F905F904F900C94A7062FEFEC
:100EA0003FEF4FE75FECC701B6010E947C1A87FD58
:100EB000E1CF20E030E0A901C701B6010E947C1A11
:100EC00010E000E087FF0AC06DE281E993E00E9434
:100ED00002038C01F7FAF094F7F8F094C0E060E0B8
:100EE00070E080E09FE37C1641F020E030E040E2DB
:100EF00051E40E942A1CCF5FF6CFA70196010E9401
:100F0000BE1B2B013C010E94A31C4B015C014AE06B
:100F10000E94B6067C01E00EF11ECC23C1F1C50192
:100F2000B4010E94811A9B01AC01C301B2010E946D
:100F3000BD1B4B015C016EE281E993E00E9402035C
:100F4000E80EF91EC15018F120E030E040E251E413
:100F5000C501B4010E94E21A2B013C010E94A31CAE
:100F60004B01B12CA12C4AE0C501B4010E94B60688
:100F7000E80EF91EC501B4010E94811A9B01AC0163
:100F8000C301B2010E94BD1B4B015C01DBCFC70155
:100F9000CF911F910F91FF90EF90DF90CF90BF9076
:100FA000AF909F908F907F906F905F904F9008953B
:100FB000EC01009739F00E94A70668E372E0CE01C9
:100FC0000E94A7060E949510FC01808191810097E4
:100FD00011F00C94A81660E070E0CB010895FC01BC
:100FE00024813581232B39F421E0FB018081882382
:100FF00049F020E007C0808191810E943D1F21E0DF
:10100000892BB9F7822F08950F931F93CF93DF9306
:101010008C01EB01FC01808191810097E1F06881F6
:10102000798161157105A9F0428153812C813D813F
:101030004217530770F00E94461F8C819D81F80172
:10104000958384831D821C82DF91CF911F910F9124
:1010500008950E94CA1D88819981F8019183808337
:101060008A819B81938382838C819D8195838483F4
:10107000198218821B821A82E5CFCF93DF93EC018D
:1010800088819981009711F00E94CA1D19821882E7
:101090001D821C821B821A82DF91CF910895FC0170
:1010A00080819181009711F00C94CA1D0895EF92F0
:1010B000FF920F931F93CF93DF93EC017C018FE19D
:1010C000E80EF11C8E01055A1F4FE016F10631F0B3
:1010D00006501109C8010E944F08F7CFCE0149966A
:1010E0000E944F08CE0106960E944F08CE01DF9164
:1010F000CF911F910F91FF90EF900C944F080F9399
:101100001F93CF93DF93EC0188819981009759F069
:101110002A813B812617370730F081E0DF91CF919C
:101120001F910F9108958B016F5F7F4F0E94531E97
:10113000009759F0998388831B830A832C813D8112
:10114000232B59F7FC011082E8CF80E0E7CFEF9224
:10115000FF920F931F93CF93DF936115710541F4B5
:1011600080E0DF91CF911F910F91FF90EF90089554
:1011700041155105B1F07B01EC010C811D81040F7B
:10118000151FB8010E947F08882351F328813981F7
:101190008C819D81B701820F931F0E94461F1D8382
:1011A0000C8381E0DECFCF93DF931F921F92CDB7E8
:1011B000DEB769831A8241E050E0BE016F5F7F4F66
:1011C0000E94A7080F900F90DF91CF910895FB0127
:1011D00001900020E9F73197AF01461B570B0C94A3
:1011E000A708FB0144815581608171810C94A70897
:1011F000EF92FF920F931F93CF93DF93EC017B014C
:101200008A01BA010E947F0881110BC0CE010E94A1
:101210003D08CE01DF91CF911F910F91FF90EF908C
:1012200008951D830C83B701888199810E94461F10
:10123000F0CFCF93DF93EC01FB018617970749F0BE
:10124000608171816115710541F0448155810E9471
:10125000F808CE01DF91CF9108950E943D08F9CFA3
:10126000FC011182108213821282158214820C9466
:101270001909FC01118210821382128215821482D4
:10128000FB0101900020E9F73197AF01461B570B96
:101290000C94F808DF92EF92FF920F931F93CF9375
:1012A000DF938C017B01D42E6AE372E00E9439093E
:1012B000D0E0C0E0F70184819581C817D90788F490
:1012C00080819181009759F08C0F9D1FFC016081F6
:1012D000D61619F0C8010E94D3082196EBCF60E022
:1012E000F9CFC801DF91CF911F910F91FF90EF903F
:1012F000DF9008958F929F92AF92BF92CF92DF922C
:10130000EF92FF920F931F93CF93DF93CDB7DEB78A
:101310002C970FB6F894DEBF0FBECDBF7C01BC0189
:10132000CE0107960E9430094BE5BE01695F7F4FF1
:10133000CE0101960E944A09BE016F5F7F4FC7012F
:101340000E940408CE0101960E944F08CE01079624
:101350000E944F08B701CE0107960E9430094DE563
:10136000BE01695F7F4FCE0101960E944A09BE010E
:101370006F5F7F4FC7010E940408CE0101960E9453
:101380004F08CE0107960E944F0890908E04F701F7
:10139000A480B5806AE372E0CE0101960E9439090B
:1013A000D12CC12C10E000E086E0882ECA14DB04AA
:1013B000A4F5F70184819581C816D90690F480813F
:1013C0009181009771F08C0D9D1DFC016081961636
:1013D00051F0CE0101960E94D308FFEFCF1ADF0A29
:1013E000E5CF60E0F4CF0A301105BCF7809EC00164
:1013F000819E900D1124BE016F5F7F4F8B569B4FD6
:101400000E9419090F5F1F4F50E040E06AE372E04D
:10141000CE0101960E94F808E0CF6AE372E0CE01A7
:1014200001960E94EF07811112C00A3011057CF469
:1014300026E0209FC001219F900D1124BE016F5F07
:101440007F4F8B569B4F0E9419090F5F1F4FCE0194
:1014500001960E944F0810938B0400938A04023077
:10146000110509F448C0B4F401301105E9F12C96D6
:101470000FB6F894DEBF0FBECDBFDF91CF911F91A5
:101480000F91FF90EF90DF90CF90BF90AF909F9023
:101490008F9008950330110509F440C00430110500
:1014A00031F765E974E086E794E00E9419096BE37F
:1014B00072E086E794E00E94EF078823C1F26BE9AF
:1014C00074E08CE794E00E94190981EA94E00E949C
:1014D000E407609382047093830480938404909360
:1014E000850487EA94E051C065E974E086E794E0FA
:1014F0000E941909BCCF65E974E086E794E00E9478
:1015000019098BE994E00E94E407609382047093C8
:1015100083048093840490938504A9CF65E974E0E3
:1015200086E794E00E9419096BE372E086E794E095
:101530000E94EF07882391F06BE974E08CE794E058
:101540000E94190981EA94E00E94E40760938204F2
:101550007093830480938404909385046DE372E018
:1015600086E794E00E94EF07882309F480CF8BE997
:1015700094E00E94E4076093820470938304809354
:1015800084049093850481EA94E00E94E4076093C8
:10159000860470938704809388049093890467CFAE
:1015A000EF92FF920F931F93CF93DF93CDB7DEB7E8
:1015B000A1970FB6F894DEBF0FBECDBF7C01CB0163
:1015C000BA01F701118210821382128215821482ED
:1015D00042E0420F8E010F5F1F4F0E948A16009754
:1015E000C9F0FC0101900020E9F73197AF01481BD9
:1015F000590BBC01C7010E94F808A1960FB6F894D8
:10160000DEBF0FBECDBFDF91CF911F910F91FF9035
:10161000EF900895C7010E943D08EFCF8F929F92EF
:10162000AF92BF92CF92DF92EF92FF920F931F93F0
:10163000CF93DF93EC018B0163E472E01016110687
:1016400094F5C801880F991F880F991F0E942E1DBD
:101650007C01009731F18E809F805C01CA80DB8025
:1016600030E020E02815390514F588859985820F2A
:10167000931F6C817D810E94DC1CFC01EE0FFF1F1B
:10168000EE0FFF1FEC0DFD1D80819181A281B381C2
:10169000F50181939193A193B1935F012F5F3F4F28
:1016A000E1CF68E772E0888199810E94D807C6017E
:1016B0000E94CA1DFB82EA82198618868E819F814C
:1016C0009B878A871D830C83DF91CF911F910F9198
:1016D000FF90EF90DF90CF90BF90AF909F908F9052
:1016E00008958F929F92AF92BF92CF92DF92EF9226
:1016F000FF920F931F93CF93DF93EC014A015B019D
:101700008C010A5F1F4F2E893F8988819981281794
:1017100039070CF450C08C859D85009731F462EB3D
:1017200072E08E819F810E94D807688579854E85F9
:101730005F859A012F5F3F4F3F872E87440F551FCC
:10174000440F551F460F571FFA01C080D180E28019
:10175000F38001979D878C876A857B8526173707DD
:1017600011F41F861E860097A9F09B0177FF02C027
:101770002D5F3F4F359527953595279528173907C4
:101780004CF077FF02C06F5F7F4F75956795C8017A
:101790000E940E0BA70196016A897B898C899D891D
:1017A0000E94BD1B6A8B7B8B8C8B9D8B8E899F8946
:1017B00001979F8B8E8B68817981072E000C880B97
:1017C000990B0E94831A9B01AC01C501B4010E94D0
:1017D0002A1C6B017C016C857D858A859B85681739
:1017E000790729F4660F771FC8010E940E0B488500
:1017F0005985888999899C012F5F3F4F398B288BA8
:10180000880F991F880F991F840F951FFC01C082B4
:10181000D182E282F3828A859B852817390711F4E9
:10182000198A188A8C859D8501969D878C87688189
:101830007981072E000C880B990B0E94831A9B015B
:10184000AC01C501B4010E942A1C2A893B894C893C
:101850005D890E94BE1B6A8B7B8B8C8B9D8B2E8936
:101860003F892F5F3F4F3F8B2E8B8A809B80AC80C0
:10187000BD80A50194010E942A1C6B017C0120E01F
:1018800030E0A9010E94D21C20E030E040E05FE39C
:1018900087FD1BC0C701B6010E94BE1B0E949C1C95
:1018A0000E94831A9B01AC01C501B4010E94E21A97
:1018B000DF91CF911F910F91FF90EF90DF90CF902C
:1018C000BF90AF909F908F900895C701B6010E947E
:1018D000BD1BE4CF1F920F920FB60F9211240BB6CF
:1018E0000F922F933F934F935F936F937F938F93B9
:1018F0009F93AF93BF93EF93FF9381E993E00E948F
:10190000E002FF91EF91BF91AF919F918F917F91F5
:101910006F915F914F913F912F910F900BBE0F9060
:101920000FBE0F901F9018951F920F920FB60F9237
:1019300011240BB60F922F938F939F93EF93FF93E6
:10194000E091A103F091A2038081E091A703F091BF
:10195000A80382FD1DC090818091AA038F5F8F73C1
:101960002091AB03821741F0E091AA03F0E0EF561B
:10197000FC4F958F8093AA03FF91EF919F918F91D8
:101980002F910F900BBE0F900FBE0F901F901895C8
:101990008081F2CF1F920F920FB60F9211242F93D6
:1019A0003F938F939F93AF93BF9380918D039091BB
:1019B0008E03A0918F03B091900330916A0323E0CE
:1019C000230F2D3758F50196A11DB11D20936A03F1
:1019D00080938D0390938E03A0938F03B093900315
:1019E00080916B0390916C03A0916D03B0916E0395
:1019F0000196A11DB11D80936B0390936C03A0937E
:101A00006D03B0936E03BF91AF919F918F913F9102
:101A10002F910F900FBE0F901F90189526E8230F5F
:101A20000296A11DB11DD2CF1F920F920FB60F9239
:101A300011240BB60F922F933F934F935F936F93A5
:101A40007F938F939F93AF93BF93EF93FF93E09117
:101A50000E02F0910F021995FF91EF91BF91AF9196
:101A60009F918F917F916F915F914F913F912F91B6
:101A70000F900BBE0F900FBE0F901F9018951F92E6
:101A80000F920FB60F9211240BB60F922F933F9324
:101A90004F935F936F937F938F939F93AF93BF9376
:101AA000EF93FF93E0910C02F0910D021995FF91D5
:101AB000EF91BF91AF919F918F917F916F915F91C6
:101AC0004F913F912F910F900BBE0F900FBE0F9033
:101AD0001F9018951F920F920FB60F9211240BB6FC
:101AE0000F922F933F934F935F936F937F938F93B7
:101AF0009F93AF93BF93EF93FF93E0910202F09116
:101B000003021995FF91EF91BF91AF919F918F9132
:101B10007F916F915F914F913F912F910F900BBEED
:101B20000F900FBE0F901F9018951F920F920FB637
:101B30000F9211240BB60F922F933F934F935F9305
:101B40006F937F938F939F93AF93BF93EF93FF9385
:101B5000E0910002F09101021995FF91EF91BF9180
:101B6000AF919F918F917F916F915F914F913F9135
:101B70002F910F900BBE0F900FBE0F901F901895D6
:101B80001F920F920FB60F9211240BB60F922F9344
:101B90003F934F935F936F937F938F939F93AF93F5
:101BA000BF93EF93FF93E0910A02F0910B02199516
:101BB000FF91EF91BF91AF919F918F917F916F9125
:101BC0005F914F913F912F910F900BBE0F900FBEE1
:101BD0000F901F9018951F920F920FB60F9211241D
:101BE0000BB60F922F933F934F935F936F937F9317
:101BF0008F939F93AF93BF93EF93FF93E09108026E
:101C0000F09109021995FF91EF91BF91AF919F91CA
:101C10008F917F916F915F914F913F912F910F9095
:101C20000BBE0F900FBE0F901F9018951F920F9232
:101C30000FB60F9211240BB60F922F933F934F9331
:101C40005F936F937F938F939F93AF93BF93EF9324
:101C5000FF93E0910602F09107021995FF91EF9131
:101C6000BF91AF919F918F917F916F915F914F91B4
:101C70003F912F910F900BBE0F900FBE0F901F90B2
:101C800018951F920F920FB60F9211240BB60F9258
:101C90002F933F934F935F936F937F938F939F9374
:101CA000AF93BF93EF93FF93E0910402F09105028D
:101CB0001995FF91EF91BF91AF919F918F917F9176
:101CC0006F915F914F913F912F910F900BBE0F90AD
:101CD0000FBE0F901F9018951F920F920FB60F9284
:101CE00011240BB60F92CF92DF92EF92FF922F93B7
:101CF0003F934F935F936F937F938F939F93AF9394
:101D0000BF93EF93FF93CF93DF93CDB7DEB72C97BD
:101D1000DEBFCDBF6AE372E0CE0107960E943909AB
:101D20000E940C02BC01990F880B990B0E94831A28
:101D3000AB01BC018EE594E00E94710BAB01BC01CC
:101D400086E494E00E94710B6093660370936703CE
:101D500080936803909369032FB7F89460918D0383
:101D600070918E0380918F03909190032FBFC0904C
:101D70007D03D0907E03E0907F03F09080036C1988
:101D80007D098E099F090E94811A20E030E04AE710
:101D900054E40E942A1C6B017C016BE173E0CE01CC
:101DA00007960E94E708409166035091670360918F
:101DB00068037091690321E0CE0101960E94D00A68
:101DC000BE016F5F7F4FCE0107960E94F108CE01E2
:101DD00001960E944F0880917D0390917E03A0910F
:101DE0007F03B0918003181619061A061B06C4F467
:101DF00069EF72E0CE0107960E94E70823E0B70181
:101E0000A601CE0101960E94D00ABE016F5F7F4FEE
:101E1000CE0107960E94F108CE0101960E944F085C
:101E20006BEF72E0CE0107960E94E70861E2CE01F7
:101E300007960E94D3086FE173E0CE0107960E94D7
:101E4000E70860916203709163038091640390914D
:101E500065030E94831A2CE53FE842EA50E40E94A1
:101E6000E21A20E030E046E954E40E942A1CAB016B
:101E7000BC0121E0CE0101960E94D00ABE016F5F35
:101E80007F4FCE0107960E94F108CE0101960E9475
:101E90004F0880917D0390917E03A0917F03B091C4
:101EA0008003181619061A061B06C4F469EF72E0BF
:101EB000CE0107960E94E70823E0B701A601CE01F4
:101EC00001960E94D00ABE016F5F7F4FCE01079638
:101ED0000E94F108CE0101960E944F086BEF72E05C
:101EE000CE0107960E94E70861E2CE0107960E94A4
:101EF000D308C0906603D0906703E0906803F09029
:101F0000690320E030E0A901C701B6010E94D21C9C
:101F100018160CF061C020E030E44CE156E4C70133
:101F2000B6010E94D21C18160CF460C06AE273E07D
:101F3000CE0107960E94E7080E943206AB01BC0161
:101F40008EE294E00E94710BAB01BC0121E0CE0156
:101F500001960E94D00ABE016F5F7F4FCE010796A7
:101F60000E94F108CE0101960E944F086BEF72E0CB
:101F7000CE0107960E94E70861E2CE0107960E9413
:101F8000D308CE0107960E945002CE0107960E9408
:101F90004F081092A5001092A4002C960FB6F8944A
:101FA000DEBF0FBECDBFDF91CF91FF91EF91BF910B
:101FB000AF919F918F917F916F915F914F913F91E1
:101FC0002F91FF90EF90DF90CF900F900BBE0F906E
:101FD0000FBE0F901F90189520E030E44CE156ECB6
:101FE000C701B6010E947C1A87FFA0CF0E94E704B8
:101FF00063E273E081E993E00E94A70697CF1F9206
:102000000F920FB60F9211240BB60F922F933F939E
:102010004F935F936F937F938F939F93AF93BF93F0
:10202000CF93DF93EF93FF9310928500109284007B
:102030008AE00E94070461E068278AE00E94300479
:1020400060916203709163038091640390916503D2
:1020500020917C03222351F10E94831A2CE53FE852
:1020600042EA50E40E94E21A20E030E046E954E4FB
:102070000E942A1C9B01AC01C1E0D0E06091780372
:102080007091790380917A0390917B030E947C1A6E
:1020900087FD02C0D0E0C0E08BE00E940704C817B3
:1020A000D90721F00E94E70410927C038091770306
:1020B000882331F1209173033091740340917503AB
:1020C0005091760360916603709167038091680375
:1020D000909169030E94D21C87FD12C00E94E70400
:1020E00010926203109263031092640310926503CE
:1020F000109277036EE273E081E993E00E94A706F5
:10210000FF91EF91DF91CF91BF91AF919F918F910F
:102110007F916F915F914F913F912F910F900BBEE7
:102120000F900FBE0F901F90189561E08DE00E94F8
:102130005E0461E08DE00E9430046AEF70E080E0B0
:1021400090E00E94B40460E08DE00E9430046AEFE9
:1021500070E080E090E00E94B404EBCFCF93DF9377
:10216000EC011D821C821F821E82198618861B8626
:102170001A861982188288E090E00E942E1D9B83A7
:102180008A83892B11F40E94951082E090E09D8350
:102190008C83DF91CF910895CF92DF92EF92FF92DF
:1021A000CF93DF93109294031092930388EE93E001
:1021B000A0E0B0E08093950390939603A0939703DB
:1021C000B09398038EE192E09093920380939103F1
:1021D00085EC90E090939E0380939D0384EC90E0C7
:1021E0009093A00380939F0380EC90E09093A203D0
:1021F0008093A10381EC90E09093A4038093A303C8
:1022000082EC90E09093A6038093A50386EC90E087
:102210009093A8038093A7031092AA031092AB0394
:102220001092AC031092AD036AE372E086E794E08B
:102230000E9439096AE372E08CE794E00E94390950
:1022400010928204109283041092840410928504E8
:1022500010928604109287041092880410928904C8
:1022600010928B0410928A0482E390E090938D0484
:1022700080938C048BE380938E046AE372E08FE892
:1022800094E00E943909D0E0C0E06AE372E0CE0138
:102290008B569B4F0E9439092696CC33D105A9F75E
:1022A00084E694E00E94AE1088E090E090935F0492
:1022B00080935E048AE097EDA3E2BCE38093600420
:1022C00090936104A0936204B0936304109270042D
:1022D000109271041092720410927304109275049B
:1022E000109274048CE494E00E94AE1080E190E0BF
:1022F00090934704809346048DECC82E8CECD82E26
:10230000ED2C8DE3F82EC0924804D0924904E0925F
:102310004A04F0924B0410925804109259041092FF
:102320005A0410925B0410925D0410925C0484E3E2
:1023300094E00E94AE108AE090E090932F04809386
:102340002E04C0923004D0923104E0923204F09214
:1023500033041092400410924104109242041092EF
:1023600043041092450410924404DF91CF91FF90F2
:10237000EF90DF90CF900895CF93DF93CDB7DEB786
:10238000C157D1090FB6F894DEBF0FBECDBF789408
:1023900084B5826084BD84B5816084BD85B582606A
:1023A00085BD85B5816085BD80916E00816080931B
:1023B0006E00109281008091810082608093810084
:1023C0008091810081608093810080918000816094
:1023D000809380008091B10084608093B1008091EF
:1023E000B00081608093B000809191008260809302
:1023F0009100809191008160809391008091900084
:102400008160809390008091A10082608093A10000
:102410008091A10081608093A1008091A0008160E3
:102420008093A0008091210182608093210180919E
:10243000210181608093210180912001816080933E
:10244000200180917A00846080937A0080917A00E4
:10245000826080937A0080917A00816080937A0014
:1024600080917A00806880937A001092C100E09198
:10247000A103F091A20382E08083E0919D03F0919B
:102480009E031082E0919F03F091A00380E180837E
:102490001092A903E091A503F091A60386E0808342
:1024A000E091A303F091A403808180618083E09197
:1024B000A303F091A403808188608083E091A3034B
:1024C000F091A403808180688083E091A303F09160
:1024D000A40380818F7D808361E082E30E945E049B
:1024E00061E08AE00E945E0461E08BE00E945E048D
:1024F00061E08CE00E945E0460E08AE00E943004AB
:1025000060E08BE00E94300460E08CE00E943004C8
:102510001092800080918100816080938100809181
:102520008100826080938100809181008B7F809305
:102530008100109285001092840010928900109200
:10254000880062E086E30E945E0410926F0310929E
:102550007003109271031092720384E60E947E054C
:1025600062E082E10E945E0462E083E10E945E0418
:1025700061E082E10E94300461E083E10E94300466
:102580008DE096E090930B0280930A02809169009F
:102590008F73806880936900EB9A88EE95E0909342
:1025A000090280930802809169008F7C8062809389
:1025B0006900EA9A62E086E00E945E0462E087E0D9
:1025C0000E945E0411E081E993E00E94CA02892B17
:1025D00009F471C36AE372E0CE0188599F4F0E94EB
:1025E00039090E947C0297FD0AC08132910539F0B9
:1025F000682FCE0188599F4F0E94D308F2CFBE01A9
:1026000068597F4FCE0101960E943009CE01019694
:102610000E947A09CE0101960E944F0866E774E095
:10262000CE0101960E9430096CE774E0CE01079656
:102630000E9430098091820490918304A0918404C7
:10264000B09185048D879E87AF87B88B8091860473
:1026500090918704A0918804B0918904898B9A8B0A
:10266000AB8BBC8B80918A0490918B049E8B8D8B5D
:1026700080918C0490918D04988F8F8B80918E0423
:10268000898F6FE874E0CE014A960E9430099FE17D
:10269000E92EF12CB7016A587B4F81E090E08C0F56
:1026A0009D1F8E0D9F1D0E94300986E0E80EF11CD3
:1026B0008BE5E816F10471F78D899E8982309105CA
:1026C00009F48FC10CF031C1019709F462C1CE0148
:1026D00001960E94570861E2CE0188599F4F0E94DF
:1026E000D308CE0188599F4F0E945002CE018859CD
:1026F0009F4F0E944F0887E00E940704892B69F4CE
:1027000080916F008D7F80936F0060E08AE00E946F
:10271000300461E08CE00E94300486E00E940704EF
:10272000892B69F480916F008D7F80936F0060E04A
:102730008AE00E94300461E08CE00E9430040E9434
:102740003206AB01BC018EE294E00E94710B6B017A
:102750007C018090890390908A03A0908B03B090B5
:102760008C0320E030E0A901C501B4010E947C1A6D
:10277000412C512C32018823D1F020E030E0A90116
:10278000C501B4010E94D21C18160CF09DC220E0B5
:1027900030E048E455E4C501B4010E94E21A20E0AB
:1027A00030EC4EE955E40E942A1C2B013C0120E04C
:1027B00030E0A901C701B6010E947C1A812C912C3E
:1027C00054018823D1F020E030E0A901C701B6010F
:1027D0000E94D21C18160CF07FC220E030E048E4C2
:1027E00055E4C701B6010E94E21A20E030EC4EE940
:1027F00055E40E942A1C4B015C01A5019401C30110
:10280000B2010E94BD1B6B017C01C0928503D09276
:102810008603E0928703F092880320E030E0A9016C
:102820000E94E21A20918103309182034091830338
:10283000509184030E94BE1B9B01AC012093810335
:10284000309382034093830350938403C701B601FE
:102850000E94BE1B9B01AC0160E070E080E89FE33A
:102860000E942A1CE2966CAF7DAF8EAF9FAFE297BD
:102870000E94F40442E0C301B2010E94FC0669E038
:1028800073E081E993E00E94A70642E0C501B4012C
:102890000E94FC0669E073E081E993E00E94A706CC
:1028A00042E0C701B6010E94FC066BE073E081E9DB
:1028B00093E00E94A7066091850370918603809142
:1028C00087039091880342E00E94FC0661E173E077
:1028D00081E993E00E94A7066091810370918203D1
:1028E000809183039091840342E00E94FC0665E19D
:1028F00073E081E993E00E94A70642E0E2966CADA6
:102900007DAD8EAD9FADE2970E94FC0668E372E05C
:1029100081E993E00E94A7066AE070E080E090E021
:102920000E94B4040E946F034ECE8330910509F4D7
:1029300009C1049709F0CBCE6BE372E0CE0101969A
:102940000E94EF07882309F4C2CECD84DE84EF8491
:10295000F888C0928903D0928A03E0928B03F092A8
:102960008C0361E073E0CE0107960E94EF07882395
:1029700009F469C120E030E0A901C701B6010E9455
:10298000D21C18160CF471C1F7FAF094F7F8F09411
:102990006CC164EE72E0CE0101960E94EF078823BD
:1029A00019F084E60E947E0569EE72E0CE01019680
:1029B0000E94EF07882309F48ACE2FB7F8948091FC
:1029C0008D0390918E03A0918F03B09190032FBF40
:1029D00080937D0390937E03A0937F03B093800345
:1029E00076CE61EF72E0CE0101960E94EF07882358
:1029F00009F48FC04D845E846F8478888FE0A82EA0
:102A0000B12CC12CD12C760164E170E080E090E023
:102A10000E94B4040E940C02BC01990F880B990B10
:102A20000E94831A20E030E040E751E40E942A1C13
:102A30009B01AC01C701B6010E94BE1B6B017C016A
:102A400081E0A81AB10801F7A30192015058C7010B
:102A5000B6010E942A1C209110023091110240916F
:102A60001202509113020E94E21A6B017C01C09283
:102A70001002D0921102E0921202F092130284E648
:102A80000E947E05A301920160916F037091700313
:102A900080917103909172030E94BE1B60936F033B
:102AA00070937003809371039093720365EF72E0EB
:102AB000CE018E599F4F0E94390927E0B701A60128
:102AC000CE01845A9F4F0E94D00ABE01645A7F4FA4
:102AD000CE018E599F4F0E94F108CE01845A9F4F1C
:102AE0000E944F086BEF72E0CE018E599F4F0E94FB
:102AF000E70861E2CE018E599F4F0E94D308CE01B4
:102B00008E599F4F0E945002CE018E599F4F0E94B6
:102B10004F086DEF72E0CE0101960E94EF07882307
:102B200009F4D5CD8D859E85AF85B8898093100237
:102B300090931102A0931202B093130282E30E94B9
:102B40007E05C5CD6BE372E0CE0101960E94EF07D2
:102B50008823C9F1CD84DE84EF84F888C09289038C
:102B6000D0928A03E0928B03F0928C0361E073E0D1
:102B7000CE0107960E94EF07882371F020E030E035
:102B8000A901C701B6010E94D21C1816B4F0F7FAC9
:102B9000F094F7F8F09411C064E073E0CE0107966A
:102BA0000E94EF078823E1F120E030E0A901C7018E
:102BB000B6010E94D21C181654F3C701B6010E9438
:102BC0001B0510927C036DE372E0CE0101960E941A
:102BD000EF07882309F47BCD89899A89AB89BC8961
:102BE000CD84DE84EF84F888109377038093730399
:102BF00090937403A0937503B093760320E030E0C4
:102C0000A901C701B6010E94D21C181624F4F7FAD4
:102C1000F094F7F8F094C701B6010E941B0557CD58
:102C200067E073E0CE0107960E94EF07882349F220
:102C30000E94E7041092890310928A0310928B037A
:102C400010928C03BECF64E073E0CE0107960E9421
:102C5000EF078823E9F020E030E0A901C701B601C1
:102C60000E94D21C18160CF48FCEC701B6010E9428
:102C70001B0510937C0389899A89AB89BC89809351
:102C8000780390937903A0937A03B0937B031FCDCD
:102C900067E073E0CE0107960E94EF07882349F3AF
:102CA0000E94E7041092890310928A0310928B030A
:102CB00010928C03DECF80E00E940704892B09F07C
:102CC0001ACD0E94E70417CDC501B401905820E049
:102CD00030E048E455E461CDC701B601905820E0EA
:102CE00030E048E455E47FCD80913604909137047C
:102CF0000E94CA1D80914E0490914F040E94CA1DEB
:102D000080916604909167040E94CA1D86E794E052
:102D10000C945708EF920F931F93CF93DF93E80122
:102D200034E047FD34E1042E000C550B57FF03C07F
:102D3000519541955109E32E022F242FAE010E9497
:102D4000AC16CE01DF91CF911F910F91EF900895B6
:102D5000662777270C9425188F929F92AF92BF9287
:102D6000CF92DF92EF92FF920F931F93CF93DF9357
:102D700000D000D000D0CDB7DEB76A01F22EB02E61
:102D8000102FFBE3AF2EA01608F41BE31F5F012FEB
:102D900027E0AE014F5F5F4F0E948319BC0189811C
:102DA000982F9970913009F44EC09BE2E1FC04C069
:102DB0009E2D9170E0FC49C05E2D5071E82FE870A7
:102DC00083FF55C084E0911101C083E0EF2DE81B23
:102DD0008F1508F0E0E0D6018E2F20E25523C9F1CF
:102DE000992329F0D6019C93C60101966C019601A6
:102DF0002D5F3F4FE2FE33C08EE4D6018C9391E409
:102E000011969C93119712968C93D9018E2F90E274
:102E100081112AC0E20FF32FF11D10828EEF9FEF78
:102E200029960FB6F894DEBF0FBECDBFDF91CF91CC
:102E30001F910F91FF90EF90DF90CF90BF90AF90D8
:102E40009F908F9008959DE2B7CF90E2B5CF2D93DC
:102E500081508111FCCFCE0ED11CE0E0C1CF8EE6B7
:102E6000D6018C9391E6CCCF9D938150D1CF482F42
:102E7000447082FF3DC084E0911101C083E08F1552
:102E800010F4EF2DE81BD6018E2F20E2552309F117
:102E9000992329F0D6019C93C60101966C019601F5
:102EA0002D5F3F4FE2FE1BC089E4D6018C938EE478
:102EB00011968C93119786E412968C93D9018E2FDC
:102EC00090E2882309F4A6CF9D938150FACF2D93E9
:102ED00081508111FCCFCE0ED11CE0E0D9CF89E624
:102EE000D6018C938EE611968C93119786E6E4CFEB
:102EF0009B0177FF02C030E020E0A1E0B0E091113B
:102F000002C0B0E0A0E0F9013196AE0FBF1F8B2CDC
:102F1000912CBB2009F461C05401EFEFAE1ABE0A38
:102F2000AA0DBB1DFA161B0619F014F04F2D4A1BF3
:102F3000511188C0E3FC59C07601A42FB0E2A11161
:102F40004FC0C40ED11C992309F45BC040E0D601E8
:102F50001196F60190836D01552309F448C0012FA5
:102F6000060F9A81582F507184FF03C0913309F4E2
:102F7000015010160CF047C0093008F008E0EEE2EE
:102F8000FE2E5B01A01AB1088501919481949108ED
:102F90002F3F320729F4D601FC92F60131966F01DA
:102FA0006217730794F1021713077CF5DB01A21B6C
:102FB000B30BAA24A394B12CAC0EBD1EAA0DBB1D4D
:102FC00011968C9121503109D60111962815390599
:102FD000F4F0F60180836D01DBCFB12CA12CA0CFE2
:102FE000F701B1937F01A150AACF9111B0CFD601C3
:102FF000942F50E302C05D9391509111FCCFC40E09
:10300000D11C40E0ACCF01E0BACF80E3DBCF621748
:10301000730731F4963388F4953311F4552369F02E
:10302000F6018083FD01842F90E2811108C0A40F76
:10303000B11D1C9290E080E0F3CE81E3F1CF91933B
:103040008150F3CF911183CF8ACF8F929F92AF920D
:10305000BF92CF92DF92EF92FF920F931F93CF9385
:10306000DF935C017B016115710519F0DB018D9324
:103070009C9385010F5F1F4FF501D0818D2F90E04C
:103080000E945B1A6C01892BB9F5DD32B9F50F5F2F
:103090001F4FD5011196DC91C1E05801F1E0AF1A44
:1030A000B10843E050E060E671E0C5010E94641A97
:1030B000892B69F5680182E0C80ED11C45E050E01B
:1030C0006BE571E0C6010E94641A892B21F4680146
:1030D00097E0C90ED11CE114F10419F0D701CD928B
:1030E000DC9260E070E080E89FEFC111FFC060E01B
:1030F00070E080E89FE7FAC05801BBCFDB3229F4CB
:1031000085010E5F1F4FF501D181C0E0C6CF43E0BE
:1031100050E068E571E0C5010E94641A892BE9F06E
:10312000F80110E000E020E030E0A9015F01B0ED1F
:103130008B2E8D0E89E08815C8F19C2E689491F82D
:103140008C2F8870C2FF16C0811102C00F5F1F4F05
:103150003196D501DC91C92DE9CFE114F10429F0B4
:103160000E5F1F4FF7011183008360E070E080EC79
:103170009FE7BCC0882311F001501109A5E0B0E021
:103180000E94A31B9B01AC01220F331F441F551F3C
:10319000280D311D411D511D283999E9390749076D
:1031A00099E15907A8F2C6609C2ED2CFAEEF8A12E1
:1031B00006C0C3FD3CC09C2E689493F8C9CFDF7D48
:1031C000D534A9F580818D3239F4C061DF011296C2
:1031D000818162E070E006C0DF018B32C1F311969D
:1031E00061E070E080535D01A61AB70A8A30F8F4F6
:1031F000E0E8CE16ECE0DE065CF4B601660F771F61
:10320000660F771FC60ED71ECC0CDD1CC80ED11C56
:103210005D01FFEFAF1ABF0A8C9180538A30A8F18D
:10322000C4FF03C0D194C194D1080C0D1D1DC1FF72
:1032300009C0E114F10431F081E0A81AB108D70106
:10324000AD92BC92CA01B9010E94811AC370C33009
:1032500009F490584B015C0120E030E0A9010E9484
:103260007C1A882309F440C0CFE8D1E017FF05C0DD
:10327000119501951109C7E7D1E06E01B8E1CB1AAC
:10328000D10880E2E82EF12C0FC0D501B1CFFE01AC
:1032900025913591459154910E191F09C501B4012D
:1032A0000E94E21A4B015C01D501C4010E151F05F5
:1032B00074F72497F594E794CC16DD06A9F78A2FC6
:1032C000880F8B2F881F8F3F49F020E030E0A90145
:1032D000C501B4010E947C1A811106C082E290E00F
:1032E0009093D2048093D104C501B401DF91CF91B2
:1032F0001F910F91FF90EF90DF90CF90BF90AF9014
:103300009F908F900895283008F027E03327DA0146
:10331000990F311D87FD916000966105710539F4A3
:1033200032602E5F3D9330E32A95E1F708959F3F89
:1033300030F080387105610509F03C5F3C5F3D93DA
:10334000913008F08068911DDF93CF931F930F9306
:10335000FF92EF92192F987F9695E92F9695969563
:10336000E90FFF27E351FE4F99273327EE24FF246F
:10337000A701E70105900894079428F4360FE71E8B
:10338000F81E491F511D660F771F881F991F06944D
:10339000A1F70590079428F4E70EF81E491F561F61
:1033A000C11D770F881F991F661F0694A1F705900E
:1033B000079428F4F80E491F561FC71FD11D880F08
:1033C000991F661F771F0694A1F70590079420F4B4
:1033D000490F561FC71FD81F990F661F771F881FD9
:1033E0000694A9F784911095177041F0D695C7956A
:1033F00057954795F794E7941A95C1F7E3E9F1E0FB
:1034000068941590159135916591959105907FE29D
:103410007395E118F10A430B560BC90BD009C0F79D
:10342000E10CF11E431F561FC91FD01D7EF47033DF
:1034300011F48A95E6CFE894015030F0080F0AF4B1
:103440000027021708F4202F2395022F7A3328F043
:1034500079E37D932A95E9F710C07D932A9589F643
:10346000069497956795379517951794E118F10A83
:10347000430B560BC90BD00998F023957E91739599
:103480007A3308F070E37C932013B8F77E91706173
:103490007D9330F0839571E37D9370E32A95E1F796
:1034A0001124EF90FF900F911F91CF91DF919927F9
:1034B00087FD9095089591110C944F1B803219F05F
:1034C00089508550C8F70895FB01DC0141505040F8
:1034D00088F08D9181341CF08B350CF4805E659101
:1034E00061341CF06B350CF4605E861B611171F366
:1034F000990B0895881BFCCF0E94BE1A08F481E046
:103500000895E89409C097FB3EF4909580957095D6
:1035100061957F4F8F4F9F4F9923A9F0F92F96E91F
:10352000BB279395F695879577956795B795F11194
:10353000F8CFFAF4BB0F11F460FF1BC06F5F7F4F31
:103540008F4F9F4F16C0882311F096E911C0772343
:1035500021F09EE8872F762F05C0662371F096E84C
:10356000862F70E060E02AF09A95660F771F881F1B
:10357000DAF7880F9695879597F90895990F0008BF
:10358000550FAA0BE0E8FEEF16161706E807F90735
:10359000C0F012161306E407F50798F0621B730BD0
:1035A000840B950B39F40A2661F0232B242B252B51
:1035B00021F408950A2609F4A140A6958FEF811DF4
:1035C000811D08950E94F51A0C94691B0E945B1BD3
:1035D00038F00E94621B20F0952311F00C94521BCE
:1035E0000C94581B11240C949D1B0E947A1B70F3A1
:1035F000959FC1F3950F50E0551F629FF001729F98
:10360000BB27F00DB11D639FAA27F00DB11DAA1FA6
:10361000649F6627B00DA11D661F829F2227B00DF3
:10362000A11D621F739FB00DA11D621F839FA00D7E
:10363000611D221F749F3327A00D611D231F849FCE
:10364000600D211D822F762F6A2F11249F57504025
:103650009AF0F1F088234AF0EE0FFF1FBB1F661FA0
:10366000771F881F91505040A9F79E3F510580F069
:103670000C94521B0C949D1B5F3FE4F3983ED4F3D3
:10368000869577956795B795F795E7959F5FC1F70D
:10369000FE2B880F911D9695879597F90895992788
:1036A0008827089597F99F6780E870E060E00895A3
:1036B0009FEF80EC089500240A941616170618064A
:1036C0000906089500240A94121613061406050626
:1036D0000895092E0394000C11F4882352F0BB0FB7
:1036E00040F4BF2B11F460FF04C06F5F7F4F8F4F1A
:1036F0009F4F089557FD9058440F551F59F05F3F55
:1037000071F04795880F97FB991F61F09F3F79F003
:1037100087950895121613061406551FF2CF469585
:10372000F1DF08C0161617061806991FF1CF869507
:103730007105610508940895E894BB2766277727EB
:10374000CB0197F908950E94AE1BA59F900DB49FE1
:10375000900DA49F800D911D11240895A29FB0018A
:10376000B39FC001A39F700D811D1124911DB29FB5
:10377000700D811D1124911D08955058BB27AA2753
:103780000E94D51B0C94691B0E945B1B38F00E94A1
:10379000621B20F039F49F3F19F426F40C94581B57
:1037A0000EF4E095E7FB0C94521BE92F0E947A1B64
:1037B00058F3BA17620773078407950720F079F466
:1037C000A6F50C949C1B0EF4E0950B2EBA2FA02DA1
:1037D0000B01B90190010C01CA01A0011124FF27BE
:1037E000591B99F0593F50F4503E68F11A16F040B9
:1037F000A22F232F342F4427585FF3CF46953795B8
:103800002795A795F0405395C9F77EF41F16BA0B7C
:10381000620B730B840BBAF09150A1F0FF0FBB1F2A
:10382000661F771F881FC2F70EC0BA0F621F731F73
:10383000841F48F4879577956795B795F7959E3FD0
:1038400008F0B0CF9395880F08F09927EE0F979561
:10385000879508950E943E1C0C94691B0E94621B70
:1038600058F00E945B1B40F029F45F3F29F00C9454
:10387000521B51110C949D1B0C94581B0E947A1BD7
:1038800068F39923B1F3552391F3951B550BBB278F
:10389000AA2762177307840738F09F5F5F4F220FD4
:1038A000331F441FAA1FA9F335D00E2E3AF0E0E8CB
:1038B00032D091505040E695001CCAF72BD0FE2F15
:1038C00029D0660F771F881FBB1F261737074807A9
:1038D000AB07B0E809F0BB0B802DBF01FF27935861
:1038E0005F4F3AF09E3F510578F00C94521B0C94B8
:1038F0009D1B5F3FE4F3983ED4F3869577956795DB
:10390000B795F7959F5FC9F7880F911D9695879595
:1039100097F90895E1E0660F771F881FBB1F6217B4
:1039200073078407BA0720F0621B730B840BBA0B72
:10393000EE1F88F7E09508950E94A31C6894B111CA
:103940000C949D1B08950E94821B88F09F5798F04D
:10395000B92F9927B751B0F0E1F0660F771F881F94
:10396000991F1AF0BA95C9F714C0B13091F00E94AE
:103970009C1BB1E008950C949C1B672F782F88271F
:10398000B85F39F0B93FCCF3869577956795B395D5
:10399000D9F73EF490958095709561957F4F8F4F44
:1039A0009F4F08950E94BE1A08F48FEF08950E9459
:1039B000BE1A880B990B089597FB072E16F40094F6
:1039C00007D077FD09D00E941A1D07FC05D03EF4F0
:1039D000909581959F4F0895709561957F4F0895BB
:1039E000A1E21A2EAA1BBB1BFD010DC0AA1FBB1F03
:1039F000EE1FFF1FA217B307E407F50720F0A21B75
:103A0000B30BE40BF50B661F771F881F991F1A94E1
:103A100069F760957095809590959B01AC01BD010B
:103A2000CF010895EE0FFF1F881F8BBF0790F691FF
:103A3000E02D1994AA1BBB1B51E107C0AA1FBB1F95
:103A4000A617B70710F0A61BB70B881F991F5A952A
:103A5000A9F780959095BC01CD0108950F931F9310
:103A6000CF93DF938230910510F482E090E0E091F3
:103A7000D504F091D60430E020E0B0E0A0E030972B
:103A800099F42115310509F44AC0281B390B24305B
:103A90003105D8F58A819B816115710589F1FB019A
:103AA00093838283FE0111C0408151810281138181
:103AB00048175907E0F04817590799F4109761F033
:103AC00012960C93129713961C933296CF01DF91A6
:103AD000CF911F910F9108950093D5041093D604B0
:103AE000F4CF2115310551F04217530738F0A901E1
:103AF000DB019A01BD01DF01F801C1CFEF01F9CF70
:103B00009093D6048093D504CDCFFE01E20FF31F2E
:103B1000819391932250310939832883D7CF209103
:103B2000D3043091D404232B41F420911602309118
:103B300017023093D4042093D304209114023091BF
:103B400015022115310541F42DB73EB740911802F9
:103B500050911902241B350BE091D304F091D40449
:103B6000E217F307A0F42E1B3F0B2817390778F054
:103B7000AC014E5F5F4F2417350748F04E0F5F1FB3
:103B80005093D4044093D304819391939FCFF0E05A
:103B9000E0E09CCFCF93DF930097E9F0FC013297F0
:103BA00013821282A091D504B091D604ED0130E0C9
:103BB00020E01097A1F420813181820F931F209182
:103BC000D3043091D4042817390709F061C0F09369
:103BD000D404E093D304DF91CF910895EA01CE1786
:103BE000DF07E8F54A815B819E0141155105B1F778
:103BF000E901FB83EA8349915991C40FD51FEC1762
:103C0000FD0761F4808191810296840F951FE9017F
:103C100099838883828193819B838A83F0E0E0E0AB
:103C200012968D919C9113970097B9F52D913C9127
:103C30001197CD010296820F931F2091D3043091EA
:103C4000D4042817390739F6309751F51092D60465
:103C50001092D504B093D404A093D304BCCFD383E3
:103C6000C28340815181840F951FC817D90761F421
:103C70004E5F5F4F88819981480F591F5183408360
:103C80008A819B81938382832115310509F0B0CF0E
:103C9000F093D604E093D5049ECFFD01DC01C0CFA4
:103CA00013821282D7CF4F925F926F927F928F9240
:103CB0009F92AF92BF92CF92DF92EF92FF920F93BB
:103CC0001F93CF93DF938C01009799F4CB01DF9181
:103CD000CF911F910F91FF90EF90DF90CF90BF9009
:103CE000AF909F908F907F906F905F904F900C94CB
:103CF0002E1DFC01E60FF71F9C0122503109E2172F
:103D0000F30708F4AEC0D901CD91DC911197C61725
:103D1000D70720F1C530D10578F0CE01049786177A
:103D2000970750F0C61BD70B2297C193D1936D9381
:103D30007C93CF010E94CA1DC801DF91CF911F91D2
:103D40000F91FF90EF90DF90CF90BF90AF909F903A
:103D50008F907F906F905F904F9008955B01AC1AA9
:103D6000BD0A4C018C0E9D1EA091D504B091D604C5
:103D7000512C412CF12CE12C109731F58091D3047A
:103D80009091D4048815990509F05CC04616570631
:103D900008F058C08091140290911502009741F4E8
:103DA0008DB79EB74091180250911902841B950B54
:103DB000E817F90708F055C0F093D404E093D30452
:103DC000F90171836083B8CF8D919C911197129600
:103DD0006C90129713967C901397A815B90559F516
:103DE0006C0142E0C40ED11CCA14DB0420F1AC010A
:103DF0004A195B09DA011296159780F06282738284
:103E000051834083D9016D937C93E114F10471F0E7
:103E1000D7011396FC93EE9312978ECF22968C0FB8
:103E20009D1FF90191838083F301EFCFF093D604B6
:103E3000E093D50481CF4816590608F42C017D0182
:103E4000D3019ACFCB010E942E1D7C01009749F02F
:103E5000AE01B8010E94341FC8010E94CA1D87012B
:103E60006BCF10E000E068CFFB01DC0102C00190E5
:103E70000D9241505040D8F70895FB01DC018D911F
:103E8000019080190110D9F3990B0895FB01DC0111
:103E900001900D920020E1F7089511E0C8EDD1E006
:103EA00000E006C0802FFE010E94121D2196011D18
:0E3EB000C93DD10780E00807A9F7F894FFCFBD
:103EBE00E604E604E604E604E604E604E604E604A4
:103ECE00446B60430000D704800000000000020332
:103EDE00230259024F03CA026802BC026E616E00D1
:103EEE00696E66006F7666000D0A004D005A4552E7
:103EFE0041520051554555453A206572726F7220F8
:103F0E0064756520746F20756E6465736972616285
:103F1E006C652073697A6520666F722071756575A0
:103F2E00652073697A652E0051554555453A2069CD
:103F3E006E73756666696369656E74206D656D6F07
:103F4E00727920746F20696E697469616C697A6523
:103F5E002074656D706F726172792071756575650B
:103F6E002E0051554555453A2063616E27742070D9
:103F7E006F70206974656D2066726F6D2071756546
:103F8E0075653A20717565756520697320656D706C
:103F9E0074792E005441524100494E4954494D45C1
:103FAE000043414C005B4C43433B005D004C43439C
:103FBE0000555000444E0053002000202020503A5F
:103FCE000020493A00202050493A005B4C3B005BF0
:103FDE00453B005B573B4F5D21005B563B005B5AF8
:063FEE0045524F5D210069
:00000001FF
